:0400000050EF02F0CB
:100008003582D9CF27F0DACF28F0F3CF29F0F4CF13
:100018002AF0D8CF61F00001606FE0CF62F0EACF3C
:1000280063F0E9CF64F0F2AA1CEF00F01EEF00F0D5
:100038002FEF02F0F2A423EF00F025EF00F02FEFEE
:1000480002F06505D8A42BEF00F02DEF00F030EF9B
:1000580000F01B0EFC6E656B6FC0EAFFE96A60C0BA
:10006800EEFF61C0EEFF62C0EEFFFCCFEEFF63C0A3
:10007800EEFF64C0EEFFE2CFEEFFE1CFEEFFDACF96
:10008800EEFFD9CFEEFFF4CFEEFFF3CFEEFFF8CFC0
:10009800EEFFF7CFEEFFF6CFEEFFF5CFEEFFFBCF8B
:1000A800EEFFFACFEEFFE26AE16AE6CFEEFFE6CFB7
:1000B800EEFFE6CFEEFFE6CFEEFFE6CFEEFFE6CFB0
:1000C800EEFFE6CFEEFFE6CFEEFFE6CFEEFFE6CFA0
:1000D800EEFFE6CFEEFFE6CFEEFFE6CFEEFFE6CF90
:1000E800EEFFE6CFEEFFE6CFEEFFE6CFEEFFE6CF80
:1000F800EEFFE6CFEEFFE6CFEEFFE6CFEEFFE6CF70
:10010800EEFFE6CFEEFFE6CFEEFFE6CFEEFFE6CF5F
:10011800EEFFE6CFEEFFE6CFEEFFE6CFEEFFE6CF4F
:10012800EEFFE6CFEEFFE6CFEEFFE6CFEEFFE6CF3F
:10013800EEFFE6CFEEFFE6CFEEFFE6CFEEFFE6CF2F
:10014800EEFFE6CFEEFFE6CFEEFFE6CFEEFFE6CF1F
:10015800EEFFE6CFEEFFE6CFEEFFE6CFEEFFE6CF0F
:10016800EEFFE6CFEEFFE6CFEEFF8A0ED76ECF0E9C
:10017800D66EF294714B722B8105D8A4C6EF00F0AD
:10018800C8EF00F0C9EF00F0816B8205D8A4CFEF6B
:1001980000F0D1EF00F0D2EF00F0826B07011505F7
:1001A800D8A4D9EF00F0DBEF00F0DCEF00F0156B1E
:1001B8001105D8A4E2EF00F0E4EF00F0E5EF00F05D
:1001C800116B0901006B050E0065EDEF00F0EFEF14
:1001D80000F0F1EF00F032EF01F00051060D080ECB
:1001E800F324D96E080EF420DA6EDE500001715D3A
:1001F800DE507259D8A003EF01F005EF01F02EEFA1
:1002080001F009010051060D0A0EF324D96E080EFB
:10021800F420DA6E010EDF6E0051060D060EF3248F
:10022800D96E080EF420DA6EDECF24F0DDCF25F08B
:100238000001715124267251252209010051060D31
:10024800080EF324D96E080EF420DA6E24C0DEFFFF
:1002580025C0DDFF0901002BE7EF00F02B6A000144
:100268006F6B0901016B050E01653DEF01F03FEF72
:1002780001F041EF01F08EEF01F00151060D0A0E79
:10028800F324D96E080EF420DA6EDF50D8B44FEF9D
:1002980001F051EF01F08AEF01F0000183317F0B8B
:1002A800246E01C925F0010E266E252A5EEF01F0A5
:1002B800D8902636252E5CEF01F02650241400092C
:1002C800D8A469EF01F06BEF01F08AEF01F00901A2
:1002D8000151060D050EF324D96E080EF420DA6ECE
:1002E800DE502B5CD8B07BEF01F07DEF01F08AEF98
:1002F80001F00151060D050EF324D96E080EF42005
:10030800DA6EDF502B6E012900016F6F0901012B96
:1003180037EF01F000016F51060D040EF324D96E7A
:10032800080EF420DA6EDF6AE26AE16A6FC0EAFF5B
:10033800120EE96EEECFE6FFEECFE6FFEECFE6FF58
:10034800EECFE6FFEECFE6FFEECFE6FFEECFE6FF1D
:10035800EECFE6FFEECFE6FFEECFE6FFEECFE6FF0D
:10036800EECFE6FFEECFE6FFEECFE6FFEECFE6FFFD
:10037800EECFE6FFEECFE6FFEECFE6FFEECFE6FFED
:10038800EECFE6FFEECFE6FFEECFE6FFEECFE6FFDD
:10039800EECFE6FFEECFE6FFEECFE6FFEECFE6FFCD
:1003A800EECFE6FFEECFE6FFEECFE6FFEECFE6FFBD
:1003B800EECFE6FFEECFE6FFEECFE6FFEECFE6FFAD
:1003C800EECFE6FFEECFE6FFEECFE6FFEECFE6FF9D
:1003D800EECFE6FFEECFE6FFEECFE6FFEECFE6FF8D
:1003E800EECFE6FFEECFE6FFEECFE6FFEECFE6FF7D
:1003F800EECFE6FF6FC0EAFFE96AEECF60F0EECF1E
:1004080061F0EECF62F0EECFFCFFEECF63F0EECFFF
:1004180064F0EECFE2FFEECFE1FFEECFDAFFEECFF2
:10042800D9FFEECFF4FFEECFF3FFEECFF8FFEECF1C
:10043800F7FFEECFF6FFEECFF5FFEECFFBFFEECFE7
:10044800FAFF64C0E9FF63C0EAFF62C0E0FF6051E1
:1004580061C0D8FF100064C0E9FF63C0EAFF62C052
:10046800E0FF0001605161C0D8FF100082EC0FF07E
:1004780057EC12F07BEC11F001EC08F031EC13F0C2
:100488001DEC0EF02AC0F4FF29C0F3FF28C0DAFFE4
:0C04980027C0D9FF35921100CDEF17F0FE
:101000000000020E126E0A0E126409EF08F00BEFD8
:1010100008F02BEF08F00E0E126411EF08F013EF3A
:1010200008F01BEF08F0170E126419EF08F01BEF21
:1010300008F02BEF08F01B0E126421EF08F023EFED
:1010400008F033EF08F0250E126029EF08F02BEFBF
:1010500008F033EF08F012C009F00C0E71EC15F037
:101060002A0E48EC16F0122A240E12643AEF08F009
:101070003CEF08F003EF08F00F0E136E010E096E3F
:10108000135071EC15F02A0E48EC16F00B0E096E99
:10109000135071EC15F02A0E48EC16F00E0E096E86
:1010A000135071EC15F02A0E48EC16F0180E096E6C
:1010B000135071EC15F02A0E48EC16F01B0E096E59
:1010C000135071EC15F02A0E48EC16F0250E096E3F
:1010D000135071EC15F02A0E48EC16F013060D0EA5
:1010E000136075EF08F077EF08F03EEF08F0020E9E
:1010F000096E0B0E71EC15F0540E48EC16F0030E51
:10110000096E0B0E71EC15F0650E48EC16F0040E2E
:10111000096E0B0E71EC15F06D0E48EC16F0050E15
:10112000096E0B0E71EC15F0700E48EC16F0070E00
:10113000096E0B0E71EC15F0450E48EC16F0080E1A
:10114000096E0B0E71EC15F0610E48EC16F0090EED
:10115000096E0B0E71EC15F0750E48EC16F01C0EB6
:10116000096E0B0E71EC15F0540E48EC16F01D0EC6
:10117000096E0B0E71EC15F0650E48EC16F01E0EA4
:10118000096E0B0E71EC15F06D0E48EC16F01F0E8B
:10119000096E0B0E71EC15F0700E48EC16F0210E76
:1011A000096E0B0E71EC15F0480E48EC16F0220E8D
:1011B000096E0B0E71EC15F0750E48EC16F0230E4F
:1011C000096E0B0E71EC15F0690E48EC16F0240E4A
:1011D000096E0B0E71EC15F06C0E48EC16F0250E36
:1011E000096E0B0E71EC15F0650E48EC16F0100E42
:1011F000096E0B0E71EC15F0560E48EC16F0110E40
:10120000096E0B0E71EC15F0690E48EC16F0120E1B
:10121000096E0B0E71EC15F0740E48EC16F0130EFF
:10122000096E0B0E71EC15F0650E48EC16F0140EFD
:10123000096E0B0E71EC15F0730E48EC16F0150EDE
:10124000096E0B0E71EC15F0730E48EC16F0160ECD
:10125000096E0B0E71EC15F0650E48EC16F0130ECE
:10126000096E0E0E71EC15F06B0E48EC16F0140EB4
:10127000096E0E0E71EC15F06D0E48EC16F0150EA1
:10128000096E0E0E71EC15F02F0E48EC16F0160ECE
:10129000096E0E0E71EC15F0680E48EC16F0080E93
:1012A000096E0E0E71EC15F0430E48EC16F0220E8E
:1012B000096E0E0E71EC15F0430E48EC16F0240E7C
:1012C000096E000E71EC15F0250E48EC16F0010EBB
:1012D000116E0D0E1118D8B470EF09F072EF09F00D
:1012E0008DEF09F01A0E1118D8A479EF09F07BEFF1
:1012F00009F07DEF09F08DEF09F011C009F0020E41
:1013000071EC15F02A0E48EC16F011C009F0090E28
:1013100071EC15F02A0E48EC16F0112A260E116415
:1013200094EF09F096EF09F069EF09F0080E146EDA
:10133000010E096E145071EC15F02A0E48EC16F0EF
:101340000C0E096E145071EC15F02A0E48EC16F0D4
:101350000E0E096E145071EC15F02A0E48EC16F0C2
:10136000190E096E145071EC15F02A0E48EC16F0A7
:101370001B0E096E145071EC15F02A0E48EC16F095
:10138000260E096E145071EC15F02A0E48EC16F07A
:101390001406030E1460CFEF09F0D1EF09F098EFB7
:1013A00009F0100E096E030E71EC15F0410E48ECB9
:1013B00016F0110E096E030E71EC15F04C0E48EC90
:1013C00016F0120E096E030E71EC15F0410E48EC8A
:1013D00016F0130E096E030E71EC15F0520E48EC68
:1013E00016F0140E096E030E71EC15F04D0E48EC5C
:1013F00016F0150E096E030E71EC15F0450E48EC53
:1014000016F0160E096E030E71EC15F0530E48EC33
:1014100016F0040E096E030E71EC15F04D0E48EC3B
:1014200016F0050E096E030E71EC15F04F0E48EC28
:1014300016F0060E096E030E71EC15F0540E48EC12
:1014400016F0070E096E030E71EC15F0450E48EC10
:1014500016F0080E096E030E71EC15F0550E48ECEF
:1014600016F0090E096E030E71EC15F0520E48ECE1
:1014700016F0020E096E050E71EC15F04D0E48ECDB
:1014800016F0030E096E050E71EC15F0410E48ECD6
:1014900016F0040E096E050E71EC15F0520E48ECB4
:1014A00016F0050E096E050E71EC15F0430E48ECB2
:1014B00016F0060E096E050E71EC15F0480E48EC9C
:1014C00016F0070E096E050E71EC15F0450E48EC8E
:1014D00016F0020E096E070E71EC15F04B0E48EC7B
:1014E00016F0030E096E070E71EC15F04D0E48EC68
:1014F00016F0040E096E070E71EC15F0610E48EC43
:1015000016F0050E096E070E71EC15F0670E48EC2B
:1015100016F0060E096E070E71EC15F0650E48EC1C
:1015200016F01E0E096E030E71EC15F0500E48EC0D
:1015300016F01F0E096E030E71EC15F0490E48EC03
:1015400016F0200E096E030E71EC15F04C0E48ECEF
:1015500016F0210E096E030E71EC15F04F0E48ECDB
:1015600016F0220E096E030E71EC15F0540E48ECC5
:1015700016F0230E096E030E71EC15F0450E48ECC3
:1015800016F01C0E096E050E71EC15F0530E48ECAA
:1015900016F01D0E096E050E71EC15F0490E48ECA3
:1015A00016F01E0E096E050E71EC15F0450E48EC96
:1015B00016F01F0E096E050E71EC15F0470E48EC83
:1015C00016F0200E096E050E71EC15F0450E48EC74
:1015D00016F01D0E096E070E71EC15F0430E48EC67
:1015E00016F01E0E096E070E71EC15F04C0E48EC4D
:1015F00016F01F0E096E070E71EC15F0450E48EC43
:1016000016F0000E096E000E71EC15F0460E48EC57
:1016100016F0010E096E000E71EC15F04F0E48EC3D
:1016200016F0020E096E000E71EC15F0520E48EC29
:1016300016F0030E096E000E71EC15F04B0E48EC1F
:1016400016F0040E096E000E71EC15F04C0E48EC0D
:1016500016F0050E096E000E71EC15F0490E48ECFF
:1016600016F0060E096E000E71EC15F0460E48ECF1
:1016700016F0070E096E000E71EC15F0540E48ECD2
:1016800016F0080E096E000E71EC15F0200E48ECF5
:1016900016F0090E096E000E71EC15F0530E48ECB1
:1016A00016F00A0E096E000E71EC15F0490E48ECAA
:1016B00016F00B0E096E000E71EC15F04D0E48EC95
:1016C00016F00C0E096E000E71EC15F0550E48EC7C
:1016D00016F00D0E096E000E71EC15F04C0E48EC74
:1016E00016F00E0E096E000E71EC15F0410E48EC6E
:1016F00016F00F0E096E000E71EC15F0540E48EC4A
:1017000016F0100E096E000E71EC15F04F0E48EC3D
:1017100016F0110E096E000E71EC15F0520E48EC29
:1017200016F000000000100E096E0E0E71EC15F0A0
:1017300007010351EFEC14F0040E096E0E0E71EC6C
:1017400015F007010751EFEC14F01E0E096E0E0E96
:1017500071EC15F007010651EFEC14F0210E096E43
:10176000000E71EC15F007010451EFEC14F0080EB7
:10177000096E070E71EC15F00801045148EC16F0E3
:10178000090E096E070E71EC15F00801035148ECC3
:1017900016F00A0E096E070E71EC15F008010251E1
:1017A00048EC16F00B0E096E070E71EC15F00801EF
:1017B000015148EC16F007010E51D8B4E2EF0BF0DE
:1017C000E4EF0BF02EEF0CF00F0E096E050E71EC2E
:1017D00015F0420E48EC16F0100E096E050E71EC75
:1017E00015F0410E48EC16F0110E096E050E71EC65
:1017F00015F0540E48EC16F0130E096E050E71EC40
:1018000015F0460E48EC16F0140E096E050E71EC3C
:1018100015F0410E48EC16F0150E096E050E71EC30
:1018200015F0490E48EC16F0160E096E050E71EC17
:1018300015F0420E48EC16F0170E096E050E71EC0D
:1018400015F04C0E48EC16F0180E096E050E71ECF2
:1018500015F0450E48EC16F045EF0CF00F0E0F6E2C
:10186000180E0F6436EF0CF038EF0CF03AEF0CF076
:1018700045EF0CF00FC009F0050E71EC15F0200ECD
:1018800048EC16F00F2A30EF0CF007010C51D8B4D9
:101890004CEF0CF04EEF0CF088EF0CF00F0E096ED1
:1018A000060E71EC15F0540E48EC16F0110E096E90
:1018B000060E71EC15F0450E48EC16F0120E096E8E
:1018C000060E71EC15F0410E48EC16F0130E096E81
:1018D000060E71EC15F0550E48EC16F0150E096E5B
:1018E000060E71EC15F0450E48EC16F0160E096E5A
:1018F000060E71EC15F0520E48EC16F0170E096E3C
:10190000060E71EC15F0520E48EC16F0B8EF0CF024
:101910000F0E096E060E71EC15F0540E48EC16F021
:10192000110E096E060E71EC15F0450E48EC16F01E
:10193000120E096E060E71EC15F0410E48EC16F011
:10194000130E096E060E71EC15F0550E48EC16F0EC
:10195000150E096E060E71EC15F04F0E48EC16F0E0
:10196000160E096E060E71EC15F04B0E48EC16F0D3
:1019700007010D51D8B4BFEF0CF0C1EF0CF0FBEF35
:101980000CF00F0E096E070E71EC15F0540E48ECBA
:1019900016F0110E096E070E71EC15F04F0E48ECA3
:1019A00016F0120E096E070E71EC15F0490E48EC98
:1019B00016F0130E096E070E71EC15F04C0E48EC84
:1019C00016F0150E096E070E71EC15F0450E48EC79
:1019D00016F0160E096E070E71EC15F0520E48EC5B
:1019E00016F0170E096E070E71EC15F0520E48EC4A
:1019F00016F02BEF0DF00F0E096E070E71EC15F0BF
:101A0000540E48EC16F0110E096E070E71EC15F02D
:101A10004F0E48EC16F0120E096E070E71EC15F021
:101A2000490E48EC16F0130E096E070E71EC15F016
:101A30004C0E48EC16F0150E096E070E71EC15F001
:101A40004F0E48EC16F0160E096E070E71EC15F0ED
:101A50004B0E48EC16F007010F51D8B432EF0DF0E1
:101A600034EF0DF086EF0DF00F0E096E080E71ECDD
:101A700015F0430E48EC16F0100E096E080E71ECCE
:101A800015F0480E48EC16F0110E096E080E71ECB8
:101A900015F04F0E48EC16F0120E096E080E71ECA0
:101AA00015F0430E48EC16F0130E096E080E71EC9B
:101AB00015F03E0E48EC16F0140E096E080E71EC8F
:101AC00015F0410E48EC16F0150E096E080E71EC7B
:101AD00015F0520E48EC16F0160E096E080E71EC59
:101AE00015F0520E48EC16F0170E096E080E71EC48
:101AF00015F0450E48EC16F0180E096E080E71EC44
:101B000015F0540E48EC16F09DEF0DF00F0E106E10
:101B1000180E10648EEF0DF090EF0DF092EF0DF0B7
:101B20009DEF0DF010C009F0080E71EC15F0200EBD
:101B300048EC16F0102A88EF0DF007010A51D8B4CE
:101B4000A4EF0DF0A6EF0DF0C0EF0DF0090E096E39
:101B5000050E71EC15F0280E48EC16F00A0E096E11
:101B6000050E71EC15F0500E48EC16F00A0E096ED9
:101B7000050E71EC15F0290E48EC16F093EF0BF002
:101B800081A0C5EF0DF0C7EF0DF0E1EF0DF0090EEC
:101B9000096E050E71EC15F0410E48EC16F00A0EB8
:101BA000096E050E71EC15F0760E48EC16F00A0E73
:101BB000096E050E71EC15F0200E48EC16F093EF4F
:101BC0000BF081A2E6EF0DF0E8EF0DF002EF0EF062
:101BD000090E096E050E71EC15F0410E48EC16F079
:101BE0000A0E096E050E71EC15F0720E48EC16F037
:101BF0000A0E096E050E71EC15F0200E48EC16F079
:101C000093EF0BF0090E096E050E71EC15F0200E26
:101C100048EC16F00A0E096E050E71EC15F04E0E2A
:101C200048EC16F00A0E096E050E71EC15F0200E48
:101C300048EC16F093EF0BF01200116A0B6A146A6D
:101C4000156A0C6A0D6A0E6A0F6A106A126A136AC4
:101C50000001826B00018251D8A431EF0EF033EF06
:101C60000EF02AEF0EF0060E71EC16F00009D8B453
:101C70003CEF0EF03EEF0EF02AEF0EF0070105519B
:101C8000D8A445EF0EF048EF0EF0010E49EF0EF02C
:101C9000000E0D6E000E84B8010E0E6E000E81B6A1
:101CA000010E0F6E000E81B4010E106E0FC005F014
:101CB000010E05160EC006F0010E0616D890063469
:101CC000076E10C008F0010E0816D8900836D8909C
:101CD00008360DC009F0010E0916D8900936D890C3
:101CE0000936D89009340810071005100A6E116AD9
:101CF00081B07DEF0EF07FEF0EF083EF0EF0010E5E
:101D0000116E8CEF0EF081B288EF0EF08AEF0EF0BC
:101D10008CEF0EF0020E116E03C70BF007C714F024
:101D200006C715F004C70CF0FC0E14649AEF0EF011
:101D30009CEF0EF09EEF0EF0FD0E146EFC0E15647F
:101D4000A4EF0EF0A6EF0EF0A8EF0EF0FD0E156E4C
:101D5000530E0861AEEF0EF0B0EF0EF0B4EF0EF0E0
:101D6000020E126EC1EF0EF0AD0E0865BAEF0EF066
:101D7000BCEF0EF0C0EF0EF0010E126EC1EF0EF0D0
:101D8000126A530E0961C7EF0EF0C9EF0EF0CDEFE6
:101D90000EF0010E136EDAEF0EF0AD0E0965D3EF03
:101DA0000EF0D5EF0EF0D9EF0EF0020E136EDAEF53
:101DB0000EF0136A9EA8DFEF0EF0E1EF0EF0DAEFFF
:101DC0000EF0FE0EAD6EACA2E8EF0EF0EAEF0EF0F4
:101DD000E3EF0EF09EA8EFEF0EF0F1EF0EF0EAEF5A
:101DE0000EF00AC0ADFFACA2F8EF0EF0FAEF0EF065
:101DF000F3EF0EF09EA8FFEF0EF001EF0FF0FAEFF9
:101E00000EF011C0ADFFACA208EF0FF00AEF0FF01B
:101E100003EF0FF09EA80FEF0FF011EF0FF00AEF96
:101E20000FF012C0ADFFACA218EF0FF01AEF0FF0D9
:101E300013EF0FF09EA81FEF0FF021EF0FF01AEF36
:101E40000FF013C0ADFFACA228EF0FF02AEF0FF098
:101E500023EF0FF09EA82FEF0FF031EF0FF02AEFD6
:101E60000FF00BC0ADFFACA238EF0FF03AEF0FF060
:101E700033EF0FF09EA83FEF0FF041EF0FF03AEF76
:101E80000FF014C0ADFFACA248EF0FF04AEF0FF017
:101E900043EF0FF09EA84FEF0FF051EF0FF04AEF16
:101EA0000FF015C0ADFFACA258EF0FF05AEF0FF0D6
:101EB00053EF0FF09EA85FEF0FF061EF0FF05AEFB6
:101EC0000FF00CC0ADFFACA268EF0FF06AEF0FF09F
:101ED00063EF0FF09EA86FEF0FF071EF0FF06AEF56
:101EE0000FF0AD68ACA277EF0FF079EF0FF072EF63
:101EF0000FF0060EE3EC17F0010E0001826F2AEFDF
:101F00000EF012000701456B010E006F010E016F0C
:101F100004C716F7176B0001816BF29EBEEC13F03D
:101F2000E2EC16F0FFEC16F0A4EC17F0010E000145
:101F3000806F520EAD6EF28E8B948B928F9000015B
:101F40008151D8A4A6EF0FF0A8EF0FF09FEF0FF08C
:101F5000010E71EC16F00009D8B4B1EF0FF0B3EF39
:101F60000FF09FEF0FF00A0EBEEC16F00701086F9E
:101F70000B0EBEEC16F00701096F030EBEEC16F057
:101F80000701066F020EBEEC16F00701076F84B062
:101F9000CCEF0FF0CEEF0FF0E2EF0FF00005D8A47A
:101FA000D4EF0FF0D6EF0FF0E2EF0FF0006B060E5C
:101FB0000361DDEF0FF0DFEF0FF0F3EF0FF0032B16
:101FC000F3EF0FF084A0E7EF0FF0E9EF0FF0F3EF7E
:101FD0000FF00051D8A4EFEF0FF0F1EF0FF0F3EF97
:101FE0000FF0010E006F84B2F8EF0FF0FAEF0FF070
:101FF0000EEF10F00105D8A400EF10F002EF10F082
:102000000EEF10F0016B0351D8B409EF10F00BEF95
:1020100010F01FEF10F003071FEF10F084A213EF72
:1020200010F015EF10F01FEF10F00151D8A41BEFC6
:1020300010F01DEF10F01FEF10F0010E016F0C51AA
:10204000D8A425EF10F027EF10F04FEF10F00D514E
:10205000D8A42DEF10F02FEF10F04FEF10F00E512D
:10206000D8A435EF10F037EF10F04FEF10F00A5111
:10207000D8A43DEF10F03FEF10F04FEF10F01051EB
:10208000D8A445EF10F047EF10F04FEF10F00F51CC
:10209000D8B44DEF10F04FEF10F050EF10F0036B8D
:1020A00084B455EF10F057EF10F065EF10F00451C5
:1020B000D8A45DEF10F05FEF10F065EF10F0640E44
:1020C000046F270E176F100E166F300E036E070E7B
:1020D000046E2CEC14F00701456F4551D8B473EF32
:1020E00010F075EF10F081EF10F00A0E45617BEFF4
:1020F00010F07DEF10F081EF10F045C705F782EF8B
:1021000010F0056B010EE3EC17F0010E0001816F7A
:102110009FEF0FF01200010E0001656F010E696F55
:10212000020E6A6F030E6B6F040E6C6F050E6D6FFF
:10213000060E6E6F050E706F7051690FD96EDA6AF8
:10214000DF506F6FFCCF84F0020EFC6E040E2C6E1D
:102150001F0E2D6E000E2E6E2CC030F02DC031F0F3
:10216000300E2F6E2F50D96EDA6ADF50FD6E2F2A97
:102170002F50D96EDA6ADF50FE6E2F2A2F50D96E9B
:10218000DA6ADF50FF6E070EFC6EAE0E2C6E240E68
:102190002D6E000E2E6E2CC030F02DC031F0300EA2
:1021A0002F6E2F50D96EDA6ADF50FD6E2F2A2F5016
:1021B000D96EDA6ADF50FE6E2F2A2F50D96EDA6A96
:1021C000DF50FF6E0C0EFC6EF60E2C6E220E2D6E86
:1021D000000E2E6E2CC030F02DC031F0300E2F6E60
:1021E0002F50D96EDA6ADF50FD6E2F2A2F50D96E2C
:1021F000DA6ADF50FE6E2F2A2F50D96EDA6ADF506E
:10220000FF6E110EFC6E020E2C6E100E2D6E000E67
:102210002E6E2CC030F02DC031F0300E2F6E2F50AE
:10222000D96EDA6ADF50FD6E2F2A2F50D96EDA6A26
:10223000DF50FE6E2F2A2F50D96EDA6ADF50FF6E04
:10224000160EFC6E620E2C6E260E2D6E000E2E6E7D
:102250002CC030F02DC031F0300E2F6E2F50D96EC3
:10226000DA6ADF50FD6E2F2A2F50D96EDA6ADF50FE
:10227000FE6E2F2A2F50D96EDA6ADF50FF6E1B0ECA
:10228000FC6E3A0E2C6E1C0E2D6E000E2E6E2CC0A7
:1022900030F02DC031F0300E2F6E2F50D96EDA6A2B
:1022A000DF50FD6E2F2A2F50D96EDA6ADF50FE6E96
:1022B0002F2A2F50D96EDA6ADF50FF6E84C0FCFFE0
:1022C000020E0101036F070E0201036F0C0E0301E2
:1022D000036F110E0401036F160E0501036F1B0E31
:1022E0000601036F000E0001726F000E716F010E88
:1022F000D56EF28A1200000E0701136F000E126FE6
:10230000116B000E076E000E086E000E096E000EB7
:102310000A6E000ED5EC17F0FF0AD8A492EF11F068
:1023200094EF11F0E6EF11F0010ED5EC17F0FF0A73
:10233000D8A49DEF11F09FEF11F0E6EF11F0020E1F
:10234000D5EC17F0FF0AD8A4A8EF11F0AAEF11F00E
:10235000E6EF11F0030ED5EC17F0FF0AD8A4B3EFA7
:1023600011F0B5EF11F0E6EF11F0000E046E000E63
:10237000036E010E0324D96E080E0420DA6EDF6AA4
:10238000034A042A04BECEEF11F0045009E1040E02
:10239000035CD8A0CEEF11F0D0EF11F0B9EF11F03F
:1023A000000E016E000E51EC17F0000E016E010ED2
:1023B00051EC17F0000E016E020E51EC17F0000EFA
:1023C000016E030E51EC17F015EF12F0000E066EC1
:1023D000000E056E010E0524D96E080E0620DA6E79
:1023E000DF6A054A062A06BEFFEF11F0065009E132
:1023F000040E055CD8A0FFEF11F001EF12F0EAEF38
:1024000011F0000ED5EC17F00801016F010ED5ECAC
:1024100017F00801026F020ED5EC17F00801036FE8
:10242000030ED5EC17F00801046F070103510726CE
:10243000000E082209220A2207C001F808C002F88B
:1024400009C003F80AC004F81151D8A42AEF12F009
:102450002CEF12F015EF12F0124B132B135109E170
:102460000A0E125DD8A037EF12F039EF12F051EFDB
:1024700012F0000E136F000E126F01C801F0000E73
:1024800051EC17F002C801F0010E51EC17F003C82F
:1024900001F0020E51EC17F004C801F0030E51ECEC
:1024A00017F0010E0701116F15EF12F0120007016E
:1024B0000E6B0F6B0B6B106B0C6B0A6B0D6B84B898
:1024C00064EF12F067EF12F0010E68EF12F0000EE9
:1024D000FF0A010B07010A6F0551D8B472EF12F021
:1024E00075EF12F0010E76EF12F0000E0B6F790E01
:1024F00007617DEF12F080EF12F0010E81EF12F014
:10250000000E0C6F790E066188EF12F08BEF12F05F
:10251000010E8CEF12F0000E0D6F0E0E046593EF9E
:1025200012F096EF12F0010E97EF12F0000E0E6F00
:1025300081B49DEF12F0A0EF12F0010EA1EF12F0A6
:10254000000EFF0A010B106F81B6A9EF12F0ACEF7D
:1025500012F0010EADEF12F0000EFF0A026E02A0A3
:10256000B4EF12F0B6EF12F0B8EF12F0010E0F6FE9
:102570000C51D8A4BEEF12F0C0EF12F0D0EF12F061
:102580000D51D8A4C6EF12F0C8EF12F0D0EF12F040
:102590000E51D8B4CEEF12F0D0EF12F0DAEF12F005
:1025A0008F80918EA00E69EC17F08F90919EA00EF7
:1025B00069EC17F007010A51D8B4E1EF12F0E3EF2C
:1025C00012F0EBEF12F0918E400E69EC17F0919E35
:1025D000400E69EC17F007010B51D8A4F2EF12F08E
:1025E000F4EF12F0FCEF12F01051D8B4FAEF12F041
:1025F000FCEF12F01AEF13F08F808B82918E700E29
:1026000069EC17F08F908B92919E700E69EC17F029
:1026100007010B51D8B40FEF13F011EF13F01AEFBD
:1026200013F00F05D8A417EF13F019EF13F01AEFFA
:1026300013F00F6B0F51D8B420EF13F022EF13F00B
:102640005FEF12F08F808B82918ED00E69EC17F0C5
:102650008F908B92919ED00E69EC17F05FEF12F085
:1026600012000A0E236E226A640E0701046F036BC8
:102670000451640DF3CF16F7F4CF17F7156B07016C
:102680000451D8B446EF13F048EF13F0A8EF13F05D
:102690001551D8A44EEF13F050EF13F03FEF13F0A5
:1026A00023501419D8A457EF13F059EF13F09DEFEE
:1026B00013F0206A63EF13F020500C0FD96EDA6A22
:1026C000DF502226202A2350205CD8A06AEF13F086
:1026D0006CEF13F05CEF13F023C001F022501BEC01
:1026E00016F0226E2250086E096AF10E0802F3CF2E
:1026F0000AF0F4CF0BF00902F3500B26FF0E08028C
:10270000F3500B26070116510A2617510B22F60E1D
:102710000A24166FFF0E0B20176F16C701F017C79C
:1027200002F0000E046E640E036E37EC15F00150DB
:102730000701046F146BA4EF13F014510C0FD96E42
:10274000DA6A03C7DFFF142B010E156F3FEF13F09A
:10275000216AB1EF13F021500C0FD96EDA6ADF6AEB
:10276000212A2350215CD8A0B8EF13F0BAEF13F060
:10277000ABEF13F0226A3FEF13F01200096A906A80
:102780001F0E916E996A9A6A919A918C9198040E93
:1027900069EC17F091880C0E69EC17F0E2EF13F07A
:1027A000092A0C0E69EC17F0C80E0964DAEF13F071
:1027B000DCEF13F0E2EF13F08B828F808B94F29EAC
:1027C000E0EF13F01CEC17F00009D8B4EAEF13F0B7
:1027D000ECEF13F0D0EF13F00F0E056E210E066E26
:1027E000270EE5EC15F0000E056E220E066E000EAB
:1027F000E5EC15F0000E056E240E066E000EE5ECFD
:1028000015F07B0E056E400E066E000EE5EC15F021
:10281000000E056E410E066E280EE5EC15F0800EDA
:10282000056E420E066E000EE5EC15F0000E056E0C
:10283000430E066E280EE5EC15F0800E92EC17F0B4
:102840009C0E92EC17F0A00E92EC17F0700E056E35
:10285000020E98EC16F0120095828C968C94000E65
:10286000026E640E016E80EC17F08C86056A030E12
:10287000026EE80E016E80EC17F0052A83A043EF8C
:1028800014F045EF14F047EF14F0410E056E400EC2
:1028900005644DEF14F04FEF14F037EF14F083A000
:1028A00054EF14F056EF14F096EF14F0066A086A2D
:1028B000076A83A25EEF14F060EF14F063EF14F088
:1028C00008500109086E08500824086E000E026EB8
:1028D000640E016E80EC17F08C84010E026EF40E13
:1028E000016E80EC17F08C94010E026E900E016E5A
:1028F00080EC17F0072A070E076481EF14F083EFCE
:1029000014F059EF14F006500324D96E000E042081
:10291000DA6E08C0DFFF062A83B091EF14F093EF60
:1029200014F057EF14F0065097EF14F0000E120059
:1029300038EC17F08BEC10F0DDEC17F0010E08010D
:10294000056F000E076F010E066F000E096F000E77
:10295000086F010E0A6F030E0B6F000E0D6F080E4D
:102960000C6F000E0F6F000E0E6F010E106F050E34
:10297000116F000E136F320E126F000E156F000EE6
:10298000146F010E166F060E176F000E196F640E8E
:10299000186F000E1B6F000E1A6F010E1C6F020ED7
:1029A0001D6F000E1F6F050E1E6F000E216F000EB3
:1029B000206F010E226F040E236F000E256F0C0E88
:1029C000246F000E276F000E266F010E286FD58E24
:1029D000F284F28E0000EAEF14F050EF02F0086E7D
:1029E00008380F0B096E090E0964F9EF14F0FBEFBC
:1029F00014F000EF15F00950170F096E06EF15F0EF
:102A00000950100F096E06EF15F00000C00E056E9C
:102A1000095098EC16F00009D8B411EF15F013EF37
:102A200015F005EF15F008500F0B096E090E09643B
:102A30001CEF15F01EEF15F023EF15F00950170FDE
:102A4000096E29EF15F00950100F096E29EF15F0E6
:102A50000000C00E056E095098EC16F00009D8B4BD
:102A600034EF15F036EF15F028EF15F01200000ED8
:102A7000066E000E056E03500410D8B442EF15F038
:102A800044EF15F06CEF15F0010E076E4CEF15F0EA
:102A9000D89003360436072A04AE51EF15F053EFF1
:102AA00015F048EF15F0D890053606360350015C56
:102AB00004500258D8A05FEF15F061EF15F066EFF3
:102AC00015F00350015E0450025A0580D89004327C
:102AD0000332072E53EF15F005C001F006C002F0D7
:102AE00012000C6E7B0E0E6E000E0D6E0F0E0C643F
:102AF0007CEF15F07EEF15F07FEF15F00C6A270ED6
:102B0000096485EF15F087EF15F088EF15F0096A75
:102B10000C50280DF3CF0AF0F4CF0BF009500A2621
:102B2000000E0B220D500A240D6E0E500B200E6E5F
:102B30009BEF15F000000E50056E240E066E0D5032
:102B4000E5EC15F00009D8B4A8EF15F0AAEF15F0E0
:102B50009AEF15F01200026A020E046EDAEF15F019
:102B60009968918091969192000087CF03F09182AD
:102B700091860350030B036E030E0318D8B4C3EF02
:102B800015F0C5EF15F0D8EF15F0022A0C0E69EC20
:102B900017F0F90E0264CFEF15F0D1EF15F0DAEF70
:102BA00015F0F29E8B948B828F80046ADAEF15F019
:102BB000010E046E020E0418D8B4E1EF15F0E3EF35
:102BC00015F0B0EF15F004501200076E086AABEC78
:102BD00015F0E806D8A4EFEF15F0F1EF15F019EFB6
:102BE00016F00C0E69EC17F00750B5EC17F0ABECD3
:102BF00015F0E806D8A4FFEF15F001EF16F019EF75
:102C000016F00C0E69EC17F00550B5EC17F0ABECB4
:102C100015F0E806D8A40FEF16F011EF16F019EF33
:102C200016F00C0E69EC17F00650C1EC17F0010E0F
:102C3000086E08501200026E046A0150D8B423EFE7
:102C400016F025EF16F046EF16F0010E036E2CEF8E
:102C500016F0D8900136032A01AE31EF16F033EFAB
:102C600016F029EF16F0D89004360150025CD8A077
:102C70003CEF16F03EEF16F041EF16F00150025E09
:102C80000480D8900132032E33EF16F00450120066
:102C9000086E200E08604FEF16F051EF16F053EF5C
:102CA00016F03F0E086E9F0E086459EF16F05BEFAA
:102CB00016F05DEF16F03F0E086E0850E00F086E3C
:102CC00063EF16F00000C00E056E085098EC16F089
:102CD0000009D8B46EEF16F070EF16F062EF16F040
:102CE0001200046E000183A178EF16F07AEF16F05F
:102CF0007EEF16F08391010E97EF16F004C001F0FD
:102D0000010E026E012A87EF16F0D8900236012ECE
:102D100085EF16F0000183317F0B036E0250031222
:102D2000033683510318010B0318836F000E120042
:102D3000066E076AABEC15F0E806D8A4A2EF16F011
:102D4000A4EF16F0BCEF16F00C0E69EC17F006506D
:102D5000B5EC17F0ABEC15F0E806D8A4B2EF16F01E
:102D6000B4EF16F0BCEF16F00C0E69EC17F005503E
:102D7000C1EC17F0010E076E07501200026EC16A17
:102D8000160EC06E02501F0B026E0244E846FC0B8A
:102D9000026E02500109C26EC282C2B2D2EF16F0B8
:102DA000D4EF16F0CDEF16F0C3A0D9EF16F0DBEF9D
:102DB00016F0DEEF16F0016AE0EF16F0C4CF01F076
:102DC00001501200000E056E240E066E000EE5EC9A
:102DD00015F0000E0A6E000E096EC00E056E000E94
:102DE00098EC16F0094A0A2A800E0A180910D8A48D
:102DF000FCEF16F0FEEF16F0EDEF16F01200800E6D
:102E0000056E240E066E000EE5EC15F0800E0A6EBF
:102E1000000E096EC00E056E000E98EC16F0094A01
:102E20000A2AF80E0A180910D8A419EF17F01BEF98
:102E300017F00AEF17F0120099689180919691921D
:102E400000000000000087CF01F0918291860150C0
:102E5000030B030AD8A42FEF17F031EF17F035EF6B
:102E600017F0010E016E36EF17F0016A01501200E3
:102E7000A00E0F01266F256B246B236B2581258304
:102E800025852587248524878B848B828F80949445
:102E9000949298909896989895949596F19E538DC3
:102EA0001200026E7F9E7F9C02C062FF01C061FF24
:102EB0007F84F29E550E7E6EAA0E7E6E7F82F28E0B
:102EC0007F947FB266EF17F068EF17F061EF17F0AD
:102ED0001200016E77EF17F0000000000000000004
:102EE000000000000000000000000000010601508A
:102EF000D8A47DEF17F07FEF17F06CEF17F01200FA
:102F000088EF17F00000000000000106D8A00206BC
:102F100001500210D8A48FEF17F091EF17F082EF55
:102F200017F01200056EABEC15F0E806D8A49BEF85
:102F300017F09DEF17F0A3EF17F00C0E69EC17F0E8
:102F40000550C1EC17F01200949C948E080E656E2B
:102F5000040ED46EE10EAF6E040EAC6E800EAB6E3E
:102F6000240EAC6E900EAB6E1200016E01C090FF8D
:102F7000996A9190919691940000000091849186B5
:102F80001200016E01C090FF996A91809196919410
:102F900000000000918491861200346A336A326A1C
:102FA00035903592000198EF14F0016E7F9E7F9C62
:102FB00001C062FF7F8061501200010E0001836F2B
:102FC000816B826B120000018381010E8317120056
:020000040020DA
:08000000FFFFFFFFFFFFFFFF00
:020000040030CA
:0E00000015136100308081FFFFC0FFE0FF405C
:00000001FF
