:0400000050EF02F0CB
:100008003582D9CF27F0DACF28F0F3CF29F0F4CF13
:100018002AF0D8CF61F00001606FE0CF62F0EACF3C
:1000280063F0E9CF64F0F2AA1CEF00F01EEF00F0D5
:100038002FEF02F0F2A423EF00F025EF00F02FEFEE
:1000480002F06505D8A42BEF00F02DEF00F030EF9B
:1000580000F01B0EFC6E656B6FC0EAFFE96A60C0BA
:10006800EEFF61C0EEFF62C0EEFFFCCFEEFF63C0A3
:10007800EEFF64C0EEFFE2CFEEFFE1CFEEFFDACF96
:10008800EEFFD9CFEEFFF4CFEEFFF3CFEEFFF8CFC0
:10009800EEFFF7CFEEFFF6CFEEFFF5CFEEFFFBCF8B
:1000A800EEFFFACFEEFFE26AE16AE6CFEEFFE6CFB7
:1000B800EEFFE6CFEEFFE6CFEEFFE6CFEEFFE6CFB0
:1000C800EEFFE6CFEEFFE6CFEEFFE6CFEEFFE6CFA0
:1000D800EEFFE6CFEEFFE6CFEEFFE6CFEEFFE6CF90
:1000E800EEFFE6CFEEFFE6CFEEFFE6CFEEFFE6CF80
:1000F800EEFFE6CFEEFFE6CFEEFFE6CFEEFFE6CF70
:10010800EEFFE6CFEEFFE6CFEEFFE6CFEEFFE6CF5F
:10011800EEFFE6CFEEFFE6CFEEFFE6CFEEFFE6CF4F
:10012800EEFFE6CFEEFFE6CFEEFFE6CFEEFFE6CF3F
:10013800EEFFE6CFEEFFE6CFEEFFE6CFEEFFE6CF2F
:10014800EEFFE6CFEEFFE6CFEEFFE6CFEEFFE6CF1F
:10015800EEFFE6CFEEFFE6CFEEFFE6CFEEFFE6CF0F
:10016800EEFFE6CFEEFFE6CFEEFF8A0ED76ECF0E9C
:10017800D66EF294714B722B8105D8A4C6EF00F0AD
:10018800C8EF00F0C9EF00F0816B8205D8A4CFEF6B
:1001980000F0D1EF00F0D2EF00F0826B07011505F7
:1001A800D8A4D9EF00F0DBEF00F0DCEF00F0156B1E
:1001B8001105D8A4E2EF00F0E4EF00F0E5EF00F05D
:1001C800116B0901006B050E0065EDEF00F0EFEF14
:1001D80000F0F1EF00F032EF01F00051060D080ECB
:1001E800F324D96E080EF420DA6EDE500001715D3A
:1001F800DE507259D8A003EF01F005EF01F02EEFA1
:1002080001F009010051060D0A0EF324D96E080EFB
:10021800F420DA6E010EDF6E0051060D060EF3248F
:10022800D96E080EF420DA6EDECF24F0DDCF25F08B
:100238000001715124267251252209010051060D31
:10024800080EF324D96E080EF420DA6E24C0DEFFFF
:1002580025C0DDFF0901002BE7EF00F0026B00016C
:100268006F6B0901016B050E01653DEF01F03FEF72
:1002780001F041EF01F08EEF01F00151060D0A0E79
:10028800F324D96E080EF420DA6EDF50D8B44FEF9D
:1002980001F051EF01F08AEF01F0000183317F0B8B
:1002A800246E01C925F0010E266E252A5EEF01F0A5
:1002B800D8902636252E5CEF01F02650241400092C
:1002C800D8A469EF01F06BEF01F08AEF01F00901A2
:1002D8000151060D050EF324D96E080EF420DA6ECE
:1002E800DE50025DD8B07BEF01F07DEF01F08AEFC0
:1002F80001F00151060D050EF324D96E080EF42005
:10030800DA6EDF50026F012900016F6F0901012BBE
:1003180037EF01F000016F51060D040EF324D96E7A
:10032800080EF420DA6EDF6AE26AE16A6FC0EAFF5B
:10033800120EE96EEECFE6FFEECFE6FFEECFE6FF58
:10034800EECFE6FFEECFE6FFEECFE6FFEECFE6FF1D
:10035800EECFE6FFEECFE6FFEECFE6FFEECFE6FF0D
:10036800EECFE6FFEECFE6FFEECFE6FFEECFE6FFFD
:10037800EECFE6FFEECFE6FFEECFE6FFEECFE6FFED
:10038800EECFE6FFEECFE6FFEECFE6FFEECFE6FFDD
:10039800EECFE6FFEECFE6FFEECFE6FFEECFE6FFCD
:1003A800EECFE6FFEECFE6FFEECFE6FFEECFE6FFBD
:1003B800EECFE6FFEECFE6FFEECFE6FFEECFE6FFAD
:1003C800EECFE6FFEECFE6FFEECFE6FFEECFE6FF9D
:1003D800EECFE6FFEECFE6FFEECFE6FFEECFE6FF8D
:1003E800EECFE6FFEECFE6FFEECFE6FFEECFE6FF7D
:1003F800EECFE6FF6FC0EAFFE96AEECF60F0EECF1E
:1004080061F0EECF62F0EECFFCFFEECF63F0EECFFF
:1004180064F0EECFE2FFEECFE1FFEECFDAFFEECFF2
:10042800D9FFEECFF4FFEECFF3FFEECFF8FFEECF1C
:10043800F7FFEECFF6FFEECFF5FFEECFFBFFEECFE7
:10044800FAFF64C0E9FF63C0EAFF62C0E0FF6051E1
:1004580061C0D8FF100064C0E9FF63C0EAFF62C052
:10046800E0FF0001605161C0D8FF100066EC09F0A0
:100478003BEC0CF05FEC0BF094EC0FF015EC0DF08E
:1004880001EC08F02AC0F4FF29C0F3FF28C0DAFF06
:0C04980027C0D9FF3592110043EF12F08D
:101000000000116A0B6A146A156A0C6A0D6A0E6A8E
:101010000F6A106A126A136A0001826B0001825122
:10102000D8A415EF08F017EF08F00EEF08F0060E41
:10103000E7EC10F00009D8B420EF08F022EF08F038
:101040000EEF08F007010551D8A429EF08F02CEFA6
:1010500008F0010E2DEF08F0000E0D6E000E84B8A2
:10106000010E0E6E000E81B6010E0F6E000E81B4E1
:10107000010E106E0FC005F0010E05160EC006F031
:10108000010E0616D8900634076E10C008F0010E47
:101090000816D8900836D89008360DC009F0010E11
:1010A0000916D8900936D8900936D8900934081016
:1010B000071005100A6E116A81B061EF08F063EF46
:1010C00008F067EF08F0010E116E70EF08F081B2C2
:1010D0006CEF08F06EEF08F070EF08F0020E116E82
:1010E00003C70BF007C714F006C715F004C70CF0D0
:1010F000FC0E14647EEF08F080EF08F082EF08F039
:10110000FD0E146EFC0E156488EF08F08AEF08F0EF
:101110008CEF08F0FD0E156E530E086192EF08F08B
:1011200094EF08F098EF08F0020E126EA5EF08F0A9
:10113000AD0E08659EEF08F0A0EF08F0A4EF08F0F0
:10114000010E126EA5EF08F0126A530E0961ABEFA3
:1011500008F0ADEF08F0B1EF08F0010E136EBEEF2E
:1011600008F0AD0E0965B7EF08F0B9EF08F0BDEF74
:1011700008F0020E136EBEEF08F0136A9EA8C3EFCC
:1011800008F0C5EF08F0BEEF08F0FE0EAD6EACA2A1
:10119000CCEF08F0CEEF08F0C7EF08F09EA8D3EF31
:1011A00008F0D5EF08F0CEEF08F00AC0ADFFACA212
:1011B000DCEF08F0DEEF08F0D7EF08F09EA8E3EFD1
:1011C00008F0E5EF08F0DEEF08F011C0ADFFACA2CB
:1011D000ECEF08F0EEEF08F0E7EF08F09EA8F3EF71
:1011E00008F0F5EF08F0EEEF08F012C0ADFFACA28A
:1011F000FCEF08F0FEEF08F0F7EF08F09EA803EF11
:1012000009F005EF09F0FEEF08F013C0ADFFACA246
:101210000CEF09F00EEF09F007EF09F09EA813EFAD
:1012200009F015EF09F00EEF09F00BC0ADFFACA20D
:101230001CEF09F01EEF09F017EF09F09EA823EF4D
:1012400009F025EF09F01EEF09F014C0ADFFACA2C4
:101250002CEF09F02EEF09F027EF09F09EA833EFED
:1012600009F035EF09F02EEF09F015C0ADFFACA283
:101270003CEF09F03EEF09F037EF09F09EA843EF8D
:1012800009F045EF09F03EEF09F00CC0ADFFACA24C
:101290004CEF09F04EEF09F047EF09F09EA853EF2D
:1012A00009F055EF09F04EEF09F0AD68ACA25BEF25
:1012B00009F05DEF09F056EF09F0060E59EC12F057
:1012C000010E0001826F0EEF08F012000701456B5E
:1012D000010E006F010E016F04C716F7176B0001B6
:1012E000816BF29EA2EC0DF058EC11F075EC11F050
:1012F0001AEC12F0010E0001806F520EAD6EF28EEC
:101300008B948B928F9000018151D8A48AEF09F0C1
:101310008CEF09F083EF09F0010EE7EC10F0000903
:10132000D8B495EF09F097EF09F083EF09F00A0EB2
:1013300034EC11F00701086F0B0E34EC11F00701CB
:10134000096F030E34EC11F00701066F020E34EC46
:1013500011F00701076F84B0B0EF09F0B2EF09F0A8
:10136000C6EF09F00005D8A4B8EF09F0BAEF09F00C
:10137000C6EF09F0006B060E0361C1EF09F0C3EF81
:1013800009F0D7EF09F0032BD7EF09F084A0CBEFDA
:1013900009F0CDEF09F0D7EF09F00051D8A4D3EF51
:1013A00009F0D5EF09F0D7EF09F0010E006F84B214
:1013B000DCEF09F0DEEF09F0F2EF09F00105D8A447
:1013C000E4EF09F0E6EF09F0F2EF09F0016B0351E9
:1013D000D8B4EDEF09F0EFEF09F003EF0AF00307DF
:1013E00003EF0AF084A2F7EF09F0F9EF09F003EF39
:1013F0000AF00151D8A4FFEF09F001EF0AF003EF62
:101400000AF0010E016F0C51D8A409EF0AF00BEF9E
:101410000AF033EF0AF00D51D8A411EF0AF013EFE0
:101420000AF033EF0AF00E51D8A419EF0AF01BEFBF
:101430000AF033EF0AF00A51D8A421EF0AF023EFA3
:101440000AF033EF0AF01051D8A429EF0AF02BEF7D
:101450000AF033EF0AF00F51D8B431EF0AF033EF4E
:101460000AF034EF0AF0036B84B439EF0AF03BEF73
:101470000AF049EF0AF00451D8A441EF0AF043EF13
:101480000AF049EF0AF0640E046F270E176F100E72
:10149000166F300E036E070E046E10EC0EF007018F
:1014A000456F4551D8B457EF0AF059EF0AF065EF90
:1014B0000AF00A0E45615FEF0AF061EF0AF065EF8E
:1014C0000AF045C705F766EF0AF0056B010E59EC07
:1014D00012F0010E0001816F83EF09F01200010E7E
:1014E0000001656F010E696F020E6A6F030E6B6F6C
:1014F000040E6C6F050E6D6F060E6E6F050E706F2D
:101500007051690FD96EDA6ADF506F6FFCCF2BF024
:10151000020EFC6ECC0E2C6E120E2D6E000E2E6E78
:101520002CC030F02DC031F0300E2F6E2F50D96E00
:10153000DA6ADF50FD6E2F2A2F50D96EDA6ADF503B
:10154000FE6E2F2A2F50D96EDA6ADF50FF6E070E1B
:10155000FC6E760E2C6E180E2D6E000E2E6E2CC0AC
:1015600030F02DC031F0300E2F6E2F50D96EDA6A68
:10157000DF50FD6E2F2A2F50D96EDA6ADF50FE6ED3
:101580002F2A2F50D96EDA6ADF50FF6E0C0EFC6ED8
:10159000BE0E2C6E160E2D6E000E2E6E2CC030F070
:1015A0002DC031F0300E2F6E2F50D96EDA6ADF5019
:1015B000FD6E2F2A2F50D96EDA6ADF50FE6E2F2A69
:1015C0002F50D96EDA6ADF50FF6E110EFC6E280EB6
:1015D0002C6E1F0E2D6E000E2E6E2CC030F02DC006
:1015E00031F0300E2F6E2F50D96EDA6ADF50FD6E5B
:1015F0002F2A2F50D96EDA6ADF50FE6E2F2A2F5015
:10160000D96EDA6ADF50FF6E160EFC6E2A0E2C6E53
:101610001A0E2D6E000E2E6E2CC030F02DC031F043
:10162000300E2F6E2F50D96EDA6ADF50FD6E2F2AE2
:101630002F50D96EDA6ADF50FE6E2F2A2F50D96EE6
:10164000DA6ADF50FF6E1B0EFC6E020E2C6E100E5F
:101650002D6E000E2E6E2CC030F02DC031F0300EED
:101660002F6E2F50D96EDA6ADF50FD6E2F2A2F5061
:10167000D96EDA6ADF50FE6E2F2A2F50D96EDA6AE1
:10168000DF50FF6E2BC0FCFF020E0101036F070E3F
:101690000201036F0C0E0301036F110E0401036FAF
:1016A000160E0501036F1B0E0601036F000E0001ED
:1016B000726F000E716F010ED56EF28A1200000E6D
:1016C0000701136F000E126F116B000E076E000EF4
:1016D000086E000E096E000E0A6E000E4BEC12F042
:1016E000FF0AD8A476EF0BF078EF0BF0CAEF0BF0FF
:1016F000010E4BEC12F0FF0AD8A481EF0BF083EF40
:101700000BF0CAEF0BF0020E4BEC12F0FF0AD8A45C
:101710008CEF0BF08EEF0BF0CAEF0BF0030E4BECDF
:1017200012F0FF0AD8A497EF0BF099EF0BF0CAEF75
:101730000BF0000E046E000E036E010E0324D96E32
:10174000080E0420DA6EDF6A034A042A04BEB2EFF0
:101750000BF0045009E1040E035CD8A0B2EF0BF0CB
:10176000B4EF0BF09DEF0BF0000E016E000EC7EC16
:1017700011F0000E016E010EC7EC11F0000E016EAB
:10178000020EC7EC11F0000E016E030EC7EC11F053
:10179000F9EF0BF0000E066E000E056E010E05242B
:1017A000D96E080E0620DA6EDF6A054A062A06BEE2
:1017B000E3EF0BF0065009E1040E055CD8A0E3EF5F
:1017C0000BF0E5EF0BF0CEEF0BF0000E4BEC12F050
:1017D0000801016F010E4BEC12F00801026F020EBE
:1017E0004BEC12F00801036F030E4BEC12F00801F2
:1017F000046F070103510726000E082209220A225E
:1018000007C001F808C002F809C003F80AC004F8CC
:101810001151D8A40EEF0CF010EF0CF0F9EF0BF013
:10182000124B132B135109E10A0E125DD8A01BEFC6
:101830000CF01DEF0CF035EF0CF0000E136F000EE6
:10184000126F01C801F0000EC7EC11F002C801F0E0
:10185000010EC7EC11F003C801F0020EC7EC11F045
:1018600004C801F0030EC7EC11F0010E0701116F5F
:10187000F9EF0BF0120007010E6B0F6B0B6B106B87
:101880000C6B0A6B0D6B84B848EF0CF04BEF0CF04F
:10189000010E4CEF0CF0000EFF0A010B07010A6F5E
:1018A0000551D8B456EF0CF059EF0CF0010E5AEF79
:1018B0000CF0000E0B6F790E076161EF0CF064EF16
:1018C0000CF0010E65EF0CF0000E0C6F790E066146
:1018D0006CEF0CF06FEF0CF0010E70EF0CF0000EDF
:1018E0000D6F0E0E046577EF0CF07AEF0CF0010E21
:1018F0007BEF0CF0000E0E6F81B481EF0CF084EFE3
:101900000CF0010E85EF0CF0000EFF0A010B106FBA
:1019100081B68DEF0CF090EF0CF0010E91EF0CF012
:10192000000EFF0A026E02A098EF0CF09AEF0CF086
:101930009CEF0CF0010E0F6F0C51D8A4A2EF0CF02D
:10194000A4EF0CF0B4EF0CF00D51D8A4AAEF0CF0FA
:10195000ACEF0CF0B4EF0CF00E51D8B4B2EF0CF0C9
:10196000B4EF0CF0BEEF0CF08F80918EA00EDFEC88
:1019700011F08F90919EA00EDFEC11F007010A513B
:10198000D8B4C5EF0CF0C7EF0CF0CFEF0CF0918E90
:10199000400EDFEC11F0919E400EDFEC11F00701DC
:1019A0000B51D8A4D6EF0CF0D8EF0CF0E0EF0CF010
:1019B0001051D8B4DEEF0CF0E0EF0CF0FEEF0CF0BD
:1019C0008F808B82918E700EDFEC11F08F908B9256
:1019D000919E700EDFEC11F007010B51D8B4F3EFBC
:1019E0000CF0F5EF0CF0FEEF0CF00F05D8A4FBEFB8
:1019F0000CF0FDEF0CF0FEEF0CF00F6B0F51D8B4B4
:101A000004EF0DF006EF0DF043EF0CF08F808B82AA
:101A1000918ED00EDFEC11F08F908B92919ED00EB4
:101A2000DFEC11F043EF0CF012000A0E236E226A75
:101A3000640E0701046F036B0451640DF3CF16F7B6
:101A4000F4CF17F7156B07010451D8B42AEF0DF046
:101A50002CEF0DF08CEF0DF01551D8A432EF0DF0F6
:101A600034EF0DF023EF0DF023501419D8A43BEF01
:101A70000DF03DEF0DF081EF0DF0206A47EF0DF016
:101A800020500C0FD96EDA6ADF502226202A23500C
:101A9000205CD8A04EEF0DF050EF0DF040EF0DF0B0
:101AA00023C001F02250BAEC10F0226E2250086ED2
:101AB000096AF10E0802F3CF0AF0F4CF0BF0090225
:101AC000F3500B26FF0E0802F3500B2607011651A8
:101AD0000A2617510B22F60E0A24166FFF0E0B2052
:101AE000176F16C701F017C702F0000E046E640EE0
:101AF000036ED6EC0FF001500701046F146B88EFF2
:101B00000DF014510C0FD96EDA6A03C7DFFF142BE6
:101B1000010E156F23EF0DF0216A95EF0DF02150A6
:101B20000C0FD96EDA6ADF6A212A2350215CD8A013
:101B30009CEF0DF09EEF0DF08FEF0DF0226A23EF7A
:101B40000DF01200096A906A1F0E916E996A9A6AE6
:101B5000919A918C9198040EDFEC11F091880C0E03
:101B6000DFEC11F0C6EF0DF0092A0C0EDFEC11F0DE
:101B7000C80E0964BEEF0DF0C0EF0DF0C6EF0DF01A
:101B80008B828F808B94F29EC4EF0DF092EC11F05B
:101B90000009D8B4CEEF0DF0D0EF0DF0B4EF0DF09A
:101BA0000F0E056E210E066E270E84EC10F0000E4F
:101BB000056E220E066E000E84EC10F0000E056E0F
:101BC000240E066E000E84EC10F07B0E056E400EA7
:101BD000066E000E84EC10F0000E056E410E066ECF
:101BE000280E84EC10F0800E056E420E066E000E7C
:101BF00084EC10F0000E056E430E066E280E84EC89
:101C000010F0800E08EC12F09C0E08EC12F0A00E02
:101C100008EC12F0700E056E020E0EEC11F01200C0
:101C200095828C968C94000E026E640E016EF6EC1A
:101C300011F08C86056A030E026EE80E016EF6EC5A
:101C400011F0052A83A027EF0EF029EF0EF02BEFFD
:101C50000EF0410E056E400E056431EF0EF033EFCD
:101C60000EF01BEF0EF083A038EF0EF03AEF0EF0FF
:101C70007AEF0EF0066A086A076A83A242EF0EF056
:101C800044EF0EF047EF0EF008500109086E0850BF
:101C90000824086E000E026E640E016EF6EC11F060
:101CA0008C84010E026EF40E016EF6EC11F08C9431
:101CB000010E026E900E016EF6EC11F0072A070E6F
:101CC000076465EF0EF067EF0EF03DEF0EF0065083
:101CD0000324D96E000E0420DA6E08C0DFFF062A46
:101CE00083B075EF0EF077EF0EF03BEF0EF006507D
:101CF0007BEF0EF0000E1200066A04BE84EF0EF0B9
:101D000082EF0EF08AEF0EF0036C041ED8B0042AA6
:101D1000010E066E02BE91EF0EF08FEF0EF097EF00
:101D20000EF0016C021ED8B0022A010E061A000E37
:101D3000086E000E076E03500410D8B4A2EF0EF028
:101D4000A4EF0EF0CCEF0EF0010E056EACEF0EF02E
:101D5000D89003360436052A04AEB1EF0EF0B3EF87
:101D60000EF0A8EF0EF0D890073608360350015C4D
:101D700004500258D8A0BFEF0EF0C1EF0EF0C6EF2E
:101D80000EF00350015E0450025A0780D8900432CE
:101D90000332052EB3EF0EF00650D8B4D2EF0EF09A
:101DA000D4EF0EF0D8EF0EF0076C081ED8B0082A5A
:101DB00007C001F008C002F012000B6E0BC001F06A
:101DC000026A000E046E640E036E7CEC0EF001508D
:101DD0000C6E0C509C0DF3500B240D6E0DC001F0D9
:101DE000026A000E046E0A0E036E7CEC0EF00150C7
:101DF0000D6E0C509C0DF3CF09F00D50F60DF35005
:101E000009240B240A6E0C50100F0E6E09EF0FF010
:101E10000000C00E056E0E500EEC11F00009D8B493
:101E200014EF0FF016EF0FF008EF0FF00D50100F3A
:101E30000E6E1CEF0FF00000C00E056E0E500EEC83
:101E400011F00009D8B427EF0FF029EF0FF01BEFC6
:101E50000FF00A50100F0E6E2FEF0FF00000C00EA3
:101E6000056E0E500EEC11F00009D8B43AEF0FF0E9
:101E70003CEF0FF02EEF0FF01200AEEC11F06FEC14
:101E80000AF053EC12F0010E0801056F000E076F07
:101E9000010E066F000E096F000E086F010E0A6F2B
:101EA000030E0B6F000E0D6F080E0C6F000E0F6F00
:101EB000000E0E6F010E106F050E116F000E136FE6
:101EC000320E126F000E156F000E146F010E166F9A
:101ED000060E176F000E196F640E186F000E1B6F41
:101EE000000E1A6F010E1C6F020E1D6F000E1F6F89
:101EF000050E1E6F000E216F000E206F010E226F67
:101F0000040E236F000E256F0C0E246F000E276F3A
:101F1000000E266F010E286FD58EF284F28E00001F
:101F20008FEF0FF050EF02F0000E096E060E10EC6E
:101F300010F007010451DDEC0EF0000E096E080EE2
:101F400010EC10F007010351DDEC0EF0000E096EED
:101F50000A0E10EC10F007010951DDEC0EF0000E36
:101F6000096E0C0E10EC10F008010451DDEC0EF0BF
:101F7000000E096E0D0E10EC10F008010351DDEC9F
:101F80000EF0000E096E0E0E10EC10F0080102515A
:101F9000DDEC0EF0000E096E0F0E10EC10F00801D3
:101FA0000151DDEC0EF094EF0FF01200000E066E02
:101FB000000E056E03500410D8B4E1EF0FF0E3EF0C
:101FC0000FF00BEF10F0010E076EEBEF0FF0D89053
:101FD00003360436072A04AEF0EF0FF0F2EF0FF0ED
:101FE000E7EF0FF0D890053606360350015C045039
:101FF0000258D8A0FEEF0FF000EF10F005EF10F040
:102000000350015E0450025A0580D8900432033216
:10201000072EF2EF0FF005C001F006C002F012002B
:102020000C6E7B0E0E6E000E0D6E0F0E0C641BEF11
:1020300010F01DEF10F01EEF10F00C6A270E09646F
:1020400024EF10F026EF10F027EF10F0096A0C5083
:10205000280DF3CF0AF0F4CF0BF009500A26000E3A
:102060000B220D500A240D6E0E500B200E6E3AEF0F
:1020700010F000000E50056E240E066E0D5084EC1C
:1020800010F00009D8B447EF10F049EF10F039EF25
:1020900010F01200026A020E046E79EF10F09968D7
:1020A000918091969192000087CF03F09182918662
:1020B0000350030B036E030E0318D8B462EF10F045
:1020C00064EF10F077EF10F0022A0C0EDFEC11F045
:1020D000F90E02646EEF10F070EF10F079EF10F06F
:1020E000F29E8B948B828F80046A79EF10F0010E40
:1020F000046E020E0418D8B480EF10F082EF10F0D6
:102100004FEF10F004501200076E086A4AEC10F00E
:10211000E806D8A48EEF10F090EF10F0B8EF10F0B2
:102120000C0EDFEC11F007502BEC12F04AEC10F023
:10213000E806D8A49EEF10F0A0EF10F0B8EF10F072
:102140000C0EDFEC11F005502BEC12F04AEC10F005
:10215000E806D8A4AEEF10F0B0EF10F0B8EF10F032
:102160000C0EDFEC11F0065037EC12F0010E086E89
:1021700008501200026E046A0150D8B4C2EF10F089
:10218000C4EF10F0E5EF10F0010E036ECBEF10F08E
:10219000D8900136032A01AED0EF10F0D2EF10F044
:1021A000C8EF10F0D89004360150025CD8A0DBEFE5
:1021B00010F0DDEF10F0E0EF10F00150025E04804F
:1021C000D8900132032ED2EF10F004501200046EAA
:1021D000000183A1EEEF10F0F0EF10F0F4EF10F03B
:1021E0008391010E0DEF11F004C001F0010E026E9B
:1021F000012AFDEF10F0D8900236012EFBEF10F00F
:10220000000183317F0B036E0250031203368351AA
:102210000318010B0318836F000E1200066E076A85
:102220004AEC10F0E806D8A418EF11F01AEF11F0FC
:1022300032EF11F00C0EDFEC11F006502BEC12F027
:102240004AEC10F0E806D8A428EF11F02AEF11F0BC
:1022500032EF11F00C0EDFEC11F0055037EC12F0FC
:10226000010E076E07501200026EC16A160EC06E94
:1022700002501F0B026E0244E846FC0B026E025035
:102280000109C26EC282C2B248EF11F04AEF11F0EA
:1022900043EF11F0C3A04FEF11F051EF11F054EFE5
:1022A00011F0016A56EF11F0C4CF01F00150120095
:1022B000000E056E240E066E000E84EC10F0000E6B
:1022C0000A6E000E096EC00E056E000E0EEC11F0C7
:1022D000094A0A2A800E0A180910D8A472EF11F0D0
:1022E00074EF11F063EF11F01200800E056E240EF2
:1022F000066E000E84EC10F0800E0A6E000E096E61
:10230000C00E056E000E0EEC11F0094A0A2AF80EF6
:102310000A180910D8A48FEF11F091EF11F080EF97
:1023200011F012009968918091969192000000003E
:10233000000087CF01F0918291860150030B030AC0
:10234000D8A4A5EF11F0A7EF11F0ABEF11F0010E3B
:10235000016EACEF11F0016A01501200A00E0F01E6
:10236000266F256B246B236B258125832585258787
:10237000248524878B848B828F8094949492989068
:102380009896989895949596F19E538D1200026EAA
:102390007F9E7F9C02C062FF01C061FF7F84F29E2E
:1023A000550E7E6EAA0E7E6E7F82F28E7F947FB275
:1023B000DCEF11F0DEEF11F0D7EF11F01200016E3B
:1023C000EDEF11F000000000000000000000000030
:1023D000000000000000000001060150D8A4F3EF47
:1023E00011F0F5EF11F0E2EF11F01200FEEF11F035
:1023F0000000000000000106D8A0020601500210F3
:10240000D8A405EF12F007EF12F0F8EF11F0120068
:10241000056E4AEC10F0E806D8A411EF12F013EFA5
:1024200012F019EF12F00C0EDFEC11F0055037EC42
:1024300012F01200949C948E080E656E040ED46EF9
:10244000E10EAF6E040EAC6E800EAB6E240EAC6E61
:10245000900EAB6E1200016E01C090FF996A9190D0
:102460009196919400000000918491861200016E73
:1024700001C090FF996A91809196919400000000AC
:10248000918491861200346A336A326A35903592AB
:1024900000013DEF0FF0016E7F9E7F9C01C062FF47
:1024A0007F8061501200010E0001836F816B826B8F
:0C24B000120000018381010E831712004E
:020000040020DA
:08000000FFFFFFFFFFFFFFFF00
:020000040030CA
:0E00000015136100308081FFFFC0FFE0FF405C
:00000001FF
