:04000000CEEF01F04E
:100008003582D9CF28F0DACF29F0F3CF2AF0F4CF10
:100018002BF0D8CF61F00001606FE0CF62F0EACF3B
:1000280063F0E9CF64F0F2AA1CEF00F01EEF00F0D5
:10003800ADEF01F0F2A423EF00F025EF00F0ADEFF3
:1000480001F06505D8A42BEF00F02DEF00F030EF9C
:1000580000F01B0EFC6E656B6FC0EAFFE96A60C0BA
:10006800EEFF61C0EEFF62C0EEFFFCCFEEFF63C0A3
:10007800EEFF64C0EEFFE2CFEEFFE1CFEEFFDACF96
:10008800EEFFD9CFEEFFF4CFEEFFF3CFEEFFF8CFC0
:10009800EEFFF7CFEEFFF6CFEEFFF5CFEEFFFBCF8B
:1000A800EEFFFACFEEFFE26AE16AE6CFEEFFE6CFB7
:1000B800EEFFE6CFEEFFE6CFEEFFE6CFEEFFE6CFB0
:1000C800EEFFE6CFEEFFE6CFEEFFE6CFEEFFE6CFA0
:1000D800EEFFE6CFEEFFE6CFEEFFE6CFEEFFE6CF90
:1000E800EEFFE6CFEEFFE6CFEEFFE6CFEEFFE6CF80
:1000F800EEFFE6CFEEFFE6CFEEFFE6CFEEFFE6CF70
:10010800EEFFE6CFEEFFE6CFEEFFE6CFEEFFE6CF5F
:10011800EEFFE6CFEEFFE6CFEEFFE6CFEEFFE6CF4F
:10012800EEFFE6CFEEFFE6CFEEFFE6CFEEFFE6CF3F
:10013800EEFFE6CFEEFFE6CFEEFFE6CFEEFFE6CF2F
:10014800EEFFE6CFEEFFE6CFEEFFE6CFEEFFE6CF1F
:10015800EEFFE6CFEEFFE6CFEEFFE6CFEEFFE6CF0F
:10016800EEFFE6CFEEFFE6CFEEFF8A0ED76ECF0E9C
:10017800D66EF294714B722B8205D8A4C6EF00F0AC
:10018800C8EF00F0C9EF00F0826B8105D8A4CFEF6B
:1001980000F0D1EF00F0D2EF00F0816B07011205FB
:1001A800D8A4D9EF00F0DBEF00F0DCEF00F0126B21
:1001B8000001702B060E7019D8A4E5EF00F0E7EFE8
:1001C80000F0E8EF00F0706B7051690FD96EDA6AD1
:1001D800DF506F6F6FC026F0010E276E262AF7EFEB
:1001E80000F0D8902736262EF5EF00F027500001B2
:1001F80092150009D8B403EF01F005EF01F016EFEE
:1002080001F0702B060E7019D8A40DEF01F00FEF56
:1002180001F010EF01F0706B7051690FD96EDA6A56
:10022800DF506F6FE26AE16A6FC0EAFF120EE96E93
:10023800EECFE6FFEECFE6FFEECFE6FFEECFE6FF2E
:10024800EECFE6FFEECFE6FFEECFE6FFEECFE6FF1E
:10025800EECFE6FFEECFE6FFEECFE6FFEECFE6FF0E
:10026800EECFE6FFEECFE6FFEECFE6FFEECFE6FFFE
:10027800EECFE6FFEECFE6FFEECFE6FFEECFE6FFEE
:10028800EECFE6FFEECFE6FFEECFE6FFEECFE6FFDE
:10029800EECFE6FFEECFE6FFEECFE6FFEECFE6FFCE
:1002A800EECFE6FFEECFE6FFEECFE6FFEECFE6FFBE
:1002B800EECFE6FFEECFE6FFEECFE6FFEECFE6FFAE
:1002C800EECFE6FFEECFE6FFEECFE6FFEECFE6FF9E
:1002D800EECFE6FFEECFE6FFEECFE6FFEECFE6FF8E
:1002E800EECFE6FFEECFE6FFEECFE6FFEECFE6FF7E
:1002F8006FC0EAFFE96AEECF60F0EECF61F0EECFB3
:1003080062F0EECFFCFFEECF63F0EECF64F0EECFFD
:10031800E2FFEECFE1FFEECFDAFFEECFD9FFEECF6F
:10032800F4FFEECFF3FFEECFF8FFEECFF7FFEECFFF
:10033800F6FFEECFF5FFEECFFBFFEECFFAFF64C07E
:10034800E9FF63C0EAFF62C0E0FF605161C0D8FF07
:10035800100064C0E9FF63C0EAFF62C0E0FF00016B
:10036800605161C0D8FF100068EC09F074EC0BF024
:1003780079EC11F067EC10F059EC0CF001EC08F096
:100388002BC0F4FF2AC0F3FF29C0DAFF28C0D9FF29
:080398003592110071EF11F024
:101000000000060E156E0001826B8251D8A40BEF12
:1010100008F00DEF08F005EF08F01550C0EC0FF0E8
:101020000009D8B416EF08F018EF08F00DEF08F03B
:1010300007010551D8A41FEF08F021EF08F023EFB6
:1010400008F023EF08F0000E84B8010E0D6E000EBC
:1010500081B6010E0E6E000E81B4010E0F6E0EC031
:1010600006F0010E06160DC007F0010E0716D89007
:101070000734086E0FC009F0010E0916D890093622
:10108000D89009340810061008090A6E81B04BEF99
:1010900008F04DEF08F051EF08F0010E106E5DEF13
:1010A00008F081B256EF08F058EF08F05CEF08F056
:1010B000020E106E5DEF08F0106A83C00BF007C7D8
:1010C00016F006C717F084C00CF0FC0E16646BEF28
:1010D00008F06DEF08F06FEF08F0FD0E166EFC0ED5
:1010E000176475EF08F077EF08F079EF08F0FD0E60
:1010F000176E530E08617FEF08F081EF08F085EF5F
:1011000008F0020E116E92EF08F0AD0E08658BEF3D
:1011100008F08DEF08F091EF08F0010E116E92EFDC
:1011200008F0116A530E096198EF08F09AEF08F081
:101130009EEF08F0010E126EABEF08F0AD0E0965E0
:10114000A4EF08F0A6EF08F0AAEF08F0020E126E66
:10115000ABEF08F0126A9EA8B0EF08F0B2EF08F00B
:10116000ABEF08F0FE0EAD6EACA2B9EF08F0BBEF2E
:1011700008F0B4EF08F09EA8C0EF08F0C2EF08F046
:10118000BBEF08F00AC0ADFFACA2C9EF08F0CBEF8F
:1011900008F0C4EF08F09EA8D0EF08F0D2EF08F0F6
:1011A000CBEF08F010C0ADFFACA2D9EF08F0DBEF39
:1011B00008F0D4EF08F09EA8E0EF08F0E2EF08F0A6
:1011C000DBEF08F011C0ADFFACA2E9EF08F0EBEFE8
:1011D00008F0E4EF08F09EA8F0EF08F0F2EF08F056
:1011E000EBEF08F012C0ADFFACA2F9EF08F0FBEF97
:1011F00008F0F4EF08F09EA800EF09F002EF09F004
:10120000FBEF08F00BC0ADFFACA209EF09F00BEF4C
:1012100009F004EF09F09EA810EF09F012EF09F0B1
:101220000BEF09F016C0ADFFACA219EF09F01BEFF0
:1012300009F014EF09F09EA820EF09F022EF09F061
:101240001BEF09F017C0ADFFACA229EF09F02BEF9F
:1012500009F024EF09F09EA830EF09F032EF09F011
:101260002BEF09F00CC0ADFFACA239EF09F03BEF5A
:1012700009F034EF09F09EA840EF09F042EF09F0C1
:101280003BEF09F0AD68ACA248EF09F04AEF09F076
:1012900043EF09F0000E146E000E136E134A142A69
:1012A00014BE5CEF09F0E80E135C030E1458D8A0CE
:1012B0005CEF09F05EEF09F04EEF09F0155087EC96
:1012C0000EF0010E0001826FF28405EF08F01200AB
:1012D0000701456B010E006F010E016F84C013F70B
:1012E000146BF29EECEC0CF085EC10F0A2EC10F01C
:1012F0002FEC11F0010E0001806F520EAD6EF28ED8
:101300008B948B928F90816B8151D8A48AEF09F0D6
:101310008CEF09F084EF09F0010EC0EC0FF000092A
:10132000D8B495EF09F097EF09F08CEF09F00A0EA9
:1013300043EC10F00701086F0B0E43EC10F00701AF
:10134000096F030E43EC10F00701066F020E43EC29
:1013500010F00701076F84B0B0EF09F0B2EF09F0A9
:10136000D3EF09F00005D8A4B8EF09F0BAEF09F0FF
:10137000D3EF09F0006B060E00018361C2EF09F0A4
:10138000C4EF09F0C7EF09F0832BE4EF09F0050E75
:101390008365CDEF09F0CFEF09F0E4EF09F0060E19
:1013A000836FE4EF09F084A0D8EF09F0DAEF09F0D9
:1013B000E4EF09F00051D8A4E0EF09F0E2EF09F002
:1013C000E4EF09F0010E006F84B2E9EF09F0EBEFF2
:1013D00009F001EF0AF007010105D8A4F2EF09F0C6
:1013E000F4EF09F001EF0AF0016B00018351D8B46A
:1013F000FCEF09F0FEEF09F013EF0AF0830713EF9B
:101400000AF084A206EF0AF008EF0AF013EF0AF0E0
:1014100007010151D8A40FEF0AF011EF0AF013EF02
:101420000AF0010E016F07010C51D8A41AEF0AF05F
:101430001CEF0AF044EF0AF00D51D8A422EF0AF095
:1014400024EF0AF044EF0AF00E51D8A42AEF0AF074
:101450002CEF0AF044EF0AF00A51D8A432EF0AF058
:1014600034EF0AF044EF0AF01051D8A43AEF0AF032
:101470003CEF0AF044EF0AF00F51D8B442EF0AF003
:1014800044EF0AF046EF0AF00001836B84B44BEF9F
:101490000AF04DEF0AF05DEF0AF000018451D8A484
:1014A00054EF0AF056EF0AF05DEF0AF0640E846F15
:1014B000270E0701146F100E136F300E036E070E08
:1014C000046E5AEC0DF00701456F4551D8B46BEF2F
:1014D0000AF06DEF0AF079EF0AF00A0E456173EF3A
:1014E0000AF075EF0AF079EF0AF045C705F77AEFD1
:1014F0000AF0056B010E87EC0EF0010E0001816F02
:10150000F28484EF09F01200010E0001656F010EF4
:10151000696F020E6A6F030E6B6F040E6C6F050E1F
:101520006D6F060E6E6F050E706F7051690FD96E7C
:10153000DA6ADF506F6FFCCF94F0020EFC6ED00EB3
:101540002C6E120E2D6E000E2E6E2CC030F02DC0A3
:1015500031F0300E2F6E2F50D96EDA6ADF50FD6EEB
:101560002F2A2F50D96EDA6ADF50FE6E2F2A2F50A5
:10157000D96EDA6ADF50FF6E070EFC6EE80E2C6E35
:10158000160E2D6E000E2E6E2CC030F02DC031F0D8
:10159000300E2F6E2F50D96EDA6ADF50FD6E2F2A73
:1015A0002F50D96EDA6ADF50FE6E2F2A2F50D96E77
:1015B000DA6ADF50FF6E0C0EFC6EF20E2C6E220EFD
:1015C0002D6E000E2E6E2CC030F02DC031F0300E7E
:1015D0002F6E2F50D96EDA6ADF50FD6E2F2A2F50F2
:1015E000D96EDA6ADF50FE6E2F2A2F50D96EDA6A72
:1015F000DF50FF6E110EFC6ECE0E2C6E200E2D6E87
:10160000000E2E6E2CC030F02DC031F0300E2F6E3B
:101610002F50D96EDA6ADF50FD6E2F2A2F50D96E07
:10162000DA6ADF50FE6E2F2A2F50D96EDA6ADF5049
:10163000FF6E160EFC6EB20E2C6E180E2D6E000E86
:101640002E6E2CC030F02DC031F0300E2F6E2F508A
:10165000D96EDA6ADF50FD6E2F2A2F50D96EDA6A02
:10166000DF50FE6E2F2A2F50D96EDA6ADF50FF6EE0
:101670001B0EFC6E020E2C6E100E2D6E000E2E6ECA
:101680002CC030F02DC031F0300E2F6E2F50D96E9F
:10169000DA6ADF50FD6E2F2A2F50D96EDA6ADF50DA
:1016A000FE6E2F2A2F50D96EDA6ADF50FF6E94C07B
:1016B000FCFF020E0101036F070E0201036F0C0E07
:1016C0000301036F110E0401036F160E0501036F72
:1016D0001B0E0601036F000E0001726F000E716F8A
:1016E000010ED56EF28A120007010E6B0F6B0B6BA9
:1016F000106B0C6B0A6B0D6B84B881EF0BF084EFF1
:101700000BF0010E85EF0BF0000EFF0A010B070135
:101710000A6F0551D8A48FEF0BF091EF0BF095EF06
:101720000BF0010E0B6F96EF0BF00B6B780E07654D
:101730009CEF0BF09EEF0BF0A2EF0BF0010E0C6F85
:10174000A3EF0BF00C6B780E0665A9EF0BF0ABEF77
:101750000BF0AFEF0BF0010E0D6FB0EF0BF00D6B58
:101760000F0E00018461B7EF0BF0B9EF0BF0BEEF85
:101770000BF0010E07010E6FC0EF0BF007010E6BAF
:1017800081B4C5EF0BF0C8EF0BF0010EC9EF0BF001
:10179000000EFF0A010B106F81B6D1EF0BF0D4EFF2
:1017A0000BF0010ED5EF0BF0000EFF0A026E02A047
:1017B000DCEF0BF0DEEF0BF0E0EF0BF0010E0F6F44
:1017C0000C51D8A4E6EF0BF0E8EF0BF0F8EF0BF0BC
:1017D0000D51D8A4EEEF0BF0F0EF0BF0F8EF0BF09B
:1017E0000E51D8B4F6EF0BF0F8EF0BF002EF0CF05F
:1017F0008F80918EA00EF4EC10F08F90919EA00E31
:10180000F4EC10F007010A51D8B409EF0CF00BEF1B
:101810000CF013EF0CF0918E400EF4EC10F0919E52
:10182000400EF4EC10F007010B51D8A41AEF0CF0A5
:101830001CEF0CF024EF0CF01051D8B422EF0CF098
:1018400024EF0CF042EF0CF08F808B82918E700EA3
:10185000F4EC10F08F908B92919E700EF4EC10F0DF
:1018600007010B51D8B437EF0CF039EF0CF042EF11
:101870000CF00F05D8A43FEF0CF041EF0CF042EF55
:101880000CF00F6B0F51D8B448EF0CF04AEF0CF08E
:101890007CEF0BF08F808B82918ED00EF4EC10F0E9
:1018A0008F908B92919ED00EF4EC10F07CEF0BF0A9
:1018B0001200000E216E640E206E0A0E256E640E5C
:1018C0000001846F836B8451640DF3CF13F7F4CF61
:1018D00014F70701126B00018451D8B472EF0CF0B9
:1018E00074EF0CF0D6EF0CF007011251D8A47BEF87
:1018F0000CF07DEF0CF06BEF0CF025501119D8A413
:1019000084EF0CF086EF0CF0CBEF0CF0226A90EF36
:101910000CF022500C0FD96EDA6ADF502426222AEE
:101920002550225CD8A097EF0CF099EF0CF089EFCE
:101930000CF025C001F02450F0EC0FF0246E245080
:10194000086E096AF10E0802F3CF0AF0F4CF0BF02B
:101950000902F3500B26FF0E0802F3500B26070175
:1019600013510A2614510B22F60E0A24136FFF0E90
:101970000B20146F13C701F014C702F0000E046EA1
:10198000640E036EDCEC0EF001500001846F070161
:10199000116BD2EF0CF011510C0FD96EDA6A83C0C3
:1019A000DFFF112B010E126F6BEF0CF0236ADFEFDC
:1019B0000CF023500C0FD96EDA6ADF6A232A255007
:1019C000235CD8A0E6EF0CF0E8EF0CF0D9EF0CF0B8
:1019D000246A6BEF0CF01200096A906A1F0E916E78
:1019E000996A9A6A919A918C9198040EF4EC10F08D
:1019F00091880C0EF4EC10F010EF0DF0092A0C0E8B
:101A0000F4EC10F0C80E096408EF0DF00AEF0DF0C9
:101A100010EF0DF08B828F808B94F29E0EEF0DF005
:101A2000BFEC10F00009D8B418EF0DF01AEF0DF06C
:101A3000FEEF0CF00F0E056E210E066E270E8AECDF
:101A40000FF0000E056E220E066E000E8AEC0FF0EF
:101A5000000E056E240E066E000E8AEC0FF07B0E53
:101A6000056E400E066E000E8AEC0FF0000E056E3D
:101A7000410E066E280E8AEC0FF0800E056E420EA7
:101A8000066E000E8AEC0FF0000E056E430E066E19
:101A9000280E8AEC0FF0800E1DEC11F09C0E1DEC50
:101AA00011F0A00E1DEC11F0700E056E020E1DEC73
:101AB00010F0120095828C968C94000E026E640ECB
:101AC000016E0BEC11F08C86056A030E026EE80EB7
:101AD000016E0BEC11F0052A83A071EF0DF073EF8E
:101AE0000DF075EF0DF0410E056E400E05647BEFB5
:101AF0000DF07DEF0DF065EF0DF083A082EF0DF09E
:101B000084EF0DF0C4EF0DF0066A086A076A83A23D
:101B10008CEF0DF08EEF0DF091EF0DF008500109F4
:101B2000086E08500824086E000E026E640E016EE6
:101B30000BEC11F08C84010E026EF40E016E0BECB6
:101B400011F08C94010E026E900E016E0BEC11F0F0
:101B5000072A070E0764AFEF0DF0B1EF0DF087EF26
:101B60000DF006500324D96E000E0420DA6E08C072
:101B7000DFFF062A83B0BFEF0DF0C1EF0DF085EF58
:101B80000DF00650C5EF0DF0000E1200066A04BEFF
:101B9000CEEF0DF0CCEF0DF0D4EF0DF0036C041E82
:101BA000D8B0042A010E066E02BEDBEF0DF0D9EFAD
:101BB0000DF0E1EF0DF0016C021ED8B0022A010E0B
:101BC000061A000E086E000E076E03500410D8B4FB
:101BD000ECEF0DF0EEEF0DF016EF0EF0010E056ECE
:101BE000F6EF0DF0D89003360436052A04AEFBEF6D
:101BF0000DF0FDEF0DF0F2EF0DF0D890073608363E
:101C00000350015C04500258D8A009EF0EF00BEF0E
:101C10000EF010EF0EF00350015E0450025A0780E0
:101C2000D89004320332052EFDEF0DF00650D8B4E3
:101C30001CEF0EF01EEF0EF022EF0EF0076C081EE8
:101C4000D8B0082A07C001F008C002F012000B6EDD
:101C50000BC001F0026A000E046E640E036EC6EC47
:101C60000DF001500C6E0C509C0DF3500B240D6EBA
:101C70000DC001F0026A000E046E0A0E036EC6EC7F
:101C80000DF001500D6E0C509C0DF3CF09F00D506E
:101C9000F60DF35009240B240A6E0C50100F0E6E33
:101CA00053EF0EF00000C00E056E0E501DEC10F04C
:101CB0000009D8B45EEF0EF060EF0EF052EF0EF0B8
:101CC0000D50100F0E6E66EF0EF00000C00E056E88
:101CD0000E501DEC10F00009D8B471EF0EF073EF48
:101CE0000EF065EF0EF00A50100F0E6E79EF0EF049
:101CF0000000C00E056E0E501DEC10F00009D8B4A7
:101D000084EF0EF086EF0EF078EF0EF01200036E07
:101D1000070E046E00019151905DD8B092EF0EF065
:101D200094EF0EF0DBEF0EF0902B03C001F0010EEC
:101D3000026E012A9EEF0EF0D8900236012E9CEF23
:101D40000EF00250FF0A00019317056AD2EF0EF061
:101D500005C001F0010E026E012AB1EF0EF0D8901D
:101D60000236012EAFEF0EF002500001921500096D
:101D7000D8B4BDEF0EF0BFEF0EF0D1EF0EF005C0FE
:101D800001F0010E026E012AC8EF0EF0D890023663
:101D9000012EC6EF0EF00250FF0A00019217DBEF92
:101DA0000EF0052A0450055CD8A0D9EF0EF0DBEF49
:101DB0000EF0A8EF0EF01200000E066E000E056E7B
:101DC00003500410D8B4E7EF0EF0E9EF0EF011EF76
:101DD0000FF0010E076EF1EF0EF0D89003360436C7
:101DE000072A04AEF6EF0EF0F8EF0EF0EDEF0EF06E
:101DF000D890053606360350015C04500258D8A02E
:101E000004EF0FF006EF0FF00BEF0FF00350015E41
:101E10000450025A0580D89004320332072EF8EF9E
:101E20000EF005C001F006C002F012000C6E7B0E31
:101E30000E6E000E0D6E0F0E0C6421EF0FF023EFEF
:101E40000FF024EF0FF00C6A270E09642AEF0FF051
:101E50002CEF0FF02DEF0FF0096A0C50280DF3CF87
:101E60000AF0F4CF0BF009500A26000E0B220D5099
:101E70000A240D6E0E500B200E6E40EF0FF0000086
:101E80000E50056E240E066E0D508AEC0FF0000900
:101E9000D8B44DEF0FF04FEF0FF03FEF0FF01200FF
:101EA000026A020E046E7FEF0FF09968918091969E
:101EB0009192000087CF03F0918291860350030B2B
:101EC000036E030E0318D8B468EF0FF06AEF0FF03B
:101ED0007DEF0FF0022A0C0EF4EC10F0F90E026404
:101EE00074EF0FF076EF0FF07FEF0FF0F29E8B9410
:101EF0008B828F80046A7FEF0FF0010E046E020E5A
:101F00000418D8B486EF0FF088EF0FF055EF0FF0FC
:101F100004501200076E086A50EC0FF0E806D8A4CF
:101F200094EF0FF096EF0FF0BEEF0FF00C0EF4EC05
:101F300010F007504FEC11F050EC0FF0E806D8A469
:101F4000A4EF0FF0A6EF0FF0BEEF0FF00C0EF4ECC5
:101F500010F005504FEC11F050EC0FF0E806D8A44B
:101F6000B4EF0FF0B6EF0FF0BEEF0FF00C0EF4EC85
:101F700010F006505BEC11F0010E086E08501200D4
:101F8000036E00019051D8B4C8EF0FF0CAEF0FF004
:101F9000DDEF0FF0900703C001F0010E026E012A81
:101FA000D4EF0FF0D8900236012ED2EF0FF002508E
:101FB00000019313010EEFEF0FF0906B03C001F0DF
:101FC000010E026E012AE7EF0FF0D8900236012EC3
:101FD000E5EF0FF0025000019213F284000E1200A0
:101FE000026E046A0150D8B4F8EF0FF0FAEF0FF068
:101FF0001BEF10F0010E036E01EF10F0D8900136C8
:10200000032A01AE06EF10F008EF10F0FEEF0FF01C
:10201000D89004360150025CD8A011EF10F013EFF5
:1020200010F016EF10F00150025E0480D8900132DB
:10203000032E08EF10F004501200066E076A50ECF1
:102040000FF0E806D8A427EF10F029EF10F041EFC9
:1020500010F00C0EF4EC10F006504FEC11F050ECB8
:102060000FF0E806D8A437EF10F039EF10F041EF89
:1020700010F00C0EF4EC10F005505BEC11F0010EBA
:10208000076E07501200026EC16A160EC06E025033
:102090001F0B026E0244E846FC0B026E025001095F
:1020A000C26EC282C2B257EF10F059EF10F052EF79
:1020B00010F0C3A05EEF10F060EF10F063EF10F0CF
:1020C000016A65EF10F0C4CF01F001501200000E5C
:1020D000096E060E16EC0FF00001845127EC0EF08D
:1020E000000E096E080E16EC0FF00001835127EC6C
:1020F0000EF0000E096E0A0E16EC0FF007010951E2
:1021000027EC0EF067EF10F01200000E056E240EA3
:10211000066E000E8AEC0FF0000E0A6E000E096EBD
:10212000C00E056E000E1DEC10F0094A0A2A800E42
:102130000A180910D8A49FEF10F0A1EF10F090EF4B
:1021400010F01200800E056E240E066E000E8AEC52
:102150000FF0800E0A6E000E096EC00E056E000EA6
:102160001DEC10F0094A0A2AF80E0A180910D8A422
:10217000BCEF10F0BEEF10F0ADEF10F01200996858
:1021800091809196919200000000000087CF01F0AD
:10219000918291860150030B030AD8A4D2EF10F06C
:1021A000D4EF10F0D8EF10F0010E016ED9EF10F05F
:1021B000016A01501200A00E0F01266F256B246BDF
:1021C000236B2581258325852587248524878B847A
:1021D0008B828F80949494929890989698989594E6
:1021E0009596F19E538D1200016E02EF11F00000E2
:1021F00000000000000000000000000000000000DF
:10220000000001060150D8A408EF11F00AEF11F008
:10221000F7EF10F0120013EF11F0000000000000C3
:102220000106D8A0020601500210D8A41AEF11F03E
:102230001CEF11F00DEF11F01200056E50EC0FF0D5
:10224000E806D8A426EF11F028EF11F02EEF11F0D8
:102250000C0EF4EC10F005505BEC11F01200949CA5
:10226000948E080E656E040ED46EE10EAF6E040EF1
:10227000AC6E800EAB6E240EAC6E900EAB6E120088
:10228000DBEC10F084EC0AF0010E67EC11F0D58E57
:10229000F284F28E00004AEF11F0CEEF01F0016EF1
:1022A00001C090FF996A919091969194000000006E
:1022B000918491861200016E01C090FF996A91800D
:1022C0009196919400000000918491861200000183
:1022D000946F94C090F094C091F00001926B936B56
:1022E0001200346A336A326A35903592000140EF49
:0822F00011F079EF11F012006A
:020000040020DA
:08000000FFFFFFFFFFFFFFFF00
:020000040030CA
:0E00000015136100308081FFFFC0FFE0FF405C
:00000001FF
