:04000000D7EF01F045
:100008003582D9CF28F0DACF29F0F3CF2AF0F4CF10
:100018002BF0D8CF61F00001606FE0CF62F0EACF3B
:1000280063F0E9CF64F0F2AA1CEF00F01EEF00F0D5
:10003800B6EF01F0F2A423EF00F025EF00F0B6EFE1
:1000480001F06505D8A42BEF00F02DEF00F030EF9C
:1000580000F01B0EFC6E656B6FC0EAFFE96A60C0BA
:10006800EEFF61C0EEFF62C0EEFFFCCFEEFF63C0A3
:10007800EEFF64C0EEFFE2CFEEFFE1CFEEFFDACF96
:10008800EEFFD9CFEEFFF4CFEEFFF3CFEEFFF8CFC0
:10009800EEFFF7CFEEFFF6CFEEFFF5CFEEFFFBCF8B
:1000A800EEFFFACFEEFFE26AE16AE6CFEEFFE6CFB7
:1000B800EEFFE6CFEEFFE6CFEEFFE6CFEEFFE6CFB0
:1000C800EEFFE6CFEEFFE6CFEEFFE6CFEEFFE6CFA0
:1000D800EEFFE6CFEEFFE6CFEEFFE6CFEEFFE6CF90
:1000E800EEFFE6CFEEFFE6CFEEFFE6CFEEFFE6CF80
:1000F800EEFFE6CFEEFFE6CFEEFFE6CFEEFFE6CF70
:10010800EEFFE6CFEEFFE6CFEEFFE6CFEEFFE6CF5F
:10011800EEFFE6CFEEFFE6CFEEFFE6CFEEFFE6CF4F
:10012800EEFFE6CFEEFFE6CFEEFFE6CFEEFFE6CF3F
:10013800EEFFE6CFEEFFE6CFEEFFE6CFEEFFE6CF2F
:10014800EEFFE6CFEEFFE6CFEEFFE6CFEEFFE6CF1F
:10015800EEFFE6CFEEFFE6CFEEFFE6CFEEFFE6CF0F
:10016800EEFFE6CFEEFFE6CFEEFF8A0ED76ECF0E9C
:10017800D66EF294714B722B8205D8A4C6EF00F0AC
:10018800C8EF00F0C9EF00F0826B8105D8A4CFEF6B
:1001980000F0D1EF00F0D2EF00F0816B07011205FB
:1001A800D8A4D9EF00F0DBEF00F0DCEF00F0126B21
:1001B8001505D8A4E2EF00F0E4EF00F0E5EF00F059
:1001C800156B0001702B060E7019D8A4EEEF00F025
:1001D800F0EF00F0F1EF00F0706B7051690FD96E1D
:1001E800DA6ADF506F6F6FC026F0010E276E262A7D
:1001F80000EF01F0D8902736262EFEEF00F02750AA
:10020800000192150009D8B40CEF01F00EEF01F0CF
:100218001FEF01F0702B060E7019D8A416EF01F02D
:1002280018EF01F019EF01F0706B7051690FD96E7A
:10023800DA6ADF506F6FE26AE16A6FC0EAFF120E96
:10024800E96EEECFE6FFEECFE6FFEECFE6FFEECFAC
:10025800E6FFEECFE6FFEECFE6FFEECFE6FFEECF0E
:10026800E6FFEECFE6FFEECFE6FFEECFE6FFEECFFE
:10027800E6FFEECFE6FFEECFE6FFEECFE6FFEECFEE
:10028800E6FFEECFE6FFEECFE6FFEECFE6FFEECFDE
:10029800E6FFEECFE6FFEECFE6FFEECFE6FFEECFCE
:1002A800E6FFEECFE6FFEECFE6FFEECFE6FFEECFBE
:1002B800E6FFEECFE6FFEECFE6FFEECFE6FFEECFAE
:1002C800E6FFEECFE6FFEECFE6FFEECFE6FFEECF9E
:1002D800E6FFEECFE6FFEECFE6FFEECFE6FFEECF8E
:1002E800E6FFEECFE6FFEECFE6FFEECFE6FFEECF7E
:1002F800E6FFEECFE6FFEECFE6FFEECFE6FFEECF6E
:10030800E6FF6FC0EAFFE96AEECF60F0EECF61F07A
:10031800EECF62F0EECFFCFFEECF63F0EECF64F0ED
:10032800EECFE2FFEECFE1FFEECFDAFFEECFD9FF5F
:10033800EECFF4FFEECFF3FFEECFF8FFEECFF7FFEF
:10034800EECFF6FFEECFF5FFEECFFBFFEECFFAFFD5
:1003580064C0E9FF63C0EAFF62C0E0FF605161C0AA
:10036800D8FF100064C0E9FF63C0EAFF62C0E0FF85
:100378000001605161C0D8FF100068EC09F059EC29
:100388000CF074EC0BF0C1EC0FF03EEC0DF001EC4E
:1003980008F02BC0F4FF2AC0F3FF29C0DAFF28C0F9
:0A03A800D9FF3592110092EF12F018
:101000000000060E156E0001826B8251D8A40BEF12
:1010100008F00DEF08F005EF08F01550E7EC10F0C0
:101020000009D8B416EF08F018EF08F00DEF08F03B
:1010300007010551D8A41FEF08F021EF08F023EFB6
:1010400008F023EF08F0000E84B8010E0D6E000EBC
:1010500081B6010E0E6E000E81B4010E0F6E0EC031
:1010600006F0010E06160DC007F0010E0716D89007
:101070000734086E0FC009F0010E0916D890093622
:10108000D89009340810061008090A6E81B04BEF99
:1010900008F04DEF08F051EF08F0010E106E5DEF13
:1010A00008F081B256EF08F058EF08F05CEF08F056
:1010B000020E106E5DEF08F0106A83C00BF007C7D8
:1010C00016F006C717F084C00CF0FC0E16646BEF28
:1010D00008F06DEF08F06FEF08F0FD0E166EFC0ED5
:1010E000176475EF08F077EF08F079EF08F0FD0E60
:1010F000176E530E08617FEF08F081EF08F085EF5F
:1011000008F0020E116E92EF08F0AD0E08658BEF3D
:1011100008F08DEF08F091EF08F0010E116E92EFDC
:1011200008F0116A530E096198EF08F09AEF08F081
:101130009EEF08F0010E126EABEF08F0AD0E0965E0
:10114000A4EF08F0A6EF08F0AAEF08F0020E126E66
:10115000ABEF08F0126A9EA8B0EF08F0B2EF08F00B
:10116000ABEF08F0FE0EAD6EACA2B9EF08F0BBEF2E
:1011700008F0B4EF08F09EA8C0EF08F0C2EF08F046
:10118000BBEF08F00AC0ADFFACA2C9EF08F0CBEF8F
:1011900008F0C4EF08F09EA8D0EF08F0D2EF08F0F6
:1011A000CBEF08F010C0ADFFACA2D9EF08F0DBEF39
:1011B00008F0D4EF08F09EA8E0EF08F0E2EF08F0A6
:1011C000DBEF08F011C0ADFFACA2E9EF08F0EBEFE8
:1011D00008F0E4EF08F09EA8F0EF08F0F2EF08F056
:1011E000EBEF08F012C0ADFFACA2F9EF08F0FBEF97
:1011F00008F0F4EF08F09EA800EF09F002EF09F004
:10120000FBEF08F00BC0ADFFACA209EF09F00BEF4C
:1012100009F004EF09F09EA810EF09F012EF09F0B1
:101220000BEF09F016C0ADFFACA219EF09F01BEFF0
:1012300009F014EF09F09EA820EF09F022EF09F061
:101240001BEF09F017C0ADFFACA229EF09F02BEF9F
:1012500009F024EF09F09EA830EF09F032EF09F011
:101260002BEF09F00CC0ADFFACA239EF09F03BEF5A
:1012700009F034EF09F09EA840EF09F042EF09F0C1
:101280003BEF09F0AD68ACA248EF09F04AEF09F076
:1012900043EF09F0000E146E000E136E134A142A69
:1012A00014BE5CEF09F0E80E135C030E1458D8A0CE
:1012B0005CEF09F05EEF09F04EEF09F015506CECB1
:1012C0000FF0010E0001826FF28405EF08F01200AA
:1012D0000701456B010E006F010E016F84C013F70B
:1012E000146BF29ED1EC0DF08EEC11F0ABEC11F022
:1012F00050EC12F0010E0001806F520EAD6EF28EB6
:101300008B948B928F90816B8151D8A48AEF09F0D6
:101310008CEF09F084EF09F0010EE7EC10F0000902
:10132000D8B495EF09F097EF09F08CEF09F00A0EA9
:101330006AEC11F00701086F0B0E6AEC11F007015F
:10134000096F030E6AEC11F00701066F020E6AECDA
:1013500011F00701076F84B0B0EF09F0B2EF09F0A8
:10136000D3EF09F00005D8A4B8EF09F0BAEF09F0FF
:10137000D3EF09F0006B060E00018361C2EF09F0A4
:10138000C4EF09F0C7EF09F0832BE4EF09F0050E75
:101390008365CDEF09F0CFEF09F0E4EF09F0060E19
:1013A000836FE4EF09F084A0D8EF09F0DAEF09F0D9
:1013B000E4EF09F00051D8A4E0EF09F0E2EF09F002
:1013C000E4EF09F0010E006F84B2E9EF09F0EBEFF2
:1013D00009F001EF0AF007010105D8A4F2EF09F0C6
:1013E000F4EF09F001EF0AF0016B00018351D8B46A
:1013F000FCEF09F0FEEF09F013EF0AF0830713EF9B
:101400000AF084A206EF0AF008EF0AF013EF0AF0E0
:1014100007010151D8A40FEF0AF011EF0AF013EF02
:101420000AF0010E016F07010C51D8A41AEF0AF05F
:101430001CEF0AF044EF0AF00D51D8A422EF0AF095
:1014400024EF0AF044EF0AF00E51D8A42AEF0AF074
:101450002CEF0AF044EF0AF00A51D8A432EF0AF058
:1014600034EF0AF044EF0AF01051D8A43AEF0AF032
:101470003CEF0AF044EF0AF00F51D8B442EF0AF003
:1014800044EF0AF046EF0AF00001836B84B44BEF9F
:101490000AF04DEF0AF05DEF0AF000018451D8A484
:1014A00054EF0AF056EF0AF05DEF0AF0640E846F15
:1014B000270E0701146F100E136F300E036E070E08
:1014C000046E3FEC0EF00701456F4551D8B46BEF49
:1014D0000AF06DEF0AF079EF0AF00A0E456173EF3A
:1014E0000AF075EF0AF079EF0AF045C705F77AEFD1
:1014F0000AF0056B010E6CEC0FF0010E0001816F1C
:10150000F28484EF09F01200010E0001656F010EF4
:10151000696F020E6A6F030E6B6F040E6C6F050E1F
:101520006D6F060E6E6F050E706F7051690FD96E7C
:10153000DA6ADF506F6FFCCF94F0020EFC6ED00EB3
:101540002C6E120E2D6E000E2E6E2CC030F02DC0A3
:1015500031F0300E2F6E2F50D96EDA6ADF50FD6EEB
:101560002F2A2F50D96EDA6ADF50FE6E2F2A2F50A5
:10157000D96EDA6ADF50FF6E070EFC6EB20E2C6E6B
:10158000180E2D6E000E2E6E2CC030F02DC031F0D6
:10159000300E2F6E2F50D96EDA6ADF50FD6E2F2A73
:1015A0002F50D96EDA6ADF50FE6E2F2A2F50D96E77
:1015B000DA6ADF50FF6E0C0EFC6EE80E2C6E160E13
:1015C0002D6E000E2E6E2CC030F02DC031F0300E7E
:1015D0002F6E2F50D96EDA6ADF50FD6E2F2A2F50F2
:1015E000D96EDA6ADF50FE6E2F2A2F50D96EDA6A72
:1015F000DF50FF6E110EFC6E820E2C6E1F0E2D6ED4
:10160000000E2E6E2CC030F02DC031F0300E2F6E3B
:101610002F50D96EDA6ADF50FD6E2F2A2F50D96E07
:10162000DA6ADF50FE6E2F2A2F50D96EDA6ADF5049
:10163000FF6E160EFC6E7C0E2C6E1A0E2D6E000EBA
:101640002E6E2CC030F02DC031F0300E2F6E2F508A
:10165000D96EDA6ADF50FD6E2F2A2F50D96EDA6A02
:10166000DF50FE6E2F2A2F50D96EDA6ADF50FF6EE0
:101670001B0EFC6E020E2C6E100E2D6E000E2E6ECA
:101680002CC030F02DC031F0300E2F6E2F50D96E9F
:10169000DA6ADF50FD6E2F2A2F50D96EDA6ADF50DA
:1016A000FE6E2F2A2F50D96EDA6ADF50FF6E94C07B
:1016B000FCFF020E0101036F070E0201036F0C0E07
:1016C0000301036F110E0401036F160E0501036F72
:1016D0001B0E0601036F000E0001726F000E716F8A
:1016E000010ED56EF28A1200000E0701616F000E26
:1016F000606F156B000E9AEC12F0FF0AD8A483EF0E
:101700000BF085EF0BF0C5EF0BF0010E9AEC12F029
:10171000FF0AD8A48EEF0BF090EF0BF0C5EF0BF0A3
:10172000020E9AEC12F0FF0AD8A499EF0BF09BEF8F
:101730000BF0C5EF0BF0030E9AEC12F0FF0AD8A4E1
:10174000A4EF0BF0A6EF0BF0C5EF0BF0000E0801B5
:10175000016F000E026F000E036F000E046F000E8B
:10176000016E000EFDEC11F0000E016E010EFDEC9D
:1017700011F0000E016E020EFDEC11F0000E016E74
:10178000030EFDEC11F01DEF0CF0000E0801016FCF
:10179000000E026F000E036F000E046F000E9AEC35
:1017A00012F0036E03C004F0056A066A076A04C0FB
:1017B00007F0066A056A046A04500801011305501F
:1017C00002130650031307500413010E9AEC12F093
:1017D000036E03C004F0056A066A076A05C007F0D5
:1017E00004C006F0056A046A04500801011305509C
:1017F00002130650031307500413020E9AEC12F062
:10180000036E03C004F0056A066A076A06C007F0A3
:1018100005C006F004C005F0046A04500801011375
:10182000055002130650031307500413030E9AECDD
:1018300012F0036E035008010113000183510801E7
:101840000127000E02230323042307011551D8A406
:101850002CEF0CF02EEF0CF01DEF0CF0604B612B19
:10186000615109E10A0E605DD8A039EF0CF03BEF41
:101870000CF053EF0CF0000E616F000E606F04C8A7
:1018800001F0000EFDEC11F003C801F0010EFDECBB
:1018900011F002C801F0020EFDEC11F001C801F0D8
:1018A000030EFDEC11F0010E0701156F1DEF0CF09A
:1018B000120007010E6B0F6B0B6B106B0C6B0A6B3E
:1018C0000D6B84B866EF0CF069EF0CF0010E6AEF57
:1018D0000CF0000EFF0A010B07010A6F0551D8A496
:1018E00074EF0CF076EF0CF07AEF0CF0010E0B6F4A
:1018F0007BEF0CF00B6B780E076581EF0CF083EF3C
:101900000CF087EF0CF0010E0C6F88EF0CF00C6BF5
:10191000780E06658EEF0CF090EF0CF094EF0CF063
:10192000010E0D6F95EF0CF00D6B0F0E0001846131
:101930009CEF0CF09EEF0CF0A3EF0CF0010E0701F2
:101940000E6FA5EF0CF007010E6B81B4AAEF0CF03F
:10195000ADEF0CF0010EAEEF0CF0000EFF0A010B24
:10196000106F81B6B6EF0CF0B9EF0CF0010EBAEFC4
:101970000CF0000EFF0A026E02A0C1EF0CF0C3EFE4
:101980000CF0C5EF0CF0010E0F6F0C51D8A4CBEF8B
:101990000CF0CDEF0CF0DDEF0CF00D51D8A4D3EF2F
:1019A0000CF0D5EF0CF0DDEF0CF00E51D8B4DBEFFE
:1019B0000CF0DDEF0CF0E7EF0CF08F80918EA00EB5
:1019C00015EC12F08F90919EA00E15EC12F007010D
:1019D0000A51D8B4EEEF0CF0F0EF0CF0F8EF0CF089
:1019E000918E400E15EC12F0919E400E15EC12F007
:1019F00007010B51D8A4FFEF0CF001EF0DF009EF38
:101A00000DF01051D8B407EF0DF009EF0DF027EFEE
:101A10000DF08F808B82918E700E15EC12F08F90EE
:101A20008B92919E700E15EC12F007010B51D8B4F9
:101A30001CEF0DF01EEF0DF027EF0DF00F05D8A4F1
:101A400024EF0DF026EF0DF027EF0DF00F6B0F5187
:101A5000D8B42DEF0DF02FEF0DF061EF0CF08F806B
:101A60008B82918ED00E15EC12F08F908B92919EFE
:101A7000D00E15EC12F061EF0CF01200000E216E8A
:101A8000640E206E0A0E256E640E0001846F836B57
:101A90008451640DF3CF13F7F4CF14F70701126BE1
:101AA00000018451D8B457EF0DF059EF0DF0BBEFA2
:101AB0000DF007011251D8A460EF0DF062EF0DF0A8
:101AC00050EF0DF025501119D8A469EF0DF06BEF10
:101AD0000DF0B0EF0DF0226A75EF0DF022500C0FF3
:101AE000D96EDA6ADF502426222A2550225CD8A03B
:101AF0007CEF0DF07EEF0DF06EEF0DF025C001F0E4
:101B0000245017EC11F0246E2450086E096AF10E6F
:101B10000802F3CF0AF0F4CF0BF00902F3500B26C2
:101B2000FF0E0802F3500B26070113510A26145129
:101B30000B22F60E0A24136FFF0E0B20146F13C72F
:101B400001F014C702F0000E046E640E036E03EC85
:101B500010F001500001846F0701116BB7EF0DF019
:101B600011510C0FD96EDA6A83C0DFFF112B010E01
:101B7000126F50EF0DF0236AC4EF0DF023500C0FDD
:101B8000D96EDA6ADF6A232A2550235CD8A0CBEF0E
:101B90000DF0CDEF0DF0BEEF0DF0246A50EF0DF01B
:101BA0001200096A906A1F0E916E996A9A6A919A58
:101BB000918C9198040E15EC12F091880C0E15EC96
:101BC00012F0F5EF0DF0092A0C0E15EC12F0C80E0C
:101BD0000964EDEF0DF0EFEF0DF0F5EF0DF08B82F6
:101BE0008F808B94F29EF3EF0DF0C8EC11F000099A
:101BF000D8B4FDEF0DF0FFEF0DF0E3EF0DF00F0E99
:101C0000056E210E066E270EB1EC10F0000E056E6B
:101C1000220E066E000EB1EC10F0000E056E240EC2
:101C2000066E000EB1EC10F07B0E056E400E066ED7
:101C3000000EB1EC10F0000E056E410E066E280E7F
:101C4000B1EC10F0800E056E420E066E000EB1EC87
:101C500010F0000E056E430E066E280EB1EC10F06B
:101C6000800E3EEC12F09C0E3EEC12F0A00E3EEC0C
:101C700012F0700E056E020E44EC11F01200958207
:101C80008C968C94000E026E640E016E2CEC12F099
:101C90008C86056A030E026EE80E016E2CEC12F0C3
:101CA000052A83A056EF0EF058EF0EF05AEF0EF013
:101CB000410E056E400E056460EF0EF062EF0EF00F
:101CC0004AEF0EF083A067EF0EF069EF0EF0A9EF78
:101CD0000EF0066A086A076A83A271EF0EF073EFCE
:101CE0000EF076EF0EF008500109086E0850082437
:101CF000086E000E026E640E016E2CEC12F08C84E5
:101D0000010E026EF40E016E2CEC12F08C94010E9A
:101D1000026E900E016E2CEC12F0072A070E07647B
:101D200094EF0EF096EF0EF06CEF0EF006500324D9
:101D3000D96E000E0420DA6E08C0DFFF062A83B0D9
:101D4000A4EF0EF0A6EF0EF06AEF0EF00650AAEF29
:101D50000EF0000E1200066A04BEB3EF0EF0B1EFF3
:101D60000EF0B9EF0EF0036C041ED8B0042A010E79
:101D7000066E02BEC0EF0EF0BEEF0EF0C6EF0EF024
:101D8000016C021ED8B0022A010E061A000E086E5F
:101D9000000E076E03500410D8B4D1EF0EF0D3EF4D
:101DA0000EF0FBEF0EF0010E056EDBEF0EF0D8909B
:101DB00003360436052A04AEE0EF0EF0E2EF0EF033
:101DC000D7EF0EF0D890073608360350015C045068
:101DD0000258D8A0EEEF0EF0F0EF0EF0F5EF0EF097
:101DE0000350015E0450025A0780D8900432033237
:101DF000052EE2EF0EF00650D8B401EF0FF003EF1E
:101E00000FF007EF0FF0076C081ED8B0082A07C0C4
:101E100001F008C002F012000B6E0BC001F0026A64
:101E2000000E046E640E036EABEC0EF001500C6EEF
:101E30000C509C0DF3500B240D6E0DC001F0026A86
:101E4000000E046E0A0E036EABEC0EF001500D6E28
:101E50000C509C0DF3CF09F00D50F60DF3500924F2
:101E60000B240A6E0C50100F0E6E38EF0FF00000AE
:101E7000C00E056E0E5044EC11F00009D8B443EFCB
:101E80000FF045EF0FF037EF0FF00D50100F0E6E03
:101E90004BEF0FF00000C00E056E0E5044EC11F039
:101EA0000009D8B456EF0FF058EF0FF04AEF0FF0DB
:101EB0000A50100F0E6E5EEF0FF00000C00E056EA0
:101EC0000E5044EC11F00009D8B469EF0FF06BEF3D
:101ED0000FF05DEF0FF01200036E070E046E0001AD
:101EE0009151905DD8B077EF0FF079EF0FF0C0EF20
:101EF0000FF0902B03C001F0010E026E012A83EF58
:101F00000FF0D8900236012E81EF0FF00250FF0A39
:101F100000019317056AB7EF0FF005C001F0010E3D
:101F2000026E012A96EF0FF0D8900236012E94EF40
:101F30000FF00250000192150009D8B4A2EF0FF083
:101F4000A4EF0FF0B6EF0FF005C001F0010E026E26
:101F5000012AADEF0FF0D8900236012EABEF0FF053
:101F60000250FF0A00019217C0EF0FF0052A04503B
:101F7000055CD8A0BEEF0FF0C0EF0FF08DEF0FF0B3
:101F80001200000E096E060E3DEC10F000018451A7
:101F90000CEC0FF0000E096E080E3DEC10F0000185
:101FA00083510CEC0FF0000E096E0A0E3DEC10F0A0
:101FB000070109510CEC0FF0000E096E0C0E3DEC00
:101FC00010F0080104510CEC0FF0000E096E0D0E1C
:101FD0003DEC10F0080103510CEC0FF0000E096EFF
:101FE0000E0E3DEC10F0080102510CEC0FF0000E4B
:101FF000096E0F0E3DEC10F0080101510CEC0FF0D2
:10200000C1EF0FF01200000E066E000E056E0350B9
:102010000410D8B40EEF10F010EF10F038EF10F0FD
:10202000010E076E18EF10F0D89003360436072A19
:1020300004AE1DEF10F01FEF10F014EF10F0D89069
:10204000053606360350015C04500258D8A02BEF29
:1020500010F02DEF10F032EF10F00350015E04503D
:10206000025A0580D89004320332072E1FEF10F079
:1020700005C001F006C002F012000C6E7B0E0E6E61
:10208000000E0D6E0F0E0C6448EF10F04AEF10F0CA
:102090004BEF10F00C6A270E096451EF10F053EF6C
:1020A00010F054EF10F0096A0C50280DF3CF0AF02D
:1020B000F4CF0BF009500A26000E0B220D500A2413
:1020C0000D6E0E500B200E6E67EF10F000000E50DC
:1020D000056E240E066E0D50B1EC10F00009D8B458
:1020E00074EF10F076EF10F066EF10F01200026A55
:1020F000020E046EA6EF10F099689180919691926D
:10210000000087CF03F0918291860350030B036E8A
:10211000030E0318D8B48FEF10F091EF10F0A4EF76
:1021200010F0022A0C0E15EC12F0F90E02649BEF6F
:1021300010F09DEF10F0A6EF10F0F29E8B948B82C2
:102140008F80046AA6EF10F0010E046E020E0418D0
:10215000D8B4ADEF10F0AFEF10F07CEF10F00450FA
:102160001200076E086A77EC10F0E806D8A4BBEFFF
:1021700010F0BDEF10F0E5EF10F00C0E15EC12F0C2
:10218000075070EC12F077EC10F0E806D8A4CBEF13
:1021900010F0CDEF10F0E5EF10F00C0E15EC12F092
:1021A000055070EC12F077EC10F0E806D8A4DBEFE5
:1021B00010F0DDEF10F0E5EF10F00C0E15EC12F062
:1021C00006507CEC12F0010E086E08501200036EEF
:1021D00000019051D8B4EFEF10F0F1EF10F004EFE0
:1021E00011F0900703C001F0010E026E012AFBEF0F
:1021F00010F0D8900236012EF9EF10F002500001D5
:102200009313010E16EF11F0906B03C001F0010E55
:10221000026E012A0EEF11F0D8900236012E0CEF5B
:1022200011F0025000019213F284000E1200026EAF
:10223000046A0150D8B41FEF11F021EF11F042EF02
:1022400011F0010E036E28EF11F0D8900136032A29
:1022500001AE2DEF11F02FEF11F025EF11F0D89016
:1022600004360150025CD8A038EF11F03AEF11F0BB
:102270003DEF11F00150025E0480D8900132032E30
:102280002FEF11F004501200066E076A77EC10F081
:10229000E806D8A44EEF11F050EF11F068EF11F0FE
:1022A0000C0E15EC12F0065070EC12F077EC10F0FA
:1022B000E806D8A45EEF11F060EF11F068EF11F0BE
:1022C0000C0E15EC12F005507CEC12F0010E076EAE
:1022D00007501200026EC16A160EC06E02501F0B2C
:1022E000026E0244E846FC0B026E02500109C26E07
:1022F000C282C2B27EEF11F080EF11F079EF11F0DF
:10230000C3A085EF11F087EF11F08AEF11F0016A99
:102310008CEF11F0C4CF01F001501200000E056ED9
:10232000240E066E000EB1EC10F0000E0A6E000EC8
:10233000096EC00E056E000E44EC11F0094A0A2A1F
:10234000800E0A180910D8A4A8EF11F0AAEF11F016
:1023500099EF11F01200800E056E240E066E000E2D
:10236000B1EC10F0800E0A6E000E096EC00E056E04
:10237000000E44EC11F0094A0A2AF80E0A18091056
:10238000D8A4C5EF11F0C7EF11F0B6EF11F01200AD
:10239000996891809196919200000000000087CF8B
:1023A00001F0918291860150030B030AD8A4DBEF60
:1023B00011F0DDEF11F0E1EF11F0010E016EE2EF2F
:1023C00011F0016A01501200A00E0F01266F256B5B
:1023D000246B236B258125832585258724852487E8
:1023E0008B848B828F8094949492989098969898EE
:1023F00095949596F19E538D1200026E7F9E7F9C60
:1024000002C062FF01C061FF7F84F29E550E7E6EA6
:10241000AA0E7E6E7F82F28E7F947FB212EF12F050
:1024200014EF12F00DEF12F01200016E23EF12F014
:10243000000000000000000000000000000000009C
:102440000000000001060150D8A429EF12F02BEF84
:1024500012F018EF12F0120034EF12F0000000003A
:1024600000000106D8A0020601500210D8A43BEFDC
:1024700012F03DEF12F02EEF12F01200056E77EC25
:1024800010F0E806D8A447EF12F049EF12F04FEF32
:1024900012F00C0E15EC12F005507CEC12F012004C
:1024A000949C948E080E656E040ED46EE10EAF6E91
:1024B000040EAC6E800EAB6E240EAC6E900EAB6E46
:1024C0001200E4EC11F084EC0AF0010E88EC12F03A
:1024D000D58EF284F28E00006BEF12F0D7EF01F090
:1024E000016E01C090FF996A9190919691940000BD
:1024F0000000918491861200016E01C090FF996ADC
:102500009180919691940000000091849186120030
:102510000001946F94C090F094C091F00001926B10
:10252000936B1200346A336A326A35903592000137
:1025300061EF12F0016E7F9E7F9C01C062FF7F8081
:0425400061501200D4
:020000040020DA
:08000000FFFFFFFFFFFFFFFF00
:020000040030CA
:0E00000015136100308081FFFFC0FFE0FF405C
:00000001FF
