:04000000ABEF01F071
:10000800E1CF32F0E2CF33F0D9CF34F0DACF35F0A8
:10001800F3CF36F0F4CF37F0F6CF38F0F7CF39F02A
:10002800F8CF3AF0F5CF3BF01AEEACF0D8CF61F04C
:100038000001606FE0CF62F0EACF63F0E9CF64F0CF
:10004800F2AA29EF00F02BEF00F07FEF01F0F2A405
:1000580030EF00F032EF00F07FEF01F06505D8A433
:1000680038EF00F03AEF00F03EEF00F01B0EFC6EA8
:10007800000E656F6FC0EAFF000EE96E60C0EEFF0C
:1000880061C0EEFF62C0EEFFFCCFEEFF63C0EEFF83
:1000980064C0EEFFE2CFEEFFE1CFEEFFDACFEEFF76
:1000A800D9CFEEFFF4CFEEFFF3CFEEFFF8CFEEFFA0
:1000B800F7CFEEFFF6CFEEFFF5CFEEFFFBCFEEFF6B
:1000C800FACFEEFF000EE26E000EE16EE6CFEEFF15
:1000D800E6CFEEFFE6CFEEFFE6CFEEFFE6CFEEFF90
:1000E800E6CFEEFFE6CFEEFFE6CFEEFFE6CFEEFF80
:1000F800E6CFEEFFE6CFEEFFE6CFEEFFE6CFEEFF70
:10010800E6CFEEFFE6CFEEFFE6CFEEFFE6CFEEFF5F
:10011800E6CFEEFFE6CFEEFFE6CFEEFFE6CFEEFF4F
:10012800E6CFEEFFE6CFEEFFE6CFEEFFE6CFEEFF3F
:10013800E6CFEEFFE6CFEEFFE6CFEEFFE6CFEEFF2F
:10014800E6CFEEFFE6CFEEFFE6CFEEFFE6CFEEFF1F
:10015800E6CFEEFFE6CFEEFFE6CFEEFFE6CFEEFF0F
:10016800E6CFEEFFE6CFEEFFE6CFEEFFE6CFEEFFFF
:10017800E6CFEEFFE6CFEEFFE6CFEEFFE6CFEEFFEF
:10018800E6CFEEFFE6CFEEFFE6CFEEFF8A0ED76EA4
:10019800CF0ED66EF294714B722B702B060E70191F
:1001A800D8A4D9EF00F0DBEF00F0DDEF00F0000E8F
:1001B800706F690E7025D96EDA6A000EDA22DF5088
:1001C8006F6F000EE26E000EE16E6FC0EAFF120E56
:1001D800E96EEECFE6FFEECFE6FFEECFE6FFEECF1D
:1001E800E6FFEECFE6FFEECFE6FFEECFE6FFEECF7F
:1001F800E6FFEECFE6FFEECFE6FFEECFE6FFEECF6F
:10020800E6FFEECFE6FFEECFE6FFEECFE6FFEECF5E
:10021800E6FFEECFE6FFEECFE6FFEECFE6FFEECF4E
:10022800E6FFEECFE6FFEECFE6FFEECFE6FFEECF3E
:10023800E6FFEECFE6FFEECFE6FFEECFE6FFEECF2E
:10024800E6FFEECFE6FFEECFE6FFEECFE6FFEECF1E
:10025800E6FFEECFE6FFEECFE6FFEECFE6FFEECF0E
:10026800E6FFEECFE6FFEECFE6FFEECFE6FFEECFFE
:10027800E6FFEECFE6FFEECFE6FFEECFE6FFEECFEE
:10028800E6FFEECFE6FFEECFE6FFEECFE6FFEECFDE
:10029800E6FF6FC0EAFF000EE96EEECF60F0EECF2A
:1002A80061F0EECF62F0EECFFCFFEECF63F0EECF61
:1002B80064F0EECFE2FFEECFE1FFEECFDAFFEECF54
:1002C800D9FFEECFF4FFEECFF3FFEECFF8FFEECF7E
:1002D800F7FFEECFF6FFEECFF5FFEECFFBFFEECF49
:1002E800FAFF64C0E9FF63C0EAFF62C0E0FF605143
:1002F80061C0D8FF100064C0E9FF63C0EAFF62C0B4
:10030800E0FF0001605161C0D8FF100046EC08F022
:10031800BCEC0CF008EC0CF057EC0DF0F3EC0AF028
:10032800F8EC11F03BC0F5FF3AC0F8FF39C0F7FF11
:1003380038C0F6FF37C0F4FF36C0F3FF35C0DAFF28
:1003480034C0D9FF33C0E2FF32C0E1FF110016EE1E
:0603580042F0C4EF12F0B8
:101000000020415543554E20202020202020202024
:1010100020202020200054656D702E204875696CBA
:10102000653A00582D4A6F79737469636B3A0059B9
:101030002D4A6F79737469636B3A0054656D702E35
:10104000204561753A0042617474657269653A00C1
:10105000566974657373653A004D61726368653AE9
:101060000042616467653A0053696567653A002824
:10107000282129290043686F633A0020793D004EFA
:101080002000783D0041520041560000F29EEFECF6
:101090000DF057EC12F074EC12F00CEC13F0020EA1
:1010A00019EC12F0010E0001806F520EAD6EF28E3F
:1010B0008B948B928F90000E736F780E746F000E6E
:1010C0007F6F220E296E0D0E3CEC10F0520E5FEC7D
:1010D00011F0200E5FEC11F0560E5FEC11F0200EB7
:1010E0005FEC11F0420E5FEC11F0220E296E0E0E35
:1010F0003CEC10F0300E5FEC11F0200E5FEC11F0C4
:10110000300E5FEC11F0200E5FEC11F0300E5FEC52
:1011100011F0220E296E0F0E3CEC10F0310E5FEC38
:1011200011F0200E5FEC11F0310E5FEC11F0200E8B
:101130005FEC11F0310E5FEC11F0000E0001666FF4
:10114000000E296E000E3CEC10F0590E286EEEECED
:1011500010F081B0AEEF08F0B0EF08F0B6EF08F095
:10116000880E286EEEEC10F0C7EF08F081B2BBEFEE
:1011700008F0BDEF08F0C3EF08F0850E286EEEEC26
:1011800010F0C7EF08F07F0E286EEEEC10F0000EA6
:10119000296E010E3CEC10F0680E286EEEEC10F09B
:1011A00081B4D5EF08F0D7EF08F0DCEF08F0310E8E
:1011B0005FEC11F0DFEF08F0300E5FEC11F0000E85
:1011C000296E020E3CEC10F03B0E286EEEEC10F097
:1011D000020EAFEC11F0F4EC0FF0000E296E030ECE
:1011E0003CEC10F0160E286EEEEC10F0030EAFEC97
:1011F00011F0F4EC0FF0000E296E040E3CEC10F030
:10120000750E286EEEEC10F081B609EF09F00BEFC9
:1012100009F010EF09F0310E5FEC11F013EF09F057
:10122000300E5FEC11F0000E296E050E3CEC10F054
:10123000500E286EEEEC10F084B021EF09F023EF91
:1012400009F025EF09F00001732B84B22AEF09F0B1
:101250002CEF09F02EEF09F0000173070001735124
:10126000F4EC0FF0000E296E060E3CEC10F0460E6A
:10127000286EEEEC10F084B440EF09F042EF09F074
:1012800044EF09F00001742B84B649EF09F04BEFED
:1012900009F04DEF09F00001740700017451F4ECFE
:1012A0000FF0000E296E070E3CEC10F084B85BEFD7
:1012B00009F05DEF09F063EF09F06F0E286EEEECB8
:1012C00010F067EF09F0100E286EEEEC10F0000E33
:1012D000296E080E3CEC10F0610E286EEEEC10F05A
:1012E00000017F51D8A477EF09F079EF09F07FEF83
:1012F00009F0010E286EEEEC10F097EF09F0000EE9
:101300002F6E8DEF09F0750E2F24D96EDA6A000E5C
:10131000DA22DF50F4EC0FF02F2A00017F512F5C0E
:10132000D8A095EF09F097EF09F083EF09F0000ED0
:10133000296E090E3CEC10F0230E286EEEEC10F036
:101340000A0EAFEC11F0F4EC0FF0000E296E0A0E4D
:101350003CEC10F02F0E286EEEEC10F00B0EAFEC04
:1013600011F0F4EC0FF000016605D8A4BAEF09F013
:10137000BCEF09F0D9EF09F0140E296E000E3CEC19
:1013800010F0820E286EEEEC10F000016751F4ECC4
:101390000FF07B0E286EEEEC10F000016851F4ECBB
:1013A0000FF068C029F000016751D1EC0EF0A0EFFA
:1013B00008F00000A0EF08F01200010E0001656FB8
:1013C000010E696F020E6A6F030E6B6F040E6C6F75
:1013D000050E6D6F060E6E6F050E706F690E70252F
:1013E000D96EDA6A000EDA22DF506F6FFCCF81F01F
:1013F000020EFC6E8C0E486E100E496E000E4A6E88
:1014000048C04DF049C04EF04D0E4B6E4C6A4BC07B
:10141000D9FF4CC0DAFFDF50FD6E4B4A4C2A4BC05F
:10142000D9FF4CC0DAFFDF50FE6E4B4A4C2A4BC04E
:10143000D9FF4CC0DAFFDF50FF6E070EFC6E780E4E
:10144000486E190E496E000E4A6E48C04DF049C0F4
:101450004EF04D0E4B6E4C6A4BC0D9FF4CC0DAFFBC
:10146000DF50FD6E4B4A4C2A4BC0D9FF4CC0DAFF0F
:10147000DF50FE6E4B4A4C2A4BC0D9FF4CC0DAFFFE
:10148000DF50FF6E0C0EFC6E100E486E180E496E8B
:10149000000E4A6E48C04DF049C04EF04D0E4B6EE6
:1014A0004C6A4BC0D9FF4CC0DAFFDF50FD6E4B4A8F
:1014B0004C2A4BC0D9FF4CC0DAFFDF50FE6E4B4ABE
:1014C0004C2A4BC0D9FF4CC0DAFFDF50FF6E110E23
:1014D000FC6EAE0E486E1A0E496E000E4A6E48C083
:1014E0004DF049C04EF04D0E4B6E4C6A4BC0D9FFCB
:1014F0004CC0DAFFDF50FD6E4B4A4C2A4BC0D9FF7F
:101500004CC0DAFFDF50FE6E4B4A4C2A4BC0D9FF6D
:101510004CC0DAFFDF50FF6E160EFC6EE60E486E12
:10152000150E496E000E4A6E48C04DF049C04EF08F
:101530004D0E4B6E4C6A4BC0D9FF4CC0DAFFDF50EA
:10154000FD6E4B4A4C2A4BC0D9FF4CC0DAFFDF502E
:10155000FE6E4B4A4C2A4BC0D9FF4CC0DAFFDF501D
:10156000FF6E1B0EFC6EF00E486E230E496E000ED1
:101570004A6E48C04DF049C04EF04D0E4B6E4C6A5D
:101580004BC0D9FF4CC0DAFFDF50FD6E4B4A4C2AEE
:101590004BC0D9FF4CC0DAFFDF50FE6E4B4A4C2ADD
:1015A0004BC0D9FF4CC0DAFFDF50FF6E81C0FCFF9B
:1015B000020E0101036F070E0201036F0C0E0301FF
:1015C000036F110E0401036F160E0501036F1B0E4E
:1015D0000601036F000E0001726F000E716F010EA5
:1015E000D56EF28A12009EA8F8EF0AF0FAEF0AF020
:1015F000F3EF0AF0740EAD6EACA201EF0BF003EF47
:101600000BF0FCEF0AF09EA808EF0BF00AEF0BF0CE
:1016100003EF0BF0610EAD6EACA211EF0BF013EF08
:101620000BF00CEF0BF09EA818EF0BF01AEF0BF07D
:1016300013EF0BF0630EAD6EACA221EF0BF023EFB6
:101640000BF01CEF0BF09EA828EF0BF02AEF0BF02D
:1016500023EF0BF0680EAD6EACA231EF0BF033EF61
:101660000BF02CEF0BF09EA838EF0BF03AEF0BF0DD
:1016700033EF0BF0650EAD6EACA241EF0BF043EF14
:101680000BF03CEF0BF09EA848EF0BF04AEF0BF08D
:1016900043EF0BF0350EAD6EACA251EF0BF053EFF4
:1016A0000BF04CEF0BF09EA858EF0BF05AEF0BF03D
:1016B00053EF0BF05F0EAD6EACA261EF0BF063EF7A
:1016C0000BF05CEF0BF09EA868EF0BF06AEF0BF0ED
:1016D00063EF0BF0650EAD6EACA271EF0BF073EF24
:1016E0000BF06CEF0BF09EA878EF0BF07AEF0BF09D
:1016F00073EF0BF06E0EAD6EACA281EF0BF083EFCB
:101700000BF07CEF0BF09EA888EF0BF08AEF0BF04C
:1017100083EF0BF05F0EAD6EACA291EF0BF093EF89
:101720000BF08CEF0BF09EA898EF0BF09AEF0BF0FC
:1017300093EF0BF0630EAD6EACA2A1EF0BF0A3EF35
:101740000BF09CEF0BF09EA8A8EF0BF0AAEF0BF0AC
:10175000A3EF0BF06F0EAD6EACA2B1EF0BF0B3EFD9
:101760000BF0ACEF0BF09EA8B8EF0BF0BAEF0BF05C
:10177000B3EF0BF0750EAD6EACA2C1EF0BF0C3EF83
:101780000BF0BCEF0BF09EA8C8EF0BF0CAEF0BF00C
:10179000C3EF0BF0720EAD6EACA2D1EF0BF0D3EF36
:1017A0000BF0CCEF0BF09EA8D8EF0BF0DAEF0BF0BC
:1017B000D3EF0BF0730EAD6EACA2E1EF0BF0E3EFE5
:1017C0000BF0DCEF0BF0000E226E000E216E214AB2
:1017D000222AE80E215CFD0E2258D8A0F2EF0BF071
:1017E000F4EF0BF0E7EF0BF0000E226E000E216E0F
:1017F000214A222AE80E215CFD0E2258D8A003EFD0
:101800000CF005EF0CF0F8EF0BF0F3EF0AF012001C
:1018100000016605D8A40FEF0CF011EF0CF043EFB8
:101820000CF0CA0E676517EF0CF019EF0CF043EFE0
:101830000CF0D10E67611FEF0CF021EF0CF043EFBD
:101840000CF0700E686527EF0CF029EF0CF032EF0A
:101850000CF0790E68612FEF0CF031EF0CF032EFE5
:101860000CF08B84780E686538EF0CF03AEF0CF0D2
:1018700043EF0CF07F0E686140EF0CF042EF0CF08C
:1018800043EF0CF08B946605D8A449EF0CF04BEFB6
:101890000CF07DEF0CF0D60E676551EF0CF053EFB6
:1018A0000CF07DEF0CF0DD0E676159EF0CF05BEF93
:1018B0000CF07DEF0CF0700E686561EF0CF063EFDB
:1018C0000CF06CEF0CF0790E686169EF0CF06BEFC7
:1018D0000CF06CEF0CF08B82780E686572EF0CF0F8
:1018E00074EF0CF07DEF0CF07F0E68617AEF0CF076
:1018F0007CEF0CF07DEF0CF08B926605D8A483EFA3
:101900000CF085EF0CF008EF0CF0E20E67658BEF42
:101910000CF08DEF0CF008EF0CF0E90E676193EF1F
:101920000CF095EF0CF008EF0CF0700E68659BEF73
:101930000CF09DEF0CF0A6EF0CF0790E6861A3EFB0
:101940000CF0A5EF0CF0A6EF0CF08F80780E686518
:10195000ACEF0CF0AEEF0CF0B9EF0CF07F0E68615D
:10196000B4EF0CF0B6EF0CF0B9EF0CF08F9008EF7D
:101970000CF008EF0CF01200000E0001666F8F866D
:101980008F980B0E226EB80E216EE8EC12F0160E38
:10199000C06E010EC26E030EC26EC2B2D2EF0CF068
:1019A000D4EF0CF0CDEF0CF0C4CF2EF0C3CF2FF05E
:1019B0002FC028F00F0E2816D8B4E1EF0CF0E3EF9B
:1019C0000CF0E7EF0CF0000E2E6E000E2F6E090EDD
:1019D0002E64EDEF0CF0EFEF0CF0BCEF0CF08F96F7
:1019E0008F880B0E226EB80E216EE8EC12F0160EE8
:1019F000C06E050EC26E070EC26EC2B202EF0DF0CF
:101A000004EF0DF0FDEF0CF0C4CF30F0C3CF31F098
:101A100031C028F00F0E2816D8B411EF0DF013EFD7
:101A20000DF017EF0DF0000E306E000E316E130E3C
:101A300030641DEF0DF01FEF0DF0BCEF0CF02E50D9
:101A4000286E2F502A6E28C02BF03050286E31504F
:101A50002C6E28C02DF0B20E2A242A6EF30E2B20F5
:101A60002B6E9C0E2C242C6EE60E2D202D6E2AC083
:101A700021F02BC022F0000E246EF60E236EB4EC83
:101A800010F021500001676F2CC021F02DC022F012
:101A9000010E246E990E236EB4EC10F021507F08D5
:101AA0000001686F010E666FBFEF0CF0120081A499
:101AB0005CEF0DF05EEF0DF06BEF0DF000017F516C
:101AC000D8B465EF0DF067EF0DF06BEF0DF0010E80
:101AD000456E6DEF0DF0000E456E84B872EF0DF09F
:101AE00074EF0DF078EF0DF0000E4F6E7AEF0DF001
:101AF000010E4F6E4504D8A480EF0DF082EF0DF07B
:101B000097EF0DF04F50D8A488EF0DF08AEF0DF04D
:101B100097EF0DF081B08FEF0DF091EF0DF097EF93
:101B20000DF0000E446E010E436EB8EF0DF045044B
:101B3000D8A49DEF0DF09FEF0DF0B4EF0DF04F50D6
:101B4000D8A4A5EF0DF0A7EF0DF0B4EF0DF081B222
:101B5000ACEF0DF0AEEF0DF0B4EF0DF0000E446EF3
:101B6000020E436EB8EF0DF0000E446E000E436E91
:101B70000A0EAFEC11F0236E540E2360C2EF0DF08D
:101B8000C4EF0DF0CAEF0DF0000E406E020E3F6E76
:101B9000E0EF0DF00A0EAFEC11F0236EAC0E2364F3
:101BA000D4EF0DF0D6EF0DF0DCEF0DF0000E406E2F
:101BB000010E3F6EE0EF0DF0000E406E000E3F6E26
:101BC00081B2E5EF0DF0E7EF0DF0EBEF0DF0918E48
:101BD000919EE0EF0DF0919EE0EF0DF01200000EEF
:101BE000296E000E906E1F0E916E000E996E000E03
:101BF0009A6E919A918C9198040EADEC12F09188A6
:101C00000C0EADEC12F017EF0EF0292A0C0EADEC15
:101C100012F0C80E29640FEF0EF011EF0EF017EF5F
:101C20000EF08B828F808B94F29E15EF0EF03AECC3
:101C300012F00009D8B41FEF0EF021EF0EF005EFFF
:101C40000EF00F0E256E210E266E270E28EC11F0D9
:101C5000000E256E220E266E000E28EC11F0000EEE
:101C6000256E240E266E000E28EC11F07B0E256EDC
:101C7000400E266E000E28EC11F0000E256E410E6F
:101C8000266E280E28EC11F0800E256E420E266E70
:101C9000000E28EC11F0000E256E430E266E280E65
:101CA00028EC11F0800EFAEC12F09C0EFAEC12F017
:101CB000A00EFAEC12F0700E256E020E88EC11F0F8
:101CC000120095828C968C94000E226E640E216E0A
:101CD000D6EC12F08C86000E256E030E226EE80EF6
:101CE000216ED6EC12F0252A83A079EF0EF07BEF5F
:101CF0000EF07DEF0EF0410E256E400E256483EF51
:101D00000EF085EF0EF06DEF0EF083A08AEF0EF06F
:101D10008CEF0EF0CFEF0EF0000E266E000E286E48
:101D2000000E276E83A297EF0EF099EF0EF09CEF56
:101D30000EF028500109286E28502824286E000E25
:101D4000226E640E216ED6EC12F08C84010E226E8F
:101D5000F40E216ED6EC12F08C94010E226E900ED1
:101D6000216ED6EC12F0272A070E2764BAEF0EF088
:101D7000BCEF0EF092EF0EF026502324D96E000E29
:101D80002420DA6E28C0DFFF262A83B0CAEF0EF0C7
:101D9000CCEF0EF08EEF0EF02650D0EF0EF0000ECE
:101DA00012002E6E2EC021F0226A000E246E060E46
:101DB000236E3AEC0FF02950280DF3CF2AF0F4CF20
:101DC0002BF021502A242C6E22502B202D6E2D50CA
:101DD000256E240E266E2C5028EC11F00EEF0FF01D
:101DE000FD0EFAEC12F039EF0FF0FC0EFAEC12F0E7
:101DF00039EF0FF0FB0EFAEC12F039EF0FF0FA0E9C
:101E0000FAEC12F039EF0FF0F90EFAEC12F039EFAC
:101E10000FF0F80EFAEC12F039EF0FF02EC021F0AF
:101E2000226A000E246E060E236E9CEC0FF02250E8
:101E3000000AD8B41EEF0FF039EF0FF02150000A5E
:101E4000D8B4F0EF0EF0010AD8B4F5EF0EF0030AA3
:101E5000D8B4FAEF0EF0010AD8B4FFEF0EF0070A7B
:101E6000D8B404EF0FF0010AD8B409EF0FF039EF3E
:101E70000FF01200000E266E24BE43EF0FF041EF6C
:101E80000FF049EF0FF0236C241ED8B0242A010E66
:101E9000266E22BE50EF0FF04EEF0FF056EF0FF010
:101EA000216C221ED8B0222A010E261A000E286E9E
:101EB000000E276E23502410D8B461EF0FF063EFAB
:101EC0000FF08BEF0FF0010E256E6BEF0FF0D89037
:101ED00023362436252A24AE70EF0FF072EF0FF070
:101EE00067EF0FF0D890273628362350215C245016
:101EF0002258D8A07EEF0FF080EF0FF085EF0FF0A3
:101F00002350215E2450225A2780D8902432233235
:101F1000252E72EF0FF02650D8B491EF0FF093EF0B
:101F20000FF097EF0FF0276C281ED8B0282A27C093
:101F300021F028C022F01200000E266E22BEA5EF6E
:101F40000FF0A3EF0FF0ABEF0FF0216C221ED8B013
:101F5000222A010E266E24BEB2EF0FF0B0EF0FF072
:101F6000B6EF0FF0236C241ED8B0242A235024107F
:101F7000D8B4BDEF0FF0BFEF0FF0E3EF0FF0010E9D
:101F8000256EC7EF0FF0D89023362436252A24AECD
:101F9000CCEF0FF0CEEF0FF0C3EF0FF02350215C2A
:101FA00024502258D8A0D7EF0FF0D9EF0FF0DDEF73
:101FB0000FF02350215E2450225AD890243223322D
:101FC000252ECEEF0FF02650D8B4E9EF0FF0EBEF4F
:101FD0000FF0EFEF0FF0216C221ED8B0222A21C0A3
:101FE00021F022C022F01200286E28380F0B296E33
:101FF000090E2964FEEF0FF000EF10F005EF10F06E
:102000002950170F296E0BEF10F02950100F296E71
:102010000BEF10F00000C00E256E295088EC11F077
:102020000009D8B416EF10F018EF10F00AEF10F016
:1020300028500F0B296E090E296421EF10F023EFB1
:1020400010F028EF10F02950170F296E2EEF10F026
:102050002950100F296E2EEF10F00000C00E256ED3
:10206000295088EC11F00009D8B439EF10F03BEF9B
:1020700010F02DEF10F012002C6E7B0E2E6E000E65
:102080002D6E0F0E2C6447EF10F049EF10F04BEF60
:1020900010F0000E2C6E270E296451EF10F053EF54
:1020A00010F055EF10F0000E296E2C50280DF3CFD4
:1020B0002AF0F4CF2BF029502A26000E2B222D5087
:1020C0002A242D6E2E502B202E6E68EF10F000006B
:1020D0002E50256E240E266E2D5028EC11F000098E
:1020E000D8B475EF10F077EF10F067EF10F0120032
:1020F000000E226E020E246EA9EF10F099689180F6
:1021000091969192000087CF23F09182918623507F
:10211000030B236E030E2318D8B491EF10F093EF46
:1021200010F0A7EF10F0222A0C0EADEC12F0F90E11
:1021300022649DEF10F09FEF10F0A9EF10F0F29ED7
:102140008B948B828F80000E246EA9EF10F0010E0D
:10215000246E020E2418D8B4B0EF10F0B2EF10F0D5
:102160007EEF10F024501200000E266E000E256E39
:1021700023502410D8B4BFEF10F0C1EF10F0E9EFF6
:1021800010F0010E276EC9EF10F0D89023362436D8
:10219000272A24AECEEF10F0D0EF10F0C5EF10F0EC
:1021A000D890253626362350215C24502258D8A0BA
:1021B000DCEF10F0DEEF10F0E3EF10F02350215EC3
:1021C0002450225A2580D89024322332272ED0EF53
:1021D00010F025C021F026C022F0120007EF11F008
:1021E0000000C00E256E28C0F6FF100EF76E000E20
:1021F000F86E0800F550E00F88EC11F00009D8B433
:1022000004EF11F006EF11F0F0EF10F0282A28C0CB
:10221000F6FF100EF76E000EF86E0800F55000097C
:10222000D8B415EF11F017EF11F027EF11F028C017
:10223000F6FF100EF76E000EF86E0800F55000095C
:10224000D8A425EF11F027EF11F0F1EF10F01200F4
:10225000276E000E286E78EC10F0E806D8A433EF55
:1022600011F035EF11F05DEF11F00C0EADEC12F046
:1022700027502CEC13F078EC10F0E806D8A443EFCC
:1022800011F045EF11F05DEF11F00C0EADEC12F016
:1022900025502CEC13F078EC10F0E806D8A453EF9E
:1022A00011F055EF11F05DEF11F00C0EADEC12F0E6
:1022B000265039EC13F0010E286E28501200286EBB
:1022C000200E286066EF11F068EF11F06AEF11F050
:1022D0003F0E286E9F0E286470EF11F072EF11F020
:1022E00074EF11F03F0E286E2850E00F286E7AEF41
:1022F00011F00000C00E256E285088EC11F0000986
:10230000D8B485EF11F087EF11F079EF11F01200DA
:10231000266E000E276E78EC10F0E806D8A493EF36
:1023200011F095EF11F0ADEF11F00C0EADEC12F0D5
:1023300026502CEC13F078EC10F0E806D8A4A3EFAC
:1023400011F0A5EF11F0ADEF11F00C0EADEC12F0A5
:10235000255039EC13F0010E276E27501200226E23
:10236000000EC16E160EC06E22501F0B226E22444C
:10237000E846FC0B226E22500109C26EC282C2B234
:10238000C4EF11F0C6EF11F0BFEF11F0C3A0CBEF17
:1023900011F0CDEF11F0D1EF11F0000E216ED3EF5F
:1023A00011F0C4CF21F0215012000001836FE1EF42
:1023B00011F0010E476EF7EF11F0010E466EF7EFC8
:1023C00011F000018351816F826B8251000AD8B4F1
:1023D000ECEF11F0F7EF11F08151010AD8B4D9EF09
:1023E00011F0030AD8B4DDEF11F0F7EF11F012008D
:1023F000750E236E000E246E61EC0EF0296E2950CE
:10240000D8B405EF12F007EF12F013EF12F00A0E36
:1024100029600DEF12F00FEF12F013EF12F029C048
:102420007FF0F8EF11F0000E00017F6FF8EF11F070
:102430001200236E24EF12F0010E476E39EF12F0F6
:10244000010E466E39EF12F02350216E226A22509F
:10245000000AD8B42EEF12F039EF12F02150010A21
:10246000D8B41CEF12F0030AD8B420EF12F039EF01
:1024700012F01200996891809196919200000000EC
:10248000000087CF21F0918291862150030B030A2F
:10249000D8A44DEF12F04FEF12F053EF12F0010EEF
:1024A000216E55EF12F0000E216E21501200000E29
:1024B000256E240E266E000E28EC11F0000E2A6EFA
:1024C000000E296EC00E256E000E88EC11F0294A10
:1024D0002A2A800E2A182910D8A471EF12F073EF5F
:1024E00012F062EF12F01200800E256E240E266E9E
:1024F000000E28EC11F0800E2A6E000E296EC00E20
:10250000256E000E88EC11F0294A2A2AF80E2A18A6
:102510002910D8A48EEF12F090EF12F07FEF12F096
:102520001200A00E0F01266F000E256F000E246F03
:10253000000E236F25812583258525872485248703
:102540008B848B828F80949494929890989698988C
:1025500095949596F19E538D1200216EBBEF12F06B
:10256000000000000000000000000000000000006B
:102570000000000021062150D8A4C1EF12F0C3EFE3
:1025800012F0B0EF12F012008C0EF66E260EF76EFF
:10259000000EF86E0900F5CF4FF000EE3CF00C0E87
:1025A000EE6AE806FDE100011DEF13F0DEEF12F028
:1025B0000000000000002106D8A0220621502210B1
:1025C000D8A4E5EF12F0E7EF12F0D8EF12F0120006
:1025D000F0EF12F00000000000002106D8A0220653
:1025E00021502210D8A4F7EF12F0F9EF12F0EAEF21
:1025F00012F01200256E78EC10F0E806D8A403EF74
:1026000013F005EF13F00BEF13F00C0EADEC12F01E
:10261000255039EC13F01200949C948E080E656ED0
:10262000040ED46EE10EAF6E040EAC6E800EAB6E77
:10263000240EAC6E900EAB6E120091EC12F0DDEC3D
:1026400009F0010ED5EC11F0D58EF284F28E000067
:1026500027EF13F0ABEF01F0216E21C090FF000EC9
:10266000996E9190919691940000000091849186CA
:102670001200216E21C090FF000E996E91809196FC
:0D26800091940000000091849186120001E9
:020000040020DA
:08000000FFFFFFFFFFFFFFFF00
:020000040030CA
:0E00000015136100308081FFFFC0FFE0FF405C
:00000001FF
