:04000000CEEF01F04E
:100008003782D9CF28F0DACF29F0F3CF2AF0F4CF0E
:100018002BF0D8CF61F00001606FE0CF62F0EACF3B
:1000280063F0E9CF64F0F2AA1CEF00F01EEF00F0D5
:10003800ADEF01F0F2A423EF00F025EF00F0ADEFF3
:1000480001F06505D8A42BEF00F02DEF00F030EF9C
:1000580000F01B0EFC6E656B6FC0EAFFE96A60C0BA
:10006800EEFF61C0EEFF62C0EEFFFCCFEEFF63C0A3
:10007800EEFF64C0EEFFE2CFEEFFE1CFEEFFDACF96
:10008800EEFFD9CFEEFFF4CFEEFFF3CFEEFFF8CFC0
:10009800EEFFF7CFEEFFF6CFEEFFF5CFEEFFFBCF8B
:1000A800EEFFFACFEEFFE26AE16AE6CFEEFFE6CFB7
:1000B800EEFFE6CFEEFFE6CFEEFFE6CFEEFFE6CFB0
:1000C800EEFFE6CFEEFFE6CFEEFFE6CFEEFFE6CFA0
:1000D800EEFFE6CFEEFFE6CFEEFFE6CFEEFFE6CF90
:1000E800EEFFE6CFEEFFE6CFEEFFE6CFEEFFE6CF80
:1000F800EEFFE6CFEEFFE6CFEEFFE6CFEEFFE6CF70
:10010800EEFFE6CFEEFFE6CFEEFFE6CFEEFFE6CF5F
:10011800EEFFE6CFEEFFE6CFEEFFE6CFEEFFE6CF4F
:10012800EEFFE6CFEEFFE6CFEEFFE6CFEEFFE6CF3F
:10013800EEFFE6CFEEFFE6CFEEFFE6CFEEFFE6CF2F
:10014800EEFFE6CFEEFFE6CFEEFFE6CFEEFFE6CF1F
:10015800EEFFE6CFEEFFE6CFEEFFE6CFEEFFE6CF0F
:10016800EEFFE6CFEEFFE6CFEEFF8A0ED76ECF0E9C
:10017800D66EF294714B722B8505D8A4C6EF00F0A9
:10018800C8EF00F0C9EF00F0856B8605D8A4CFEF63
:1001980000F0D1EF00F0D2EF00F0866B05016905A1
:1001A800D8A4D9EF00F0DBEF00F0DCEF00F0696BCA
:1001B8000001702B060E7019D8A4E5EF00F0E7EFE8
:1001C80000F0E8EF00F0706B7051690FD96EDA6AD1
:1001D800DF506F6F6FC026F0010E276E262AF7EFEB
:1001E80000F0D8902736262EF5EF00F027500001B2
:1001F80092150009D8B403EF01F005EF01F016EFEE
:1002080001F0702B060E7019D8A40DEF01F00FEF56
:1002180001F010EF01F0706B7051690FD96EDA6A56
:10022800DF506F6FE26AE16A6FC0EAFF120EE96E93
:10023800EECFE6FFEECFE6FFEECFE6FFEECFE6FF2E
:10024800EECFE6FFEECFE6FFEECFE6FFEECFE6FF1E
:10025800EECFE6FFEECFE6FFEECFE6FFEECFE6FF0E
:10026800EECFE6FFEECFE6FFEECFE6FFEECFE6FFFE
:10027800EECFE6FFEECFE6FFEECFE6FFEECFE6FFEE
:10028800EECFE6FFEECFE6FFEECFE6FFEECFE6FFDE
:10029800EECFE6FFEECFE6FFEECFE6FFEECFE6FFCE
:1002A800EECFE6FFEECFE6FFEECFE6FFEECFE6FFBE
:1002B800EECFE6FFEECFE6FFEECFE6FFEECFE6FFAE
:1002C800EECFE6FFEECFE6FFEECFE6FFEECFE6FF9E
:1002D800EECFE6FFEECFE6FFEECFE6FFEECFE6FF8E
:1002E800EECFE6FFEECFE6FFEECFE6FFEECFE6FF7E
:1002F8006FC0EAFFE96AEECF60F0EECF61F0EECFB3
:1003080062F0EECFFCFFEECF63F0EECF64F0EECFFD
:10031800E2FFEECFE1FFEECFDAFFEECFD9FFEECF6F
:10032800F4FFEECFF3FFEECFF8FFEECFF7FFEECFFF
:10033800F6FFEECFF5FFEECFFBFFEECFFAFF64C07E
:10034800E9FF63C0EAFF62C0E0FF605161C0D8FF07
:10035800100064C0E9FF63C0EAFF62C0E0FF00016B
:10036800605161C0D8FF100068EC09F075EC0BF023
:1003780063EC0CF0CBEC0FF041EC0DF001EC08F065
:100388002BC0F4FF2AC0F3FF29C0DAFF28C0D9FF29
:080398003792110095EF12F0FD
:101000000000060E156E0001856B8551D8A40BEF0C
:1010100008F00DEF08F005EF08F01550F1EC10F0B6
:101020000009D8B416EF08F018EF08F00DEF08F03B
:1010300000017F51D8A41FEF08F021EF08F023EF43
:1010400008F023EF08F0000E84B8010E0D6E000EBC
:1010500081B6010E0E6E000E81B4010E0F6E0EC031
:1010600006F0010E06160DC007F0010E0716D89007
:101070000734086E0FC009F0010E0916D890093622
:10108000D89009340810061008090A6E81B04BEF99
:1010900008F04DEF08F051EF08F0010E106E5DEF13
:1010A00008F081B256EF08F058EF08F05CEF08F056
:1010B000020E106E5DEF08F0106A73C00BF082C074
:1010C00016F081C017F074C00CF0FC0E16646BEFC4
:1010D00008F06DEF08F06FEF08F0FD0E166EFC0ED5
:1010E000176475EF08F077EF08F079EF08F0FD0E60
:1010F000176E530E83617FEF08F081EF08F085EFE4
:1011000008F0020E116E92EF08F0AD0E83658BEFC2
:1011100008F08DEF08F091EF08F0010E116E92EFDC
:1011200008F0116A530E846198EF08F09AEF08F006
:101130009EEF08F0010E126EABEF08F0AD0E846565
:10114000A4EF08F0A6EF08F0AAEF08F0020E126E66
:10115000ABEF08F0126A9EA8B0EF08F0B2EF08F00B
:10116000ABEF08F0FE0EAD6EACA2B9EF08F0BBEF2E
:1011700008F0B4EF08F09EA8C0EF08F0C2EF08F046
:10118000BBEF08F00AC0ADFFACA2C9EF08F0CBEF8F
:1011900008F0C4EF08F09EA8D0EF08F0D2EF08F0F6
:1011A000CBEF08F010C0ADFFACA2D9EF08F0DBEF39
:1011B00008F0D4EF08F09EA8E0EF08F0E2EF08F0A6
:1011C000DBEF08F011C0ADFFACA2E9EF08F0EBEFE8
:1011D00008F0E4EF08F09EA8F0EF08F0F2EF08F056
:1011E000EBEF08F012C0ADFFACA2F9EF08F0FBEF97
:1011F00008F0F4EF08F09EA800EF09F002EF09F004
:10120000FBEF08F00BC0ADFFACA209EF09F00BEF4C
:1012100009F004EF09F09EA810EF09F012EF09F0B1
:101220000BEF09F016C0ADFFACA219EF09F01BEFF0
:1012300009F014EF09F09EA820EF09F022EF09F061
:101240001BEF09F017C0ADFFACA229EF09F02BEF9F
:1012500009F024EF09F09EA830EF09F032EF09F011
:101260002BEF09F00CC0ADFFACA239EF09F03BEF5A
:1012700009F034EF09F09EA840EF09F042EF09F0C1
:101280003BEF09F0AD68ACA248EF09F04AEF09F076
:1012900043EF09F0000E146E000E136E134A142A69
:1012A00014BE5CEF09F0E80E135C030E1458D8A0CE
:1012B0005CEF09F05EEF09F04EEF09F0155076ECA7
:1012C0000FF0010E0001856FF28405EF08F01200A7
:1012D000010E0C6E010E0D6E010E0E6E010E0B6EE8
:1012E000F29EDDEC0DF098EC11F0B5EC11F05DEC38
:1012F00012F0010E0001806F520EAD6EF28E8B94D3
:101300008B928F90866B8651D8A489EF09F08BEF72
:1013100009F083EF09F00C50F1EC10F00009D8B49B
:1013200094EF09F096EF09F08BEF09F00A0E74ECD8
:1013300011F00001836F0B0E74EC11F00001846F4B
:10134000030E74EC11F00001816F020E74EC11F0C9
:101350000001826F84B0AFEF09F0B1EF09F0D1EF77
:1013600009F00D04D8A4B7EF09F0B9EF09F0D1EFF7
:1013700009F00D6A060E7361C0EF09F0C2EF09F0C3
:10138000C5EF09F0732BE2EF09F0050E7365CBEFA3
:1013900009F0CDEF09F0E2EF09F0060E736FE2EF0E
:1013A00009F084A0D6EF09F0D8EF09F0E2EF09F0D8
:1013B0000D50D8A4DEEF09F0E0EF09F0E2EF09F0FC
:1013C000010E0D6E84B2E7EF09F0E9EF09F0FDEFD1
:1013D00009F00E04D8A4EFEF09F0F1EF09F0FDEFEA
:1013E00009F00E6A7351D8B4F8EF09F0FAEF09F07A
:1013F0000EEF0AF073070EEF0AF084A202EF0AF074
:1014000004EF0AF00EEF0AF00E50D8A40AEF0AF02B
:101410000CEF0AF00EEF0AF0010E0E6E01015251B0
:10142000D8A415EF0AF017EF0AF047EF0AF053516E
:10143000D8A41DEF0AF01FEF0AF047EF0AF054514D
:10144000D8A425EF0AF027EF0AF047EF0AF0505131
:10145000D8A42DEF0AF02FEF0AF047EF0AF0515110
:10146000D8A435EF0AF037EF0AF047EF0AF05651EB
:10147000D8A43DEF0AF03FEF0AF047EF0AF05551CC
:10148000D8B445EF0AF047EF0AF049EF0AF000013F
:10149000736B84B44EEF0AF050EF0AF060EF0AF07D
:1014A00000017451D8A457EF0AF059EF0AF060EF29
:1014B0000AF0640E746F270E0501716F100E706FC5
:1014C000750E036E4BEC0EF00F6E0F50D8B46BEF31
:1014D0000AF06DEF0AF079EF0AF00A0E0F6073EF71
:1014E0000AF075EF0AF079EF0AF00FC07FF07BEF9A
:1014F0000AF000017F6B0C5076EC0FF0010E00013A
:10150000866FF28483EF09F01200010E0001656F0F
:10151000010E696F020E6A6F030E6B6F040E6C6F23
:10152000050E6D6F060E6E6F050E706F7051690FB0
:10153000D96EDA6ADF506F6FFCCF94F0020EFC6E4A
:10154000D00E2C6E120E2D6E000E2E6E2CC030F0B2
:101550002DC031F0300E2F6E2F50D96EDA6ADF5069
:10156000FD6E2F2A2F50D96EDA6ADF50FE6E2F2AB9
:101570002F50D96EDA6ADF50FF6E070EFC6EEA0E4E
:101580002C6E160E2D6E000E2E6E2CC030F02DC05F
:1015900031F0300E2F6E2F50D96EDA6ADF50FD6EAB
:1015A0002F2A2F50D96EDA6ADF50FE6E2F2A2F5065
:1015B000D96EDA6ADF50FF6E0C0EFC6EC60E2C6E12
:1015C000180E2D6E000E2E6E2CC030F02DC031F096
:1015D000300E2F6E2F50D96EDA6ADF50FD6E2F2A33
:1015E0002F50D96EDA6ADF50FE6E2F2A2F50D96E37
:1015F000DA6ADF50FF6E110EFC6E960E2C6E1F0E17
:101600002D6E000E2E6E2CC030F02DC031F0300E3D
:101610002F6E2F50D96EDA6ADF50FD6E2F2A2F50B1
:10162000D96EDA6ADF50FE6E2F2A2F50D96EDA6A31
:10163000DF50FF6E160EFC6E820E2C6E1A0E2D6E93
:10164000000E2E6E2CC030F02DC031F0300E2F6EFB
:101650002F50D96EDA6ADF50FD6E2F2A2F50D96EC7
:10166000DA6ADF50FE6E2F2A2F50D96EDA6ADF5009
:10167000FF6E1B0EFC6E020E2C6E100E2D6E000EF9
:101680002E6E2CC030F02DC031F0300E2F6E2F504A
:10169000D96EDA6ADF50FD6E2F2A2F50D96EDA6AC2
:1016A000DF50FE6E2F2A2F50D96EDA6ADF50FF6EA0
:1016B00094C0FCFF020E0101036F070E0201036FCD
:1016C0000C0E0301036F110E0401036F160E0501CA
:1016D000036F1B0E0601036F000E0001726F000EF8
:1016E000716F010ED56EF28A12000101546B556BB9
:1016F000516B566B526B506B536B84B882EF0BF08F
:1017000085EF0BF0010E86EF0BF0000EFF0A010BC8
:101710000101506F00017F51D8A491EF0BF093EFBE
:101720000BF098EF0BF0010E0101516F9AEF0BF0E7
:101730000101516B780E00018265A1EF0BF0A3EF60
:101740000BF0A8EF0BF0010E0101526FAAEF0BF0A6
:101750000101526B780E00018165B1EF0BF0B3EF20
:101760000BF0B8EF0BF0010E0101536FBAEF0BF065
:101770000101536B0F0E00017461C1EF0BF0C3EF59
:101780000BF0C8EF0BF0010E0101546FCAEF0BF024
:101790000101546B81B4CFEF0BF0D2EF0BF0010ECF
:1017A000D3EF0BF0000EFF0A010B566F81B6DBEF93
:1017B0000BF0DEEF0BF0010EDFEF0BF0000EFF0A77
:1017C000026E02A0E6EF0BF0E8EF0BF0EAEF0BF091
:1017D000010E556F5251D8A4F0EF0BF0F2EF0BF061
:1017E00002EF0CF05351D8A4F8EF0BF0FAEF0BF026
:1017F00002EF0CF05451D8B400EF0CF002EF0CF0F3
:101800000CEF0CF08F80918EA00E22EC12F08F90D6
:10181000919EA00E22EC12F001015051D8B413EFAA
:101820000CF015EF0CF01DEF0CF0918E400E22EC39
:1018300012F0919E400E22EC12F001015151D8A4F9
:1018400024EF0CF026EF0CF02EEF0CF05651D8B42C
:101850002CEF0CF02EEF0CF04CEF0CF08F808B8205
:10186000918E700E22EC12F08F908B92919E700EE2
:1018700022EC12F001015151D8B441EF0CF043EFCA
:101880000CF04CEF0CF05505D8A449EF0CF04BEFE1
:101890000CF04CEF0CF0556B5551D8B452EF0CF0E6
:1018A00054EF0CF07DEF0BF08F808B82918ED00E79
:1018B00022EC12F08F908B92919ED00E22EC12F0BF
:1018C0007DEF0BF01200086A0850D8A46AEF0CF004
:1018D0006CEF0CF011EF0DF0000EA9EC12F0FF0A06
:1018E000D8A475EF0CF077EF0CF0B7EF0CF0010E09
:1018F000A9EC12F0FF0AD8A480EF0CF082EF0CF0F4
:10190000B7EF0CF0020EA9EC12F0FF0AD8A48BEF8F
:101910000CF08DEF0CF0B7EF0CF0030EA9EC12F009
:10192000FF0AD8A496EF0CF098EF0CF0B7EF0CF08C
:10193000000E0301696F000E6A6F000E6B6F000EE0
:101940006C6F000E016E000E0AEC12F0000E016EBC
:10195000010E0AEC12F0000E016E020E0AEC12F0FB
:10196000000E016E030E0AEC12F00FEF0DF0000EE8
:101970000301696F000E6A6F000E6B6F000E6C6FD3
:10198000000EA9EC12F0036E03C004F0056A066AAB
:10199000076A04C007F0066A056A046A0450030176
:1019A000691305506A1306506B1307506C13010E30
:1019B000A9EC12F0036E03C004F0056A066A076A18
:1019C00005C007F004C006F0056A046A045003016C
:1019D000691305506A1306506B1307506C13020EFF
:1019E000A9EC12F0036E03C004F0056A066A076AE8
:1019F00006C007F005C006F004C005F0046A0450F4
:101A00000301691305506A1306506B1307506C13DA
:101A1000030EA9EC12F0036E035003016913010ECB
:101A2000086E0001735103016927000E6A236B23BE
:101A30006C23354A362AE80E355C030E3658D8A09A
:101A400024EF0DF026EF0DF064EF0CF0000E366E73
:101A5000000E356E6CC301F0000E0AEC12F06BC381
:101A600001F0010E0AEC12F06AC301F0020E0AEC5A
:101A700012F069C301F0030E0AEC12F064EF0CF0EF
:101A80001200000E216E640E206E0A0E256E640E8A
:101A90000001746F736B876B7451640DF3CF70F535
:101AA000F4CF71F500017451D8B459EF0DF05BEF2C
:101AB0000DF0C7EF0DF0630E746561EF0DF063EF8D
:101AC0000DF065EF0DF0640E746F05016951D8A437
:101AD0006CEF0DF06EEF0DF052EF0DF02550681920
:101AE000D8A475EF0DF077EF0DF0BCEF0DF0226A82
:101AF00081EF0DF022500C0FD96EDA6ADF502426E8
:101B0000222A2550225CD8A088EF0DF08AEF0DF034
:101B10007AEF0DF025C001F0245021EC11F0246E75
:101B20002450086E096AF10E0802F3CF0AF0F4CFD0
:101B30000BF00902F3500B26FF0E0802F3500B26A0
:101B4000050170510A2671510B22F60E0A24706F9E
:101B5000FF0E0B20716F70C501F071C502F0000E11
:101B6000046E640E036E0DEC10F001500001746FF2
:101B70000501686BC3EF0DF068510C0FD96EDA6A7E
:101B800073C0DFFF682B010E696F52EF0DF0236AFF
:101B9000D0EF0DF023500C0FD96EDA6ADF6A232ADA
:101BA0002550235CD8A0D7EF0DF0D9EF0DF0CAEF88
:101BB0000DF0246A52EF0DF01200096A906A1F0EB0
:101BC000916E996A9A6A919A918C9198040E22EC7E
:101BD00012F091880C0E22EC12F001EF0EF0092A9F
:101BE0000C0E22EC12F0C80E0964F9EF0DF0FBEFB9
:101BF0000DF001EF0EF08B828F808B94F29EFFEF41
:101C00000DF0EEEC11F00009D8B409EF0EF00BEF77
:101C10000EF0EFEF0DF00F0E056E210E066E270E83
:101C2000BBEC10F0000E056E220E066E000EBBEC33
:101C300010F0000E056E240E066E000EBBEC10F0C8
:101C40007B0E056E400E066E000EBBEC10F0000E13
:101C5000056E410E066E280EBBEC10F0800E056E70
:101C6000420E066E000EBBEC10F0000E056E430E29
:101C7000066E280EBBEC10F0800E4BEC12F09C0EA2
:101C80004BEC12F0A00E4BEC12F0700E056E020E33
:101C90004EEC11F0120095828C968C94000E026E20
:101CA000640E016E39EC12F08C86046A030E026E2B
:101CB000E80E016E39EC12F0042A83A062EF0EF0F8
:101CC00064EF0EF066EF0EF0410E046E400E0464F9
:101CD0006CEF0EF06EEF0EF056EF0EF083A073EF88
:101CE0000EF075EF0EF0B3EF0EF0056A076A066AA4
:101CF00083A27DEF0EF07FEF0EF082EF0EF0075023
:101D00000109076E07500724076E000E026E640E6D
:101D1000016E39EC12F08C84010E026EF40E016E2D
:101D200039EC12F08C94010E026E900E016E39ECBB
:101D300012F0062A070E0664A0EF0EF0A2EF0EF0D6
:101D400078EF0EF003500524D96EDA6A07C0DFFF82
:101D5000052A83B0AEEF0EF0B0EF0EF076EF0EF086
:101D60000550B4EF0EF0000E1200066A04BEBDEF7F
:101D70000EF0BBEF0EF0C3EF0EF0036C041ED8B0F4
:101D8000042A010E066E02BECAEF0EF0C8EF0EF076
:101D9000D0EF0EF0016C021ED8B0022A010E061A16
:101DA000000E086E000E076E03500410D8B4DBEF6F
:101DB0000EF0DDEF0EF005EF0FF0010E056EE5EF12
:101DC0000EF0D89003360436052A04AEEAEF0EF082
:101DD000ECEF0EF0E1EF0EF0D89007360836035026
:101DE000015C04500258D8A0F8EF0EF0FAEF0EF0A4
:101DF000FFEF0EF00350015E0450025A0780D890A6
:101E000004320332052EECEF0EF00650D8B40BEF7F
:101E10000FF00DEF0FF011EF0FF0076C081ED8B0A8
:101E2000082A07C001F008C002F012000B6E0BC0B8
:101E300001F0026A000E046E640E036EB5EC0EF043
:101E400001500C6E0C509C0DF3500B240D6E0DC008
:101E500001F0026A000E046E0A0E036EB5EC0EF07D
:101E600001500D6E0C509C0DF3CF09F00D50F60D86
:101E7000F35009240B240A6E0C50100F0E6E42EF23
:101E80000FF00000C00E056E0E504EEC11F0000970
:101E9000D8B44DEF0FF04FEF0FF041EF0FF00D50B2
:101EA000100F0E6E55EF0FF00000C00E056E0E50B5
:101EB0004EEC11F00009D8B460EF0FF062EF0FF0B4
:101EC00054EF0FF00A50100F0E6E68EF0FF0000085
:101ED000C00E056E0E504EEC11F00009D8B473EF31
:101EE0000FF075EF0FF067EF0FF01200036E070EA3
:101EF000046E00019151905DD8B081EF0FF083EF37
:101F00000FF0CAEF0FF0902B03C001F0010E026E2C
:101F1000012A8DEF0FF0D8900236012E8BEF0FF0D3
:101F20000250FF0A00019317056AC1EF0FF005C0C8
:101F300001F0010E026E012AA0EF0FF0D8900236D8
:101F4000012E9EEF0FF00250000192150009D8B447
:101F5000ACEF0FF0AEEF0FF0C0EF0FF005C001F0E7
:101F6000010E026E012AB7EF0FF0D8900236012E53
:101F7000B5EF0FF00250FF0A00019217CAEF0FF001
:101F8000052A0450055CD8A0C8EF0FF0CAEF0FF087
:101F900097EF0FF01200000E096E060E47EC10F0DE
:101FA0000001745116EC0FF0000E096E080E47EC9C
:101FB00010F00001735116EC0FF0000E096E0A0EBE
:101FC00047EC10F00001845116EC0FF0000E096E82
:101FD0000C0E47EC10F003016C5116EC0FF0000EE4
:101FE000096E0D0E47EC10F003016B5116EC0FF06B
:101FF000000E096E0E0E47EC10F003016A5116EC4C
:102000000FF0000E096E0F0E47EC10F0030169513E
:1020100016EC0FF0CBEF0FF01200000E066E000E64
:10202000056E03500410D8B418EF10F01AEF10F03A
:1020300042EF10F0010E076E22EF10F0D890033639
:102040000436072A04AE27EF10F029EF10F01EEF38
:1020500010F0D890053606360350015C0450025843
:10206000D8A035EF10F037EF10F03CEF10F0035030
:10207000015E0450025A0580D89004320332072EC4
:1020800029EF10F005C001F006C002F012000C6E3E
:102090007B0E0E6E000E0D6E0F0E0C6452EF10F0E4
:1020A00054EF10F055EF10F00C6A270E09645BEF47
:1020B00010F05DEF10F05EEF10F0096A0C50280D83
:1020C000F3CF0AF0F4CF0BF009500A26000E0B22D2
:1020D0000D500A240D6E0E500B200E6E71EF10F095
:1020E00000000E50056E240E066E0D50BBEC10F075
:1020F0000009D8B47EEF10F080EF10F070EF10F010
:102100001200026A020E046EB0EF10F0996891801E
:1021100091969192000087CF03F0918291860350AF
:10212000030B036E030E0318D8B499EF10F09BEF66
:1021300010F0AEEF10F0022A0C0E22EC12F0F90EA5
:102140000264A5EF10F0A7EF10F0B0EF10F0F29ED0
:102150008B948B828F80046AB0EF10F0010E046EB6
:10216000020E0418D8B4B7EF10F0B9EF10F086EFF4
:1021700010F004501200076E086A81EC10F0E806B7
:10218000D8A4C5EF10F0C7EF10F0EFEF10F00C0E71
:1021900022EC12F007507DEC12F081EC10F0E80612
:1021A000D8A4D5EF10F0D7EF10F0EFEF10F00C0E31
:1021B00022EC12F005507DEC12F081EC10F0E806F4
:1021C000D8A4E5EF10F0E7EF10F0EFEF10F00C0EF1
:1021D00022EC12F0065089EC12F0010E086E085045
:1021E0001200036E00019051D8B4F9EF10F0FBEF2C
:1021F00010F00EEF11F0900703C001F0010E026E17
:10220000012A05EF11F0D8900236012E03EF11F0EC
:10221000025000019313010E20EF11F0906B03C0E8
:1022200001F0010E026E012A18EF11F0D89002366B
:10223000012E16EF11F0025000019213F284000EED
:102240001200026E046A0150D8B429EF11F02BEF8E
:1022500011F04CEF11F0010E036E32EF11F0D89037
:102260000136032A01AE37EF11F039EF11F02FEFED
:1022700011F0D89004360150025CD8A042EF11F062
:1022800044EF11F047EF11F00150025E0480D89046
:102290000132032E39EF11F004501200066E076A66
:1022A00081EC10F0E806D8A458EF11F05AEF11F0C5
:1022B00072EF11F00C0E22EC12F006507DEC12F0D1
:1022C00081EC10F0E806D8A468EF11F06AEF11F085
:1022D00072EF11F00C0E22EC12F0055089EC12F0A6
:1022E000010E076E07501200026EC16A160EC06E14
:1022F00002501F0B026E0244E846FC0B026E0250B5
:102300000109C26EC282C2B288EF11F08AEF11F0E9
:1023100083EF11F0C3A08FEF11F091EF11F094EF64
:1023200011F0016A96EF11F0C4CF01F001501200D4
:10233000000E056E240E066E000EBBEC10F0000EB3
:102340000A6E000E096EC00E056E000E4EEC11F006
:10235000094A0A2A800E0A180910D8A4B2EF11F00F
:10236000B4EF11F0A3EF11F01200800E056E240EF1
:10237000066E000EBBEC10F0800E0A6E000E096EA9
:10238000C00E056E000E4EEC11F0094A0A2AF80E36
:102390000A180910D8A4CFEF11F0D1EF11F0C0EF57
:1023A00011F01200A00E0F01266F256B246B236B1A
:1023B0002581258325852587248524878B848B8209
:1023C0008F800101596B9494949298909896989864
:1023D00095949596F19E0F01538D12009968918006
:1023E0009196919200000000000087CF01F0918249
:1023F00091860150030B030AD8A401EF12F003EFFA
:1024000012F007EF12F0010E016E08EF12F0016AF0
:1024100001501200026E7F9E7F9C02C062FF01C0CD
:1024200061FF7F84F29E550E7E6EAA0E7E6E7F82C5
:10243000F28E7F947FB21FEF12F021EF12F01AEFAD
:1024400012F01200016E30EF12F0000000000000E8
:102450000000000000000000000000000000010675
:102460000150D8A436EF12F038EF12F025EF12F039
:10247000120041EF12F00000000000000106D8A099
:10248000020601500210D8A448EF12F04AEF12F0F1
:102490003BEF12F01200056E81EC10F0E806D8A4B4
:1024A00054EF12F056EF12F05CEF12F00C0E22EC2B
:1024B00012F0055089EC12F01200949C948E080ED4
:1024C000656E040ED46EE10EAF6E040EAC6E800E1F
:1024D000AB6E240EAC6E900EAB6E1200D2EC11F00F
:1024E00085EC0AF0010E9FEC12F0D58EF284F28E8C
:1024F000000078EF12F0CEEF01F0016E01C090FF06
:10250000996A91909196919400000000918491862F
:102510001200016E01C090FF996A9180919691948A
:1025200000000000918491861200366A356A346A90
:10253000336A326A3790379200016EEF12F0000171
:10254000946F94C090F094C091F00001926B936BE3
:102550001200016E7F9E7F9C01C062FF7F806150F0
:02256000120067
:020000040020DA
:08000000FFFFFFFFFFFFFFFF00
:020000040030CA
:0E00000015136100308081FFFFC0FFE0FF405C
:00000001FF
