:04000000ABEF01F071
:10000800E1CF32F0E2CF33F0D9CF34F0DACF35F0A8
:10001800F3CF36F0F4CF37F0F6CF38F0F7CF39F02A
:10002800F8CF3AF0F5CF3BF01AEEACF0D8CF61F04C
:100038000001606FE0CF62F0EACF63F0E9CF64F0CF
:10004800F2AA29EF00F02BEF00F07FEF01F0F2A405
:1000580030EF00F032EF00F07FEF01F06505D8A433
:1000680038EF00F03AEF00F03EEF00F01B0EFC6EA8
:10007800000E656F6FC0EAFF000EE96E60C0EEFF0C
:1000880061C0EEFF62C0EEFFFCCFEEFF63C0EEFF83
:1000980064C0EEFFE2CFEEFFE1CFEEFFDACFEEFF76
:1000A800D9CFEEFFF4CFEEFFF3CFEEFFF8CFEEFFA0
:1000B800F7CFEEFFF6CFEEFFF5CFEEFFFBCFEEFF6B
:1000C800FACFEEFF000EE26E000EE16EE6CFEEFF15
:1000D800E6CFEEFFE6CFEEFFE6CFEEFFE6CFEEFF90
:1000E800E6CFEEFFE6CFEEFFE6CFEEFFE6CFEEFF80
:1000F800E6CFEEFFE6CFEEFFE6CFEEFFE6CFEEFF70
:10010800E6CFEEFFE6CFEEFFE6CFEEFFE6CFEEFF5F
:10011800E6CFEEFFE6CFEEFFE6CFEEFFE6CFEEFF4F
:10012800E6CFEEFFE6CFEEFFE6CFEEFFE6CFEEFF3F
:10013800E6CFEEFFE6CFEEFFE6CFEEFFE6CFEEFF2F
:10014800E6CFEEFFE6CFEEFFE6CFEEFFE6CFEEFF1F
:10015800E6CFEEFFE6CFEEFFE6CFEEFFE6CFEEFF0F
:10016800E6CFEEFFE6CFEEFFE6CFEEFFE6CFEEFFFF
:10017800E6CFEEFFE6CFEEFFE6CFEEFFE6CFEEFFEF
:10018800E6CFEEFFE6CFEEFFE6CFEEFF8A0ED76EA4
:10019800CF0ED66EF294714B722B702B060E70191F
:1001A800D8A4D9EF00F0DBEF00F0DDEF00F0000E8F
:1001B800706F690E7025D96EDA6A000EDA22DF5088
:1001C8006F6F000EE26E000EE16E6FC0EAFF120E56
:1001D800E96EEECFE6FFEECFE6FFEECFE6FFEECF1D
:1001E800E6FFEECFE6FFEECFE6FFEECFE6FFEECF7F
:1001F800E6FFEECFE6FFEECFE6FFEECFE6FFEECF6F
:10020800E6FFEECFE6FFEECFE6FFEECFE6FFEECF5E
:10021800E6FFEECFE6FFEECFE6FFEECFE6FFEECF4E
:10022800E6FFEECFE6FFEECFE6FFEECFE6FFEECF3E
:10023800E6FFEECFE6FFEECFE6FFEECFE6FFEECF2E
:10024800E6FFEECFE6FFEECFE6FFEECFE6FFEECF1E
:10025800E6FFEECFE6FFEECFE6FFEECFE6FFEECF0E
:10026800E6FFEECFE6FFEECFE6FFEECFE6FFEECFFE
:10027800E6FFEECFE6FFEECFE6FFEECFE6FFEECFEE
:10028800E6FFEECFE6FFEECFE6FFEECFE6FFEECFDE
:10029800E6FF6FC0EAFF000EE96EEECF60F0EECF2A
:1002A80061F0EECF62F0EECFFCFFEECF63F0EECF61
:1002B80064F0EECFE2FFEECFE1FFEECFDAFFEECF54
:1002C800D9FFEECFF4FFEECFF3FFEECFF8FFEECF7E
:1002D800F7FFEECFF6FFEECFF5FFEECFFBFFEECF49
:1002E800FAFF64C0E9FF63C0EAFF62C0E0FF605143
:1002F80061C0D8FF100064C0E9FF63C0EAFF62C0B4
:10030800E0FF0001605161C0D8FF100046EC08F022
:10031800D3EC0DF01FEC0DF0DDEC09F00AEC0CF05D
:1003280077EC12F03BC0F5FF3AC0F8FF39C0F7FF91
:1003380038C0F6FF37C0F4FF36C0F3FF35C0DAFF28
:1003480034C0D9FF33C0E2FF32C0E1FF110016EE1E
:0603580042F043EF13F038
:101000000020415543554E20202020202020202024
:1010100020202020200054656D702E204875696CBA
:10102000653A00582D4A6F79737469636B3A0059B9
:101030002D4A6F79737469636B3A0054656D702E35
:10104000204561753A0042617474657269653A00C1
:10105000566974657373653A004D61726368653AE9
:101060000042616467653A0053696567653A002824
:10107000282129290043686F633A0020793D004EFA
:101080002000783D0041520041560000F29E6EEC77
:101090000EF0D6EC12F0F3EC12F08BEC13F0020E23
:1010A00098EC12F0010E0001806F520EAD6EF28EC0
:1010B0008B948B928F90000E736F780E746F000E6E
:1010C0007F6F220E296E0D0EBBEC10F0520EDEEC7F
:1010D00011F0200EDEEC11F0560EDEEC11F0200EB9
:1010E000DEEC11F0420EDEEC11F0220E296E0E0E37
:1010F000BBEC10F0300EDEEC11F0200EDEEC11F047
:10110000300EDEEC11F0200EDEEC11F0300EDEECD5
:1011100011F0220E296E0F0EBBEC10F0310EDEEC3A
:1011200011F0200EDEEC11F0310EDEEC11F0200E8D
:10113000DEEC11F0310EDEEC11F0000E0001666FF6
:10114000000E296E000EBBEC10F0590E286E6DECEF
:1011500011F081B0AEEF08F0B0EF08F0B6EF08F094
:10116000880E286E6DEC11F0C7EF08F081B2BBEF6E
:1011700008F0BDEF08F0C3EF08F0850E286E6DECA7
:1011800011F0C7EF08F07F0E286E6DEC11F0000E25
:10119000296E010EBBEC10F0680E286E6DEC11F09C
:1011A00081B4D5EF08F0D7EF08F0DCEF08F0310E8E
:1011B000DEEC11F0DFEF08F0300EDEEC11F0000E87
:1011C000296E020EBBEC10F03B0E286E6DEC11F098
:1011D000020E2EEC12F073EC10F0000E296E030ECE
:1011E000BBEC10F0160E286E6DEC11F0030E2EEC19
:1011F00012F073EC10F0000E296E040EBBEC10F030
:10120000750E286E6DEC11F081B609EF09F00BEF49
:1012100009F010EF09F0310EDEEC11F013EF09F0D8
:10122000300EDEEC11F0000E296E050EBBEC10F056
:10123000500E286E6DEC11F084B021EF09F023EF11
:1012400009F025EF09F00001732B84B22AEF09F0B1
:101250002CEF09F02EEF09F0000173070001735124
:1012600073EC10F0000E296E060EBBEC10F0460E6B
:10127000286E6DEC11F084B440EF09F042EF09F0F4
:1012800044EF09F00001742B84B649EF09F04BEFED
:1012900009F04DEF09F0000174070001745173EC7F
:1012A00010F0000E296E070EBBEC10F084B85BEF57
:1012B00009F05DEF09F063EF09F06F0E286E6DEC39
:1012C00011F067EF09F0100E286E6DEC11F0000EB2
:1012D000296E080EBBEC10F0610E286E6DEC11F05B
:1012E00000017F51D8A477EF09F079EF09F07FEF83
:1012F00009F0010E286E6DEC11F097EF09F0000E69
:101300002F6E8DEF09F0750E2F24D96EDA6A000E5C
:10131000DA22DF5073EC10F02F2A00017F512F5C8E
:10132000D8A095EF09F097EF09F083EF09F0000ED0
:10133000296E090EBBEC10F0230E286E6DEC11F037
:101340000A0E2EEC12F073EC10F0000E296E0A0E4D
:10135000BBEC10F02F0E286E6DEC11F00B0E2EEC86
:1013600012F073EC10F000016605D8A4BAEF09F092
:10137000BCEF09F0D9EF09F0140E296E000EBBEC9A
:1013800010F0820E286E6DEC11F00001675173ECC5
:1013900010F07B0E286E6DEC11F00001685173ECBB
:1013A00010F068C029F00001675150EC0FF0A0EF79
:1013B00008F00000A0EF08F0120081A4E2EF09F0AD
:1013C000E4EF09F0F1EF09F000017F51D8B4EBEF41
:1013D00009F0EDEF09F0F1EF09F0010E456EF3EFC2
:1013E00009F0000E456E84B8F8EF09F0FAEF09F045
:1013F000FEEF09F0000E4F6E00EF0AF0010E4F6E87
:101400004504D8A406EF0AF008EF0AF01DEF0AF031
:101410004F50D8A40EEF0AF010EF0AF01DEF0AF0BB
:1014200081B015EF0AF017EF0AF01DEF0AF0000E79
:10143000446E010E436E3EEF0AF04504D8A423EF3C
:101440000AF025EF0AF03AEF0AF04F50D8A42BEF3C
:101450000AF02DEF0AF03AEF0AF081B232EF0AF00B
:1014600034EF0AF03AEF0AF0000E446E020E436EBB
:101470003EEF0AF0000E446E000E436E4504D8A401
:1014800044EF0AF046EF0AF0E6EF0AF00A0E2EECFF
:1014900012F0236E540E236050EF0AF052EF0AF060
:1014A00058EF0AF0000E406E020E3F6E6EEF0AF02B
:1014B0000A0E2EEC12F0236EAC0E236462EF0AF0DB
:1014C00064EF0AF06AEF0AF0000E406E010E3F6E04
:1014D0006EEF0AF0000E406E000E3F6E0B0E2EEC0B
:1014E00012F0236E540E236078EF0AF07AEF0AF0C0
:1014F00080EF0AF0000E426E010E416E96EF0AF088
:101500000B0E2EEC12F0236EAC0E23648AEF0AF061
:101510008CEF0AF092EF0AF0000E426E020E416E5E
:1015200096EF0AF0000E426E000E416E81B69BEF00
:101530000AF09DEF0AF09FEF0AF0000E456E020ED2
:101540002EEC12F0236E640E2364A9EF0AF0ABEFC9
:101550000AF0AFEF0AF0000E456EBDEF0AF0020E82
:101560002EEC12F0236E050E2360B9EF0AF0BBEFEC
:101570000AF0BDEF0AF0ABEF0AF0030E2EEC12F00A
:10158000236E6E0E2364C7EF0AF0C9EF0AF0CDEFA9
:101590000AF0000E456EDBEF0AF0030E2EEC12F09F
:1015A000236E050E2360D7EF0AF0D9EF0AF0DBEFC8
:1015B0000AF0C9EF0AF000017451D8A4E2EF0AF072
:1015C000E4EF0AF0E6EF0AF0000E456E81B2EBEFB1
:1015D0000AF0EDEF0AF0F0EF0AF0918EDDEF09F07E
:1015E000919EDDEF09F01200010E0001656F010E02
:1015F000696F020E6A6F030E6B6F040E6C6F050E3F
:101600006D6F060E6E6F050E706F690E7025D96EC8
:10161000DA6A000EDA22DF506F6FFCCF81F0020E23
:10162000FC6E8C0E486E100E496E000E4A6E48C05D
:101630004DF049C04EF04D0E4B6E4C6A4BC0D9FF79
:101640004CC0DAFFDF50FD6E4B4A4C2A4BC0D9FF2D
:101650004CC0DAFFDF50FE6E4B4A4C2A4BC0D9FF1C
:101660004CC0DAFFDF50FF6E070EFC6EA60E486E10
:101670001B0E496E000E4A6E48C04DF049C04EF038
:101680004D0E4B6E4C6A4BC0D9FF4CC0DAFFDF5099
:10169000FD6E4B4A4C2A4BC0D9FF4CC0DAFFDF50DD
:1016A000FE6E4B4A4C2A4BC0D9FF4CC0DAFFDF50CC
:1016B000FF6E0C0EFC6E3E0E486E1A0E496E000E4A
:1016C0004A6E48C04DF049C04EF04D0E4B6E4C6A0C
:1016D0004BC0D9FF4CC0DAFFDF50FD6E4B4A4C2A9D
:1016E0004BC0D9FF4CC0DAFFDF50FE6E4B4A4C2A8C
:1016F0004BC0D9FF4CC0DAFFDF50FF6E110EFC6EFD
:10170000BA0E486E130E496E000E4A6E48C04DF078
:1017100049C04EF04D0E4B6E4C6A4BC0D9FF4CC0C9
:10172000DAFFDF50FD6E4B4A4C2A4BC0D9FF4CC04C
:10173000DAFFDF50FE6E4B4A4C2A4BC0D9FF4CC03B
:10174000DAFFDF50FF6E160EFC6E140E486E180E98
:10175000496E000E4A6E48C04DF049C04EF04D0E25
:101760004B6E4C6A4BC0D9FF4CC0DAFFDF50FD6EA8
:101770004B4A4C2A4BC0D9FF4CC0DAFFDF50FE6EFB
:101780004B4A4C2A4BC0D9FF4CC0DAFFDF50FF6EEA
:101790001B0EFC6EEE0E486E240E496E000E4A6E55
:1017A00048C04DF049C04EF04D0E4B6E4C6A4BC0D8
:1017B000D9FF4CC0DAFFDF50FD6E4B4A4C2A4BC0BC
:1017C000D9FF4CC0DAFFDF50FE6E4B4A4C2A4BC0AB
:1017D000D9FF4CC0DAFFDF50FF6E81C0FCFF020E64
:1017E0000101036F070E0201036F0C0E0301036F6B
:1017F000110E0401036F160E0501036F1B0E060187
:10180000036F000E0001726F000E716F010ED56E36
:10181000F28A12009EA80FEF0CF011EF0CF00AEF05
:101820000CF0740EAD6EACA218EF0CF01AEF0CF0C9
:1018300013EF0CF09EA81FEF0CF021EF0CF01AEF45
:101840000CF0610EAD6EACA228EF0CF02AEF0CF09C
:1018500023EF0CF09EA82FEF0CF031EF0CF02AEFE5
:101860000CF0630EAD6EACA238EF0CF03AEF0CF05A
:1018700033EF0CF09EA83FEF0CF041EF0CF03AEF85
:101880000CF0680EAD6EACA248EF0CF04AEF0CF015
:1018900043EF0CF09EA84FEF0CF051EF0CF04AEF25
:1018A0000CF0650EAD6EACA258EF0CF05AEF0CF0D8
:1018B00053EF0CF09EA85FEF0CF061EF0CF05AEFC5
:1018C0000CF0350EAD6EACA268EF0CF06AEF0CF0C8
:1018D00063EF0CF09EA86FEF0CF071EF0CF06AEF65
:1018E0000CF05F0EAD6EACA278EF0CF07AEF0CF05E
:1018F00073EF0CF09EA87FEF0CF081EF0CF07AEF05
:101900000CF0650EAD6EACA288EF0CF08AEF0CF017
:1019100083EF0CF09EA88FEF0CF091EF0CF08AEFA4
:101920000CF06E0EAD6EACA298EF0CF09AEF0CF0CE
:1019300093EF0CF09EA89FEF0CF0A1EF0CF09AEF44
:101940000CF05F0EAD6EACA2A8EF0CF0AAEF0CF09D
:10195000A3EF0CF09EA8AFEF0CF0B1EF0CF0AAEFE4
:101960000CF0630EAD6EACA2B8EF0CF0BAEF0CF059
:10197000B3EF0CF09EA8BFEF0CF0C1EF0CF0BAEF84
:101980000CF06F0EAD6EACA2C8EF0CF0CAEF0CF00D
:10199000C3EF0CF09EA8CFEF0CF0D1EF0CF0CAEF24
:1019A0000CF0750EAD6EACA2D8EF0CF0DAEF0CF0C7
:1019B000D3EF0CF09EA8DFEF0CF0E1EF0CF0DAEFC4
:1019C0000CF0720EAD6EACA2E8EF0CF0EAEF0CF08A
:1019D000E3EF0CF09EA8EFEF0CF0F1EF0CF0EAEF64
:1019E0000CF0730EAD6EACA2F8EF0CF0FAEF0CF049
:1019F000F3EF0CF0000E226E000E216E214A222A17
:101A0000E80E215CFD0E2258D8A009EF0DF00BEF77
:101A10000DF0FEEF0CF0000E226E000E216E214A3A
:101A2000222AE80E215CFD0E2258D8A01AEF0DF0F4
:101A30001CEF0DF00FEF0DF00AEF0CF0120000019B
:101A40006605D8A426EF0DF028EF0DF05AEF0DF043
:101A5000CA0E67652EEF0DF030EF0DF05AEF0DF066
:101A6000D10E676136EF0DF038EF0DF05AEF0DF043
:101A7000700E68653EEF0DF040EF0DF049EF0DF090
:101A8000790E686146EF0DF048EF0DF049EF0DF06B
:101A90008B84780E68654FEF0DF051EF0DF05AEF23
:101AA0000DF07F0E686157EF0DF059EF0DF05AEF12
:101AB0000DF08B946605D8A460EF0DF062EF0DF089
:101AC00094EF0DF0D60E676568EF0DF06AEF0DF03C
:101AD00094EF0DF0DD0E676170EF0DF072EF0DF019
:101AE00094EF0DF0700E686578EF0DF07AEF0DF061
:101AF00083EF0DF0790E686180EF0DF082EF0DF04D
:101B000083EF0DF08B82780E686589EF0DF08BEF17
:101B10000DF094EF0DF07F0E686191EF0DF093EFF3
:101B20000DF094EF0DF08B926605D8A49AEF0DF0AE
:101B30009CEF0DF01FEF0DF0E20E6765A2EF0DF0C8
:101B4000A4EF0DF01FEF0DF0E90E6761AAEF0DF0A5
:101B5000ACEF0DF01FEF0DF0700E6865B2EF0DF0F9
:101B6000B4EF0DF0BDEF0DF0790E6861BAEF0DF036
:101B7000BCEF0DF0BDEF0DF08F80780E6865C3EF00
:101B80000DF0C5EF0DF0D0EF0DF07F0E6861CBEFDB
:101B90000DF0CDEF0DF0D0EF0DF08F901FEF0DF0A9
:101BA0001FEF0DF01200000E0001666F8F868F98F8
:101BB0000B0E226EB80E216E67EC13F0160EC06E7F
:101BC000010EC26E030EC26EC2B2E9EF0DF0EBEF72
:101BD0000DF0E4EF0DF0C4CF2EF0C3CF2FF02FC0E7
:101BE00028F00F0E2816D8B4F8EF0DF0FAEF0DF02C
:101BF000FEEF0DF0000E2E6E000E2F6E090E2E64FD
:101C000004EF0EF006EF0EF0D3EF0DF08F968F88F5
:101C10000B0E226EB80E216E67EC13F0160EC06E1E
:101C2000050EC26E070EC26EC2B219EF0EF01BEFA8
:101C30000EF014EF0EF0C4CF30F0C3CF31F031C04E
:101C400028F00F0E2816D8B428EF0EF02AEF0EF069
:101C50002EEF0EF0000E306E000E316E130E30645B
:101C600034EF0EF036EF0EF0D3EF0DF02E50286E5D
:101C70002F502A6E28C02BF03050286E31502C6E19
:101C800028C02DF0B20E2A242A6EF30E2B202B6EC4
:101C90009C0E2C242C6EE60E2D202D6E2AC021F0D9
:101CA0002BC022F0000E246EF60E236E33EC11F0E2
:101CB00021500001676F2CC021F02DC022F0010ED1
:101CC000246E990E236E33EC11F021507F08000131
:101CD000686F010E666FD6EF0DF01200000E296ED0
:101CE000000E906E1F0E916E000E996E000E9A6E91
:101CF000919A918C9198040E2CEC13F091880C0E13
:101D00002CEC13F096EF0EF0292A0C0E2CEC13F0AD
:101D1000C80E29648EEF0EF090EF0EF096EF0EF0E5
:101D20008B828F808B94F29E94EF0EF0B9EC12F0C0
:101D30000009D8B49EEF0EF0A0EF0EF084EF0EF085
:101D40000F0E256E210E266E270EA7EC11F0000E49
:101D5000256E220E266E000EA7EC11F0000E256EE9
:101D6000240E266E000EA7EC11F07B0E256E400EA1
:101D7000266E000EA7EC11F0000E256E410E266EA9
:101D8000280EA7EC11F0800E256E420E266E000E76
:101D9000A7EC11F0000E256E430E266E280EA7EC60
:101DA00011F0800E79EC13F09C0E79EC13F0A00E7C
:101DB00079EC13F0700E256E020E07EC12F0120093
:101DC00095828C968C94000E226E640E216E55ECDA
:101DD00013F08C86000E256E030E226EE80E216E27
:101DE00055EC13F0252A83A0F8EF0EF0FAEF0EF071
:101DF000FCEF0EF0410E256E400E256402EF0FF051
:101E000004EF0FF0ECEF0EF083A009EF0FF00BEFF3
:101E10000FF04EEF0FF0000E266E000E286E000E33
:101E2000276E83A216EF0FF018EF0FF01BEF0FF0E5
:101E300028500109286E28502824286E000E226E92
:101E4000640E216E55EC13F08C84010E226EF40E9C
:101E5000216E55EC13F08C94010E226E900E216EC3
:101E600055EC13F0272A070E276439EF0FF03BEFEC
:101E70000FF011EF0FF026502324D96E000E24200E
:101E8000DA6E28C0DFFF262A83B049EF0FF04BEF50
:101E90000FF00DEF0FF026504FEF0FF0000E120075
:101EA0002E6E2EC021F0226A000E246E060E236EC6
:101EB000B9EC0FF02950280DF3CF2AF0F4CF2BF016
:101EC00021502A242C6E22502B202D6E2D50256E51
:101ED000240E266E2C50A7EC11F08DEF0FF0FD0EA6
:101EE00079EC13F0B8EF0FF0FC0E79EC13F0B8EFCB
:101EF0000FF0FB0E79EC13F0B8EF0FF0FA0E79EC5F
:101F000013F0B8EF0FF0F90E79EC13F0B8EF0FF013
:101F1000F80E79EC13F0B8EF0FF02EC021F0226A22
:101F2000000E246E060E236E1BEC10F02250000AE9
:101F3000D8B49DEF0FF0B8EF0FF02150000AD8B4DD
:101F40006FEF0FF0010AD8B474EF0FF0030AD8B4A2
:101F500079EF0FF0010AD8B47EEF0FF0070AD8B47A
:101F600083EF0FF0010AD8B488EF0FF0B8EF0FF04D
:101F70001200000E266E24BEC2EF0FF0C0EF0FF06D
:101F8000C8EF0FF0236C241ED8B0242A010E266E51
:101F900022BECFEF0FF0CDEF0FF0D5EF0FF0216C99
:101FA000221ED8B0222A010E261A000E286E000E1C
:101FB000276E23502410D8B4E0EF0FF0E2EF0FF0BB
:101FC0000AEF10F0010E256EEAEF0FF0D8902336DD
:101FD0002436252A24AEEFEF0FF0F1EF0FF0E6EFF5
:101FE0000FF0D890273628362350215C24502258F1
:101FF000D8A0FDEF0FF0FFEF0FF004EF10F023502B
:10200000215E2450225A2780D89024322332252E54
:10201000F1EF0FF02650D8B410EF10F012EF10F0DF
:1020200016EF10F0276C281ED8B0282A27C021F000
:1020300028C022F01200000E266E22BE24EF10F0FF
:1020400022EF10F02AEF10F0216C221ED8B0222AC5
:10205000010E266E24BE31EF10F02FEF10F035EF99
:1020600010F0236C241ED8B0242A23502410D8B496
:102070003CEF10F03EEF10F062EF10F0010E256E15
:1020800046EF10F0D89023362436252A24AE4BEFA5
:1020900010F04DEF10F042EF10F02350215C24506F
:1020A0002258D8A056EF10F058EF10F05CEF10F067
:1020B0002350215E2450225AD89024322332252ED8
:1020C0004DEF10F02650D8B468EF10F06AEF10F022
:1020D0006EEF10F0216C221ED8B0222A21C021F010
:1020E00022C022F01200286E28380F0B296E090E2C
:1020F00029647DEF10F07FEF10F084EF10F029508D
:10210000170F296E8AEF10F02950100F296E8AEFF1
:1021100010F00000C00E256E295007EC12F00009E7
:10212000D8B495EF10F097EF10F089EF10F0285029
:102130000F0B296E090E2964A0EF10F0A2EF10F02A
:10214000A7EF10F02950170F296EADEF10F02950AE
:10215000100F296EADEF10F00000C00E256E295053
:1021600007EC12F00009D8B4B8EF10F0BAEF10F095
:10217000ACEF10F012002C6E7B0E2E6E000E2D6E4A
:102180000F0E2C64C6EF10F0C8EF10F0CAEF10F07D
:10219000000E2C6E270E2964D0EF10F0D2EF10F055
:1021A000D4EF10F0000E296E2C50280DF3CF2AF03A
:1021B000F4CF2BF029502A26000E2B222D502A2452
:1021C0002D6E2E502B202E6EE7EF10F000002E50BB
:1021D000256E240E266E2D50A7EC11F00009D8B400
:1021E000F4EF10F0F6EF10F0E6EF10F01200000E32
:1021F000226E020E246E28EF11F09968918091965C
:102200009192000087CF23F0918291862350030B97
:10221000236E030E2318D8B410EF11F012EF11F053
:1022200026EF11F0222A0C0E2CEC13F0F90E22648A
:102230001CEF11F01EEF11F028EF11F0F29E8B94BD
:102240008B828F80000E246E28EF11F0010E246E19
:10225000020E2418D8B42FEF11F031EF11F0FDEF7A
:1022600010F024501200000E266E000E256E235032
:102270002410D8B43EEF11F040EF11F068EF11F0E8
:10228000010E276E48EF11F0D89023362436272A06
:1022900024AE4DEF11F04FEF11F044EF11F0D89054
:1022A000253626362350215C24502258D8A05BEFD7
:1022B00011F05DEF11F062EF11F02350215E245018
:1022C000225A2580D89024322332272E4FEF11F046
:1022D00025C021F026C022F0120086EF11F0000088
:1022E000C00E256E28C0F6FF100EF76E000EF86EB9
:1022F0000800F550E00F07EC12F00009D8B483EFA6
:1023000011F085EF11F06FEF11F0282A28C0F6FFC9
:10231000100EF76E000EF86E0800F5500009D8B4E4
:1023200094EF11F096EF11F0A6EF11F028C0F6FF30
:10233000100EF76E000EF86E0800F5500009D8A4D4
:10234000A4EF11F0A6EF11F070EF11F01200276E5C
:10235000000E286EF7EC10F0E806D8A4B2EF11F0EA
:10236000B4EF11F0DCEF11F00C0E2CEC13F0275051
:10237000ABEC13F0F7EC10F0E806D8A4C2EF11F0C4
:10238000C4EF11F0DCEF11F00C0E2CEC13F0255023
:10239000ABEC13F0F7EC10F0E806D8A4D2EF11F094
:1023A000D4EF11F0DCEF11F00C0E2CEC13F02650F2
:1023B000B8EC13F0010E286E28501200286E200E83
:1023C0002860E5EF11F0E7EF11F0E9EF11F03F0EB3
:1023D000286E9F0E2864EFEF11F0F1EF11F0F3EF8C
:1023E00011F03F0E286E2850E00F286EF9EF11F023
:1023F0000000C00E256E285007EC12F00009D8B47A
:1024000004EF12F006EF12F0F8EF11F01200266E52
:10241000000E276EF7EC10F0E806D8A412EF12F0C9
:1024200014EF12F02CEF12F00C0E2CEC13F02650DF
:10243000ABEC13F0F7EC10F0E806D8A422EF12F0A2
:1024400024EF12F02CEF12F00C0E2CEC13F02550B0
:10245000B8EC13F0010E276E27501200226E000E0A
:10246000C16E160EC06E22501F0B226E2244E8462B
:10247000FC0B226E22500109C26EC282C2B243EF2F
:1024800012F045EF12F03EEF12F0C3A04AEF12F047
:102490004CEF12F050EF12F0000E216E52EF12F0DE
:1024A000C4CF21F0215012000001836F60EF12F0C1
:1024B000010E476E76EF12F0010E466E76EF12F0C7
:1024C00000018351816F826B8251000AD8B46BEF97
:1024D00012F076EF12F08151010AD8B458EF12F0E1
:1024E000030AD8B45CEF12F076EF12F01200750E0A
:1024F000236E000E246EE0EC0EF0296E2950D8B445
:1025000084EF12F086EF12F092EF12F00A0E2960BB
:102510008CEF12F08EEF12F092EF12F029C07FF0E4
:1025200077EF12F0000E00017F6F77EF12F01200CC
:10253000236EA3EF12F0010E476EB8EF12F0010EFA
:10254000466EB8EF12F02350216E226A2250000A24
:10255000D8B4ADEF12F0B8EF12F02150010AD8B4A0
:102560009BEF12F0030AD8B49FEF12F0B8EF12F00D
:1025700012009968918091969192000000000000ED
:1025800087CF21F0918291862150030B030AD8A4B2
:10259000CCEF12F0CEEF12F0D2EF12F0010E216E5E
:1025A000D4EF12F0000E216E21501200000E256EA5
:1025B000240E266E000EA7EC11F0000E2A6E000EFF
:1025C000296EC00E256E000E07EC12F0294A2A2A49
:1025D000800E2A182910D8A4F0EF12F0F2EF12F0B2
:1025E000E1EF12F01200800E256E240E266E000E12
:1025F000A7EC11F0800E2A6E000E296EC00E256E1B
:10260000000E07EC12F0294A2A2AF80E2A1829107F
:10261000D8A40DEF13F00FEF13F0FEEF12F012003D
:10262000A00E0F01266F000E256F000E246F000E06
:10263000236F2581258325852587248524878B8401
:102640008B828F8094949492989098969898959471
:102650009596F19E538D1200216E3AEF13F0000013
:10266000000000000000000000000000000000006A
:10267000000021062150D8A440EF13F042EF13F0E0
:102680002FEF13F012008A0EF66E270EF76E000E73
:10269000F86E0900F5CF4FF000EE3CF00C0EEE6A3C
:1026A000E806FDE100019CEF13F05DEF13F0000080
:1026B000000000002106D8A0220621502210D8A434
:1026C00064EF13F066EF13F057EF13F012006FEFA3
:1026D00013F00000000000002106D8A022062150BF
:1026E0002210D8A476EF13F078EF13F069EF13F00F
:1026F0001200256EF7EC10F0E806D8A482EF13F074
:1027000084EF13F08AEF13F00C0E2CEC13F025502D
:10271000B8EC13F01200949C948E080E656E040EB3
:10272000D46EE10EAF6E040EAC6E800EAB6E240E56
:10273000AC6E900EAB6E120010EC13F0F4EC0AF0DD
:10274000010E54EC12F0D58EF284F28E0000A6EF4A
:1027500013F0ABEF01F0216E21C090FF000E996ED7
:1027600091909196919400000000918491861200BE
:10277000216E21C090FF000E996E918091969194E8
:0B27800000000000918491861200010F
:020000040020DA
:08000000FFFFFFFFFFFFFFFF00
:020000040030CA
:0E00000015136100308081FFFFC0FFE0FF405C
:00000001FF
